:020000040800F2
:1000000000A00020991B0008951A00089D1A0008FE
:10001000A51A0008AD1A0008B51A00080000000073
:10002000000000000000000000000000BD1A0008F1
:10003000CB1A000800000000D91A0008E71A0008CF
:10004000E91B0008E91B0008E91B0008E91B000880
:10005000E91B0008E91B0008E91B0008E91B000870
:10006000E91B0008E91B0008E91B0008E91B000860
:10007000E91B0008E91B0008E91B0008E91B000850
:10008000E91B0008E91B0008E91B0008000000004C
:10009000000000000000000000000000E91B000854
:1000A000E91B0008E91B0008E91B0008E91B000820
:1000B000E91B00080000000000000000E91B000828
:1000C000E91B0008E91B0008E91B0008E91B000800
:1000D000E91B0008F51A0008E91B0008E91B0008E5
:1000E000E91B0008E91B00080000000000000000F8
:1000F0000000000000000000000000000000000000
:1001000000000000000000000000000000000000EF
:100110000000000000000000E91B000800000000D3
:10012000E91B0008E91B0008E91B0008E91B00089F
:10013000E91B0008000000000000000000000000B3
:10014000E91B0008E91B0008E91B0008E91B00087F
:10015000E91B0008E91B0008E91B0008E91B00086F
:10016000E91B0008E91B0008000000000000000077
:1001700000000000E91B0008000000000000000073
:0C018000E91B0008E91B0008E91B00084F
:1001900010B5054C237833B9044B13B10448AFF3C1
:1001A00000800123237010BD7C00002000000000AF
:1001B0006C57000808B5034B1BB103490348AFF364
:1001C000008008BD00000000800000206C5700087F
:1001D000034613F8012B002AFBD1181A0138704787
:1001E00001F0FF01102A2BDB10F0070F08D010F8E8
:1001F000013B013A8B422DD010F0070F42B3F6D1EC
:10020000F0B441EA012141EA014122F007047FF004
:1002100000070023F0E80256083C85EA010586EA5B
:10022000010685FA47F5A3FA87F586FA47F6A5FA97
:1002300087F68EB9EED1F0BC01F0FF0102F00702A3
:1002400032B110F8013B013A83EA010313B1F8D14E
:100250000020704701387047002D06BF354603382F
:10026000073815F0010F07D1013015F4807F02BF68
:10027000013015F4C03F0130F0BC0138704700BFB9
:1002800053B94AB9002908BF00281CBF4FF0FF31FD
:100290004FF0FF3000F06AB9ADF1080C6DE904CE03
:1002A00000F006F8DDF804E0DDE9022304B0704751
:1002B0002DE9F047089D0C46002B4ED194468C4505
:1002C0008646B2FA82F262D94AB1C2F12003914065
:1002D00020FA03F30CFA02FC194300FA02FE4FEA7B
:1002E0001C471FFA8CF6B1FBF7F44FEA1E4307FBDD
:1002F000141143EA014304FB06F199420AD91CEBAD
:10030000030304F1FF3080F01281994240F20F8123
:10031000023C6344591A1FFA8EF3B1FBF7F007FB56
:10032000101143EA014300FB06F69E420AD91CEB7A
:10033000030300F1FF3180F0FC809E4240F2F9801F
:10034000634402389B1B40EA044000211DB1D340A6
:100350000022C5E90032BDE8F0878B4205D90DB116
:10036000C5E9000100210846F5E7B3FA83F1002949
:1003700046D1A34202D39042C0F0F080861A64EBCB
:1003800003030120002DE6D0C5E90063E3E7002A5E
:1003900040F09080A1EB0C044FEA1C481FFA8CF748
:1003A0000121B4FBF8F64FEA1E4308FB164443EA6A
:1003B000044307FB06F0984208D91CEB030306F13F
:1003C000FF3402D2984200F2CD8026461C1A1FFA52
:1003D0008EF3B4FBF8F008FB104443EA044300FB3F
:1003E00007F79F4208D91CEB030300F1FF3402D248
:1003F0009F4200F2B0802046DB1B40EA0640A5E7A2
:10040000C1F120068B4022FA06F71F4320FA06FCB2
:1004100004FA01F343EA0C03F44000FA01F8380C43
:100420004FEA1349B4FBF0FE1FFA87FC00FB1E44A1
:1004300049EA04440EFB0CF9A14502FA01F20AD97B
:100440003C190EF1FF3A80F08480A14540F2818092
:10045000AEF1020E3C44A4EB09041FFA83F9B4FB8D
:10046000F0F300FB134449EA044403FB0CFCA445ED
:1004700007D93C1903F1FF3067D2A44565D9023B87
:100480003C4443EA0E40A0FB0293A4EB0C049C42C4
:10049000CE469C4651D34ED055B1B8EB0E0364EB1B
:1004A0000C0404FA06F6CB401E43CC40C5E90064B8
:1004B000002150E7C2F1200320FA03F10CFA02FCFC
:1004C00024FA03F394400C434FEA1C4800FA02FE5E
:1004D0001FFA8CF7B3FBF8F008FB1031230C43EA4A
:1004E000014300FB07F1994208D91CEB030300F11B
:1004F000FF362CD299422AD9023863445B1AA4B23F
:10050000B3FBF8F108FB113344EA034401FB07F3A2
:10051000A34208D91CEB040401F1FF3613D2A34215
:1005200011D902396444E41A41EA004139E704462A
:10053000F0E6084606E7C845AED2B9EB020E63EB1B
:10054000070C0138A8E73146EDE7034699E7304646
:10055000D4E7D6467FE7634402384DE70646234694
:1005600008460FE7023E634430E700BF704700BF14
:1005700080B483B000AF0346FB7197F90730002BBE
:1005800012DBFB7903F01F020A4997F907305B0978
:10059000012000FA02F2203341F82320BFF34F8FED
:1005A00000BFBFF36F8F00BF00BF0C37BD465DF8C3
:1005B000047B704700E100E080B483B000AF0346E5
:1005C000FB7197F90730002B0CDBFB7903F01F025E
:1005D000074997F907305B09012000FA02F26033FE
:1005E00041F8232000BF0C37BD465DF8047B7047FF
:1005F00000E100E080B485B000AF78607B68002B3C
:1006000015D00E4B5B68BB600D4B1B680D4AA2FBFF
:1006100003239A0C7B6802FB03F3FB6000BF074BCC
:100620005A68BB68D31AFA689A42F8D800E000BF4B
:100630001437BD465DF8047B704700BF001000E032
:100640000000002083DE1B4380B485B000AF002390
:10065000FB601EE0FB68BB6000237B600EE0BB68B4
:100660005B08BA6802F00102002A01D00E4A00E0DD
:1006700000225340BB607B6801337B607B68072BA3
:10068000EDD90A49FB68BA6841F82320FB680133B9
:10069000FB60FB68FF2BDDD900BF00BF1437BD46F0
:1006A0005DF8047B704700BF2083B8ED9800002000
:1006B00080B485B000AF786039604FF0FF33FB60E5
:1006C0000023BB6011E07A68BB6813441B781A46AC
:1006D000FB685340DBB20B4A52F82320FB681B0A2D
:1006E0005340FB60BB680133BB60BA683B689A4209
:1006F000E9D3FB68DB4318461437BD465DF8047B3D
:10070000704700BF9800002080B586B000AFB96088
:100710007B600346FB731346BB81BB89B3F5806FD7
:1007200001D900234AE07B68AA221A707B68013352
:10073000BA89D2B21A70BB891B0A9BB2DAB27B6843
:10074000023302F07F02D2B21A707B680333FA7B65
:100750001A70BB68002B06D07B680433BA89B9686D
:10076000184604F0B7FB7B685A1CBB890333194653
:100770001046FFF79DFF7861BB8904331A467B68FA
:1007800013447A69D2B21A707B69190ABB8905339E
:100790007A681344CAB21A707B69190CBB89063394
:1007A0007A681344CAB21A707B69190EBB89073381
:1007B0007A681344CAB21A70BB89083318461837CE
:1007C000BD4680BD80B586B000AF78600B46FB703B
:1007D0001346BB70AA233B7300237B73BB78002BAB
:1007E00001D0802300E00023BB73FB78FB7307F18B
:1007F0000C03013303211846FFF75AFF78617B6928
:10080000DBB23B747B691B0ADBB27B747B691B0C1C
:10081000DBB2BB747B691B0EDBB2FB747B68586870
:100820007B681B890122194602F0CEF87B681B6A9F
:100830001846FFF7DFFE7B68186807F10C014FF4DC
:100840007A73082203F0D3F97B681B6A1846FFF716
:10085000D1FE7B6858687B681B890022194602F02C
:10086000B3F800BF1837BD4680BD000080B58AB020
:1008700000AFF860B9603B601346FB800023FB7457
:10088000002387F8273001F019FA386211E0FB687D
:10089000186807F113010A23012203F031FA034615
:1008A000002B06D1FB7CAA2B03D1BB68AA221A70AD
:1008B00007E001F003FA02463B6AD31A3A689A420B
:1008C000E5D8FB7CAA2B01D003239BE0FB681868CA
:1008D000BB68591C6423022203F012FA03461A462D
:1008E00097F82730134387F82730BB6801331B780C
:1008F0001AB2BB6802331B781B021BB203F4FE431F
:100900001BB213431BB2FB83FB8BB3F5806F04D880
:10091000FB8BDA1DFB889A4201DB012372E0FB6846
:100920001868BB68D91C6423012203F0E9F9034667
:100930001A4697F82730134387F82730FB8B002B94
:1009400017D0FB681868BB68191DFB8B2F4AA2FBE8
:1009500003235B099BB20133642202FB03F3FA8B8E
:1009600003F0CEF903461A4697F82730134387F869
:100970002730FB681868FB8B04331A46BB6899184C
:100980006423042203F0BCF903461A4697F8273083
:10099000134387F8273097F82730002B02D097F8B9
:1009A00027302FE0FB8B04331A46BB6813441B78B7
:1009B0001A46FB8B05331946BB680B441B781B0298
:1009C0001A43FB8B06331946BB680B441B781B0488
:1009D0001A43FB8B07331946BB680B441B781B0675
:1009E0001343BB61BB685A1CFB8B0333194610468B
:1009F000FFF75EFE78617A69BB699A4201D00123F4
:100A000000E0002318462837BD4680BD1F85EB5106
:100A100080B487B000AFF860B9607A60FB687B6132
:100A200000233B6111E0BA683B6913441B781A4606
:100A30007B695340DBB20A4A52F823207B691B0AC8
:100A400053407B613B6901333B613A697B689A4261
:100A5000E9D37B6918461C37BD465DF8047B7047B7
:100A60009800002090B583B000AF786039607B6853
:100A700058687B681B890122194601F0A5FF7B6835
:100A80001B6A1846FFF7B6FD7B681C683868FFF7DD
:100A90009FFB03469AB24FF47A733968204603F0FD
:100AA000A6F87B681B6A1846FFF7A4FD7B685868A8
:100AB0007B681B890022194601F086FF00BF0C37B6
:100AC000BD4690BD80B584B000AFF860B9607A6073
:100AD000FB685B6A20221946B86804F0FBF9BB6822
:100AE0001F3300221A70FB685B6A203320221946EC
:100AF000786804F0EFF97B681F3300221A7000BF9A
:100B00001037BD4680BD80B594B000AFF860B960C5
:100B10007A60002387F84F3001F00AFB07F12403C5
:100B200000221A605A609A60DA6000237B62012317
:100B3000BB62FB685B6A03F17842FB689B6AB2FBAD
:100B4000F3F3FB6201233B6300233B6207F12002C6
:100B500007F124031146184601F0CEFB0346002B93
:100B600003D13B6AB3F1FF3F02D0012387F84F3036
:100B700097F84F30002B30D1FB685B6A3B64002351
:100B8000BB6427E04FF000024FF00003C7E90623E3
:100B9000BB6CC3F12003082B28BF0823FB63BA6892
:100BA000BB6CD11807F11803FA6B184604F092F9E0
:100BB0003A6CBB6CD118D7E90623002001F04CFA3F
:100BC0000346002B03D0012387F84F3005E0BB6CB0
:100BD0000833BB64BB6C1F2BD4D997F84F30002B64
:100BE00031D1FB685B6A2033BB6300237B6427E061
:100BF0004FF000024FF00003C7E904237B6CC3F100
:100C00002003082B28BF08237B637A687B6CD118EC
:100C100007F110037A6B184604F05CF9BA6B7B6C31
:100C2000D118D7E90423002001F016FA0346002B5F
:100C300003D0012387F84F3005E07B6C08337B64D9
:100C40007B6C1F2BD4D901F095FA97F84F301846DA
:100C50005037BD4680BD000080B59EB000AFF86043
:100C6000B9607A6007F114007B68BA68064904F03D
:100C7000D5F807F114031946F868FFF7F3FE00BF33
:100C80007837BD4680BD00BF8457000880B586B068
:100C900000AF786023497868FFF7E4FE7B68DB6883
:100CA0007B617B691B68B3F1FF3F38D072B600BF30
:100CB0007B681B68184602F05DFF7B685A687B689A
:100CC0001B891946104601F0ADFD174B00221A6032
:100CD000154B00225A60144B00229A602520FFF722
:100CE0006BFC2520FFF744FC4FF0FF30FFF764FC5E
:100CF0004FF0FF30FFF73CFC0C4A7B6993607B6947
:100D000004331B683B613B69FB607B691B68BB600C
:100D1000BB6883F3088800BFFB68984700BF00BF2B
:100D2000FDE700BF9C57000810E000E000ED00E088
:100D300080B582B000AF78607B68002B07D07B68FD
:100D40001B68002B03D07B685B68002B01D101235B
:100D50000EE0FFF779FC084BDB68074A43F080732D
:100D6000D360064B1B68054A43F001031360002360
:100D700018460837BD4680BDF0ED00E0001000E0E9
:100D800080B5ADF6A80D00AF07F6A803A3F6A4033F
:100D9000186007F6A803A3F6A4038D491868FFF7A7
:100DA00061FE07F6A803A3F6A4031B685B6A002B89
:100DB00040D007F1280207F1080107F6A803A3F6BF
:100DC000A4031868FFF77EFE07F6A803A3F50A63DD
:100DD0001B78FF2B04D007F108031B78002B1ED1D2
:100DE00007F108037B4A92E8030018600433198076
:100DF00002330A0C1A7007F12803774A07CA03C3A3
:100E00001A800233120C1A7007F1280207F1080148
:100E100007F6A803A3F6A4031868FFF774FE07F10A
:100E2000280207F1080107F6A803A3F6A40318682F
:100E3000FFF712FF07F24C4107F6A803A3F6A40040
:100E400041F288334FF481620068FFF70FFD0346DB
:100E5000002B40F0CD8007F6A803A3F25C43DB78BB
:100E600087F87F3807F6A803A3F25C435B781AB2D1
:100E700007F6A803A3F25C439B781B021BB203F4A2
:100E8000FE431BB213431BB2A7F87C3807F24C4356
:100E90000433C7F87838002387F8A73897F87F38E5
:100EA000052B40F09B80B7F87C38402B03D8B7F86F
:100EB0007C38032B03D8012387F8A7387BE007F69B
:100EC000A803A3F50A6300221A60043300221A6003
:100ED0005A609A60DA601A615A619A6107F6A8034B
:100EE000A3F5086300221A60043300221A605A60D6
:100EF0009A60DA601A615A619A61D7F87838C7F84F
:100F0000743807F10803D7F87418184603F0DAFFAD
:100F100007F108031846FFF75BF903460133D7F8DA
:100F200074281344C7F87438D7F87428D7F8783879
:100F3000D21AB7F87C389A4207DA07F12803D7F8B3
:100F40007418184603F0BEFF02E0012387F8A738A3
:100F500097F8A738002B2ED107F108031B78002B38
:100F60000AD107F108031B4A92E803001860043312
:100F7000198002330A0C1A7007F128031B78002B22
:100F800008D107F12803144A07CA03C31A800233A1
:100F9000120C1A7007F1280207F1080107F6A803DE
:100FA000A3F6A4031868FFF7AEFD0346002B02D09A
:100FB000012387F8A73897F8A72897F87F1807F62E
:100FC000A803A3F6A4031868FFF7FCFB10E000BF1A
:100FD000B0570008C8570008D057000897F87F1886
:100FE00007F6A803A3F6A40301221868FFF7EAFB9B
:100FF00007F6A803A3F6A4031B68187F07F244436F
:1010000000220021FFF780FB07F6A803A3F6A40344
:101010001B68586807F6A803A3F6A4031B681B897E
:101020000122194601F0D0FC07F6A803A3F6A40399
:101030001B681B6A1846FFF7DDFA07F6A803A3F63C
:10104000A4031B68186807F244414FF47A7308221E
:1010500002F0CDFD07F6A803A3F6A4031B681B6AE4
:101060001846FFF7C7FA07F6A803A3F6A4031B6800
:10107000586807F6A803A3F6A4031B681B8900227F
:10108000194601F0A1FC07F6A803A3F6A4031B6808
:101090005B6907F24C4107F6A802A2F6A4004FF4E0
:1010A00081620068FFF7E2FB0346002B40F04183BA
:1010B00007F6A803A3F25C43DB7887F8733807F6DA
:1010C000A803A3F25C435B781AB207F6A803A3F265
:1010D0005C439B781B021BB203F4FE431BB2134319
:1010E0001BB2A7F8703807F6A803A3F6A4031B6881
:1010F0001B7F97F873289A4240F01B83B7F870382B
:10110000002B40F016830023C7F8A0380023C7F84F
:101110009C380023C7F8983801F00AF80346002BE2
:1011200009D007F6A803A3F6A403D5491868FFF76A
:1011300099FC00BFFDE707F6A803A3F6A4031B680C
:101140009B6907F24C4107F6A802A2F6A4004FF4EF
:1011500081620068FFF78AFB0346002B40F0DF82C4
:1011600007F6A803A3F25C43DB7887F8733807F629
:10117000A803A3F25C435B781AB207F6A803A3F2B4
:101180005C439B781B021BB203F4FE431BB2134368
:101190001BB2A7F8703807F24C430433C7F86C3819
:1011A000002387F8973897F87338012B40F0E180D7
:1011B000B7F87038082B0AD097F8731807F6A80309
:1011C000A3F6A40301221868FFF7FCFAB0E2D7F8EF
:1011D0006C381B781A46D7F86C3801331B781B0221
:1011E0001A43D7F86C3802331B781B041A43D7F81C
:1011F0006C3803331B781B061343C7F89038D7F8B5
:101200006C3804331B781A46D7F86C3805331B78D2
:101210001B021A43D7F86C3806331B781B041A4399
:10122000D7F86C3807331B781B061343C7F85438BC
:10123000D7F89038B3F1006F05D2D7F8903803F1A2
:101240000063C7F89038D7F89038C7F8A038D7F8B7
:101250005438C7F89C38D7F85438C7F89838D7F8B6
:101260005438002B79D007F6A803A3F274431A462A
:101270000023136053609360D36007F6A803A3F2C2
:10128000744300221A6007F6A803A3F274430122F4
:101290005A60D7F8903803F17843DA0A07F6A803C2
:1012A000A3F274439A60D7F8543803F2FF73DA0A52
:1012B00007F6A803A3F27443DA6007F6A803A3F2C3
:1012C00074439A6807F6A803A3F27443DB681344D7
:1012D000DA0207F6A803A3F6A4031B681B699A4267
:1012E0000BD907F6A803A3F6A40366491868FFF70D
:1012F000B9FB012387F897382FE007F6A803A3F579
:101300008F6300221A6007F5866207F234431146A4
:10131000184600F0F1FF0346002B0BD007F6A80398
:10132000A3F6A40358491868FFF79CFB012387F82C
:10133000973812E007F6A803A3F58F631B68B3F193
:10134000FF3F0AD007F6A803A3F6A4034F49186885
:10135000FFF788FB012387F8973897F8972897F8C5
:10136000731807F6A803A3F6A4031868FFF72AFA70
:10137000E1E697F87338032B40F08C80B7F87038AB
:10138000D7F89C289A420AD297F8731807F6A80350
:10139000A3F6A40301221868FFF714FAC8E100239A
:1013A00087F88F380023C7F888383EE007F5856353
:1013B00019464FF000024FF00003C1E90023B7F8CF
:1013C0007028D7F88838D31A082B28BF0823C7F805
:1013D0005838D7F86C28D7F88838D11807F58563BE
:1013E000D7F85828184603F075FDD7F8A028D7F885
:1013F0008838D11807F58563D3E90023002000F071
:101400002BFE0346002B0BD007F6A803A3F6A4037C
:101410001F491868FFF726FB012387F88F380AE079
:10142000D7F888380833C7F88838B7F87038D7F84D
:1014300088289A42BAD397F88F38002B0DD1B7F885
:101440007038D7F8A0281344C7F8A038B7F8703818
:10145000D7F89C28D31AC7F89C3897F88F38002BF8
:1014600014BF01230023DBB21A4697F8731807F65E
:10147000A803A3F6A4031868FFF7A4F95BE600BF6E
:10148000DC570008F4570008085800081C580008EA
:101490003058000897F87338052B40F09480B7F85F
:1014A0007038402B03D8B7F87038032B03D80123CA
:1014B00087F897387BE007F6A803A3F50A630022B4
:1014C0001A60043300221A605A609A60DA601A6166
:1014D0005A619A6107F6A803A3F5086300221A600F
:1014E000043300221A605A609A60DA601A615A6105
:1014F0009A61D7F86C38C7F85C3807F10803D7F859
:101500005C18184603F0DEFC07F108031846FEF7E6
:101510005FFE03460133D7F85C281344C7F85C38F4
:10152000D7F85C28D7F86C38D21AB7F870389A42D6
:1015300007DA07F12803D7F85C18184603F0C2FC55
:1015400002E0012387F8973897F89738002B2ED1BF
:1015500007F108031B78002B0AD107F108037B4A27
:1015600092E8030018600433198002330A0C1A70E1
:1015700007F128031B78002B08D107F12803744AD0
:1015800007CA03C31A800233120C1A7007F128022B
:1015900007F1080107F6A803A3F6A4031868FFF7EC
:1015A000B2FA0346002B02D0012387F8973897F848
:1015B000972897F8731807F6A803A3F6A4031868EA
:1015C000FFF700F9B7E507F6A803A3F6A4031B6825
:1015D0001B7F97F873289A4240F09680B7F87038CE
:1015E000002B40F09180D7F89838042B70D94FF039
:1015F000FF33C7F884380023C7F86838D7F898381D
:10160000043BC7F8643807F6A803A3F6A4031B68D5
:10161000DB68C7F8A0380023C7F8803829E0D7F87E
:101620006428D7F88038D31AB3F5806F28BF4FF4F9
:101630008063C7F86038D7F8A028D7F880381344FB
:10164000194607F12803D7F86028184603F042FC32
:1016500007F12803D7F860281946D7F88408FFF760
:10166000D7F9C7F88408D7F8803803F58063C7F83E
:101670008038D7F88028D7F864389A42CFD3D7F883
:101680008438DB43C7F88438D7F8A028D7F8643803
:1016900013441B68C7F86838D7F88428D7F8683827
:1016A0009A4215D007F6A803A3F6A403294918689F
:1016B000FFF7D8F997F8731807F6A803A3F6A40361
:1016C00001221868FFF77EF800F054FD00BFFDE727
:1016D00097F8731807F6A803A3F6A4030022186866
:1016E000FFF770F807F6A803A3F6A4031A491868D1
:1016F000FFF7B8F900F03EFD07F6A803A3F6A40330
:101700001868FFF7C3FA13E097F8731807F6A803F1
:10171000A3F6A40301221868FFF754F80BE500F0C4
:1017200029FD07F6A803A3F6A4031868FFF7AEFA8D
:1017300001E507F6A803A3F6A4031868FFF7A6FAC5
:1017400000BF07F6A807BD4680BD00BFC857000808
:10175000D05700084058000854580008B0B58CB065
:1017600000AF00F042FA00F021F800F093F800F02A
:1017700061F80D4B3C1D1D460FCD0FC40FCD0FC49E
:1017800095E8070084E807003B1D1846FFF7D0FAEC
:101790000346002B01D000F0BBF83B1D1846FFF7B5
:1017A000EFFA00BFFDE700BF6858000880B596B0AB
:1017B00000AF07F1140344220021184603F04EFB4A
:1017C0003B4600221A605A609A60DA601A614FF450
:1017D000007001F01FF90346002B01D000F098F8CB
:1017E00001237B614FF4A023BB6100233B6407F11D
:1017F0001403184601F064F90346002B01D000F0F1
:1018000087F80F233B6002237B600023BB6000232B
:10181000FB6000233B613B460021184601F0B2FD0E
:101820000346002B01D000F073F800BF5837BD46C7
:1018300080BD000080B500AF144B154A1A60134BF1
:101840004FF4E1325A60114B00229A600F4B002294
:10185000DA600E4B00221A610C4B0C225A610B4BC2
:1018600000229A61094B0022DA61084B00221A62B9
:10187000064B00225A62054802F02EF90346002B5F
:1018800001D000F045F800BF80BD00BF98040020E3
:101890000038014080B588B000AF07F10C0300228A
:1018A0001A605A609A60DA601A61174BDB6C164A4C
:1018B00043F00103D364144BDB6C03F00103BB6002
:1018C000BB68114BDB6C104A43F00203D3640E4B30
:1018D000DB6C03F002037B607B68002220210B4855
:1018E00001F072F82023FB6001233B6100237B6140
:1018F0000023BB6107F10C031946044800F020FEE9
:1019000000BF2037BD4680BD0010024000040048E3
:1019100080B500AF01222021094801F055F84FF4AD
:101920007A7314220749084802F061F90022202145
:10193000034801F049F872B600BF00BFFDE700BFE1
:1019400000040048945800089804002080B483B034
:1019500000AF0F4B1B6E0E4A43F0010313660C4B96
:101960001B6E03F001037B607B68094B9B6D084A8B
:1019700043F080539365064B9B6D03F080533B60AF
:101980003B6800BF0C37BD465DF8047B704700BF65
:101990000010024080B596B000AF786007F14403B4
:1019A00000221A605A609A60DA601A6107F1100327
:1019B00034220021184603F051FA7B681B68224A42
:1019C00093423DD101233B6100237B6107F110036A
:1019D000184601F0FBFE0346002B01D0FFF798FFED
:1019E0001A4B1B6E194A43F480431366174B1B6E48
:1019F00003F48043FB60FB68144BDB6C134A43F039
:101A00000203D364114BDB6C03F00203BB60BB68C1
:101A1000C0237B640223BB640023FB6403233B6578
:101A200007237B6507F144031946094800F088FD48
:101A300000220021252000F04CFA252000F065FA54
:101A400000BF5837BD4680BD00380140001002403D
:101A50000004004880B582B000AF78607B681B68E6
:101A6000094A93420CD1094B1B6E084A23F4804368
:101A70001366C021064800F0D5FE252000F053FA79
:101A800000BF0837BD4680BD00380140001002404D
:101A90000004004880B400AF00BFFDE780B400AF91
:101AA00000BFFDE780B400AF00BFFDE780B400AF2A
:101AB00000BFFDE780B400AF00BFFDE780B400AF1A
:101AC00000BFBD465DF8047B704780B400AF00BF27
:101AD000BD465DF8047B704780B400AF00BFBD46D3
:101AE0005DF8047B704780B500AF00F0D3F800BF0D
:101AF00080BD000080B500AF024802F0CBF900BF06
:101B000080BD00BF9804002080B586B000AF78602B
:101B1000144A154BD31A7B617B693B61134B1B68DD
:101B2000002B02D1114B124A1A60104B1A687B68C5
:101B300013443A699A4207D203F098F903460C22FB
:101B40001A604FF0FF3309E0084B1B68FB60074B3E
:101B50001A687B681344054A1360FB6818461837F7
:101B6000BD4680BD00A0002000040000200500202C
:101B70007006002080B400AF064BD3F88830054AC9
:101B800043F47003C2F8883000BFBD465DF8047BA3
:101B9000704700BF00ED00E0DFF834D0FFF7EAFF48
:101BA0000C480D490D4A002302E0D458C4500433B8
:101BB000C4188C42F9D30A4A0A4C002301E013608E
:101BC0000432A242FBD303F057F9FFF7C7FDFEE74B
:101BD00000A00020000000207C00002038590008F0
:101BE0007C00002070060020FEE780B582B000AFC8
:101BF0000023FB71032000F061F90F2000F00EF8C4
:101C00000346002B02D00123FB7101E0FFF79EFE8B
:101C1000FB7918460837BD4680BD000080B584B00A
:101C200000AF78600023FB73174B1B78002B23D089
:101C3000164B1A68144B1B7819464FF47A73B3FB92
:101C4000F1F3B2FBF3F3184600F07BF90346002BE7
:101C50000FD17B680F2B09D8002279684FF0FF3035
:101C600000F037F90A4A7B68136007E00123FB7331
:101C700004E00123FB7301E00123FB73FB7B1846A7
:101C80001037BD4680BD00BF0800002000000020C6
:101C90000400002080B400AF064B1B781A46064BA8
:101CA0001B681344044A136000BFBD465DF8047B03
:101CB000704700BF080000202405002080B400AF5A
:101CC000034B1B681846BD465DF8047B704700BF98
:101CD0002405002080B485B000AF78607B6803F0F5
:101CE0000703FB600C4BDB68BB60BA684FF6FF0371
:101CF0001340BB60FB681A02BB68134343F0BF6329
:101D000043F40033BB60044ABB68D36000BF1437A0
:101D1000BD465DF8047B704700ED00E080B400AF85
:101D2000044BDB681B0A03F007031846BD465DF849
:101D3000047B704700ED00E080B483B000AF034641
:101D4000FB7197F90730002B0BDBFB7903F01F02C7
:101D5000074997F907305B09012000FA02F241F8C0
:101D6000232000BF0C37BD465DF8047B704700BFE1
:101D700000E100E080B483B000AF0346FB7197F947
:101D80000730002B12DBFB7903F01F020A4997F999
:101D900007305B09012000FA02F2203341F82320CA
:101DA000BFF34F8F00BFBFF36F8F00BF00BF0C3773
:101DB000BD465DF8047B704700E100E080B483B06D
:101DC00000AF03463960FB7197F90730002B0ADB3F
:101DD0003B68DAB20C4997F907301201D2B20B44D2
:101DE00083F800230AE03B68DAB20849FB7903F084
:101DF0000F03043B1201D2B20B441A7600BF0C371A
:101E0000BD465DF8047B704700E100E000ED00E0B6
:101E100080B489B000AFF860B9607A60FB6803F005
:101E20000703FB61FB69C3F10703042B28BF0423ED
:101E3000BB61FB690433062B02D9FB69033B00E05D
:101E400000237B614FF0FF32BB6902FA03F3DA43F0
:101E5000BB681A407B699A404FF0FF317B6901FAF9
:101E600003F3D9437B680B40134318462437BD4620
:101E70005DF8047B7047000080B582B000AF7860E9
:101E80007B68013BB3F1807F01D301230FE00A4A55
:101E90007B68013B53600F214FF0FF30FFF78EFF4F
:101EA000054B00229A60044B07221A600023184653
:101EB0000837BD4680BD00BF10E000E080B582B0AD
:101EC00000AF78607868FFF705FF00BF0837BD46B0
:101ED00080BD80B586B000AF0346B9607A60FB7301
:101EE00000237B61FFF71AFF78617A68B968786927
:101EF000FFF78EFF024697F90F3011461846FFF79D
:101F00005DFF00BF1837BD4680BD80B582B000AF11
:101F10000346FB7197F907301846FFF70DFF00BF26
:101F20000837BD4680BD80B582B000AF0346FB7167
:101F300097F907301846FFF71DFF00BF0837BD4669
:101F400080BD80B582B000AF78607868FFF794FFFD
:101F5000034618460837BD4680BD80B485B000AF43
:101F600078600023FB737B6893F82530DBB2022B8B
:101F700008D07B680422DA637B68002283F824207F
:101F8000012322E07B681B681A687B681B6822F0CB
:101F90000E021A607B681B681A687B681B6822F057
:101FA00001021A607B685B6C03F01C027B681B6C8F
:101FB000012101FA02F25A607B68012283F8252090
:101FC0007B68002283F82420FB7B18461437BD462B
:101FD0005DF8047B704780B584B000AF7860002363
:101FE000FB737B6893F82530DBB2022B05D07B684E
:101FF0000422DA630123FB7329E07B681B681A68FB
:102000007B681B6822F00E021A607B681B681A68E6
:102010007B681B6822F001021A607B685B6C03F02E
:102020001C027B681B6C012101FA02F25A607B687A
:10203000012283F825207B68002283F824207B6816
:102040009B6B002B03D07B689B6B78689847FB7B6E
:1020500018461037BD4680BD80B586B000AFF86029
:10206000B960C7E9002300233B612F4B1B78012B8C
:1020700001D1022353E02C4B01221A704CF2503054
:1020800000F088F80346FB75FB7D002B43D1264BFF
:1020900000225A60254B1B6803F48063002B09D093
:1020A000224B1B68214A23F4806313601E4B0222DB
:1020B0001A7702E01C4B00221A77FB68002B07D12D
:1020C000D7E90023B86800F0BBF801233B6110E0BA
:1020D000FB68012B02D0FB68022B0AD13B68194632
:1020E000B86800F0D3F8FB68022B02D14FF48023CC
:1020F0003B614CF2503000F04DF80346FB753B69F4
:10210000002B06D0094B5A693B69DB430749134052
:102110004B6100F0CBF9044B00221A70FB7D18468E
:102120001837BD4680BD00BF0C00002000200240D3
:1021300080B483B000AF0023FB710B4B5B69002BB5
:102140000BDA094B094A9A60074B094A9A60064B19
:102150005B69002B01DA0123FB71FB7918460C3710
:10216000BD465DF8047B70470020024023016745AF
:10217000AB89EFCD80B400AF054B5B69044A43F0F7
:102180000043536100231846BD465DF8047B704749
:102190000020024080B584B000AF7860FFF78EFD6C
:1021A000F8600DE07B68B3F1FF3F09D0FFF786FDD3
:1021B0000246FB68D31A7A689A4201D8032335E0B5
:1021C0001C4B1B6903F48033002BEBD1194B1A69AC
:1021D000194B1340BB60BB68002B1DD0174B5A68CE
:1021E000BB681343154A5360BB68B3F1804F07D3F4
:1021F000104B9A69BB6803F040430E4913438B614F
:10220000BB6823F04043002B04D00A4ABB6823F08C
:1022100040431361012309E0064B1B6903F00103EE
:10222000002B02D0034B01221A61002318461037FD
:10223000BD4680BD00200240FAC302000C00002011
:1022400080B485B000AFF860C7E900230E4B5B692E
:102250000D4A43F001035361FB683A681A60BFF30B
:102260006F8F00BFD7E900014FF000024FF000036D
:102270000A000023F968043113460B6000BF1437CD
:10228000BD465DF8047B70470020024080B489B0F1
:1022900000AF786039604023FB777B68BB613B68A7
:1022A0007B61144B5B69134A43F480235361EFF362
:1022B0001083FB60FB683B6172B600BF7B691A68E4
:1022C000BB691A60BB690433BB617B6904337B6102
:1022D000FB7F013BFB77FB7F002BEFD13B69BB60B2
:1022E000BB6883F3108800BF00BF2437BD465DF88C
:1022F000047B70470020024080B584B000AF786056
:102300003960474B1B78012B01D1022383E0444BFA
:1023100001221A704CF25030FFF73CFF0346FB736A
:10232000FB7B002B73D13E4B00225A603D4B1B6858
:1023300003F40073002B13D03A4B1B6803F4806343
:10234000002B09D0374B1B68364A23F48063136097
:10235000334B03221A7716E0314B01221A7712E031
:10236000304B1B6803F48063002B09D02D4B1B6896
:102370002C4A23F480631360294B02221A7702E06F
:10238000274B00221A777B681B68012B11D17B68D1
:102390005B68184600F048F84CF25030FFF7FAFE40
:1023A0000346FB731F4B5B691E4A23F00403536112
:1023B0002BE03B684FF0FF321A607B689B68BB6084
:1023C0001BE07B685B681946B86800F04BF84CF27C
:1023D0005030FFF7DFFE0346FB73124B5B69114A77
:1023E00023F4FD735361FB7B002B03D03B68BA6879
:1023F0001A600AE0BB680133BB607B689A687B683F
:10240000DB681344BA689A42DBD300F04FF8044B00
:1024100000221A70FB7B18461037BD4680BD00BFF6
:102420000C0000200020024080B483B000AF786030
:102430007B6803F00103002B05D0094B5B69084A58
:1024400043F004035361064B5B69054A43F4803350
:10245000536100BF0C37BD465DF8047B704700BF79
:102460000020024080B483B000AF786039600E4B2A
:102470005B6923F4FC727B68DB0003F4FF630A49A9
:1024800013434B61084B5B69074A43F002035361F6
:10249000054B5B69044A43F48033536100BF0C373A
:1024A000BD465DF8047B70470020024080B483B0D5
:1024B00000AF214B1B7FFB71FB79012B02D0FB7915
:1024C000032B17D11D4B1B681C4A23F400731360A8
:1024D0001A4B1B68194A43F400631360174B1B68BF
:1024E000164A23F400631360144B1B68134A43F429
:1024F00000731360FB79022B02D0FB79032B11D1FF
:102500000E4B1B680D4A43F4805313600B4B1B6842
:102510000A4A23F480531360084B1B68074A43F4AC
:1025200080631360044B00221A7700BF0C37BD464E
:102530005DF8047B704700BF0C00002000200240C3
:1025400080B487B000AF7860396000237B614EE1D2
:102550003B681A6801217B6901FA03F31340FB60B1
:10256000FB68002B00F040813B685B6803F00303CD
:10257000012B05D03B685B6803F00303022B30D1CD
:102580007B689B683B617B695B00032202FA03F373
:10259000DB433A6913403B613B68DA687B695B0067
:1025A00002FA03F33A6913433B617B683A699A6024
:1025B0007B685B683B6101227B6902FA03F3DB43C2
:1025C0003A6913403B613B685B681B0903F00102F9
:1025D0007B6902FA03F33A6913433B617B683A690A
:1025E0005A603B685B6803F00303032B17D07B68DA
:1025F000DB683B617B695B00032202FA03F3DB4388
:102600003A6913403B613B689A687B695B0002FA58
:1026100003F33A6913433B617B683A69DA603B68CC
:102620005B6803F00303022B23D17B69DA087B6824
:10263000083253F822303B617B6903F007039B00AB
:102640000F2202FA03F3DB433A6913403B613B6814
:102650001A697B6903F007039B0002FA03F33A69E6
:1026600013433B617B69DA087B680832396943F8B8
:1026700022107B681B683B617B695B00032202FAC6
:1026800003F3DB433A6913403B613B685B6803F04B
:1026900003027B695B0002FA03F33A6913433B616F
:1026A0007B683A691A603B685B6803F44033002B2F
:1026B00000F09A80554B1B6E544A43F00103136699
:1026C000524B1B6E03F00103BB60BB68504A7B6931
:1026D0009B08023352F823303B617B6903F003030C
:1026E0009B000F2202FA03F3DB433A6913403B617C
:1026F0007B68B3F1904F13D07B68464A93420DD06C
:102700007B68454A934207D07B68444A934201D193
:10271000032306E0072304E0022302E0012300E094
:1027200000237A6902F00302920093403A6913434E
:102730003B6137497B699B0802333A6941F82320A2
:10274000374B9B683B61FB68DB433A6913403B6155
:102750003B685B6803F48013002B03D03A69FB6885
:1027600013433B612E4A3B6993602D4BDB683B6111
:10277000FB68DB433A6913403B613B685B6803F4E9
:102780000013002B03D03A69FB6813433B61244AD2
:102790003B69D360224B5B683B61FB68DB433A6972
:1027A00013403B613B685B6803F40033002B03D0AC
:1027B0003A69FB6813433B61194A3B695360184B04
:1027C0001B683B61FB68DB433A6913403B613B6834
:1027D0005B6803F48033002B03D03A69FB68134332
:1027E0003B610F4A3B6913607B6901337B613B6846
:1027F0001A687B6922FA03F3002B7FF4A9AE00BFAD
:1028000000BF1C37BD465DF8047B704700100240D6
:10281000000001400004004800080048000C004887
:102820000004014080B487B000AF786039600023B5
:102830007B61B1E001227B6902FA03F33A6813403D
:102840003B613B69002B00F0A4805A4A7B699B08DE
:10285000023352F82330FB607B6903F003039B00D3
:102860000F2202FA03F3FA681340FB607B68B3F1AE
:10287000904F13D07B68504A93420DD07B684F4AEB
:10288000934207D07B684E4A934201D1032306E06E
:10289000072304E0022302E0012300E000237A6919
:1028A00002F0030292009340FA689A4232D1454BFB
:1028B0001A683B69DB43434913400B60414B5A683C
:1028C0003B69DB433F4913404B603E4BDA683B6951
:1028D000DB433C491340CB603A4B9A683B69DB438E
:1028E000384913408B607B6903F003039B000F2280
:1028F00002FA03F3FB602F4A7B699B08023352F80C
:102900002310FB68DA432B487B699B080A4002339B
:1029100040F823207B681A687B695B00032101FA79
:1029200003F31A437B681A607B69DA087B68083214
:1029300053F822107B6903F007039B000F2202FA71
:1029400003F3DB437A69D20819407B68083243F805
:1029500022107B689A687B695B00032101FA03F30C
:10296000DB431A407B689A607B685A6801217B6967
:1029700001FA03F3DB431A407B685A607B68DA682C
:102980007B695B00032101FA03F3DB431A407B6898
:10299000DA607B6901337B613A687B6922FA03F371
:1029A000002B7FF447AF00BF00BF1C37BD465DF86A
:1029B000047B704700000140000400480008004804
:1029C000000C00480004014080B483B000AF786080
:1029D0000B467B8013467B707B78002B03D07A8874
:1029E0007B689A6102E07A887B689A6200BF0C3744
:1029F000BD465DF8047B704780B400AF044B1B6894
:102A000003F4C0631846BD465DF8047B704700BF01
:102A10000070004080B485B000AF78607B68B3F58B
:102A2000007F30D1234B1B6803F4C063B3F5007FF4
:102A300038D0204B1B6823F4C0631E4A43F4007354
:102A400013601D4B1B68322202FB03F31B4AA2FBDF
:102A500003239B0C0133FB6002E0FB68013BFB603E
:102A6000144B5B6903F48063B3F5806F02D1FB689C
:102A7000002BF2D10F4B5B6903F48063B3F5806FD9
:102A800010D103230FE00B4B1B6803F4C063B3F5B5
:102A9000806F07D0074B1B6823F4C063054A43F4DB
:102AA00080631360002318461437BD465DF8047B2D
:102AB000704700BF007000400000002083DE1B4311
:102AC00080B58AB000AF78607B68002B02D101230B
:102AD00000F04FBC974B9B6803F00C033B62954B97
:102AE000DB6803F00303FB617B681B6803F01003E2
:102AF000002B00F0E6803B6A002B07D03B6A0C2BD2
:102B000040F08D80FB69012B40F08980894B1B6868
:102B100003F00203002B06D07B68DB69002B02D197
:102B2000012300F026BC7B685A6A824B1B6803F0C5
:102B30000803002B04D07F4B1B6803F0F00305E073
:102B40007C4BD3F894301B0903F0F003934224D25A
:102B50007B685B6A184600F0D9FD0346002B02D063
:102B6000012300F006BC734B1B68724A43F0080354
:102B70001360704B1B6823F0F0027B685B6A6D4941
:102B800013430B606B4B5B6823F47F427B681B6ACB
:102B90001B02684913434B6025E0664B1B68654A7E
:102BA00043F008031360634B1B6823F0F0027B685B
:102BB0005B6A604913430B605E4B5B6823F47F42A2
:102BC0007B681B6A1B025B4913434B603B6A002B0B
:102BD00009D17B685B6A184600F098FD0346002B1C
:102BE00001D00123C5E300F0CDFC0246514B9B68A8
:102BF0001B0903F00F035049CB5C03F01F0322FABB
:102C000003F34E4A13604E4B1B681846FFF706F855
:102C10000346FB75FB7D002B52D0FB7DA9E37B684F
:102C2000DB69002B32D0434B1B68424A43F001035F
:102C30001360FFF743F8B86108E0FFF73FF802467A
:102C4000BB69D31A022B01D9032392E3394B1B68CA
:102C500003F00203002BF0D0364B1B68354A43F0DB
:102C600008031360334B1B6823F0F0027B685B6A38
:102C7000304913430B602F4B5B6823F47F427B6822
:102C80001B6A1B022B4913434B601AE0294B1B683C
:102C9000284A23F001031360FFF710F8B86108E039
:102CA000FFF70CF80246BB69D31A022B01D90323A4
:102CB0005FE3204B1B6803F00203002BF0D100E020
:102CC00000BF7B681B6803F00103002B73D03B6AD5
:102CD000082B05D03B6A0C2B0ED1FB69032B0BD1C3
:102CE000144B1B6803F40033002B63D07B685B68D4
:102CF000002B5FD101233CE37B685B68B3F5803F29
:102D000006D10C4B1B680B4A43F48033136025E05B
:102D10007B685B68B3F5A02F14D1064B1B68054A8E
:102D200043F480231360034B1B68024A43F480334F
:102D3000136013E000100240AC58000800000020AF
:102D4000040000208F4B1B688E4A23F480331360ED
:102D50008C4B1B688B4A23F4802313607B685B6871
:102D6000002B13D0FEF7AAFFB86108E0FEF7A6FF1C
:102D70000246BB69D31A642B01D90323F9E2814BC4
:102D80001B6803F40033002BF0D014E0FEF796FF2D
:102D9000B86108E0FEF792FF0246BB69D31A642BC4
:102DA00001D90323E5E2774B1B6803F40033002BC2
:102DB000F0D100E000BF7B681B6803F00203002B2A
:102DC00060D03B6A042B05D03B6A0C2B19D1FB6900
:102DD000022B16D16B4B1B6803F48063002B05D0CC
:102DE0007B68DB68002B01D10123C2E2654B5B6885
:102DF00023F0FE427B681B691B06624913434B604C
:102E000040E07B68DB68002B23D05E4B1B685D4A8B
:102E100043F480731360FEF751FFB86108E0FEF7DA
:102E20004DFF0246BB69D31A022B01D90323A0E24E
:102E3000544B1B6803F48063002BF0D0514B5B684C
:102E400023F0FE427B681B691B064E4913434B600F
:102E500018E04C4B1B684B4A23F480731360FEF759
:102E60002DFFB86108E0FEF729FF0246BB69D31ABF
:102E7000022B01D903237CE2424B1B6803F48063DD
:102E8000002BF0D17B681B6803F00803002B00F0D7
:102E900082807B685B69002B5FD03A4BD3F894301B
:102EA0003B617B689A693B6903F010039A4237D013
:102EB0003B6903F00203002B06D03B6903F00103DA
:102EC000002B01D1012354E23B6903F00103002BE5
:102ED0001BD02C4BD3F894302A4A23F00103C2F8BC
:102EE0009430FEF7EBFEB86108E0FEF7E7FE02461D
:102EF000BB69D31A112B01D903233AE2214BD3F832
:102F0000943003F00203002BEFD11E4BD3F8943022
:102F100023F010027B689B691A491343C1F894306F
:102F2000184BD3F89430174A43F00103C2F8943099
:102F3000FEF7C4FEB86108E0FEF7C0FE0246BB69BA
:102F4000D31A112B01D9032313E20E4BD3F894307B
:102F500003F00203002BEFD01DE00A4BD3F89430AE
:102F6000084A23F00103C2F89430FEF7A7FEB861C7
:102F70000AE0FEF7A3FE0246BB69D31A112B03D960
:102F80000323F6E100100240A94BD3F8943003F07C
:102F90000203002BEDD17B681B6803F00403002BB8
:102FA00000F0BD80002387F82730A14B9B6D03F014
:102FB0008053002B0ED19E4B9B6D9D4A43F0805356
:102FC00093659B4B9B6D03F08053FB60FB68012373
:102FD00087F82730974B1B6803F48073002B18D1B8
:102FE000944B1B68934A43F480731360FEF766FEAC
:102FF000B86108E0FEF762FE0246BB69D31A022BF5
:1030000001D90323B5E18B4B1B6803F48073002BBC
:10301000F0D07B689B6803F00103002B2CD0844B1D
:10302000D3F8903023F080027B689B6803F0800324
:103030007F491343C1F890307B689B6803F0040319
:10304000002B10D07A4BD3F89030794A43F0040328
:10305000C2F89030764BD3F89030754A43F00103B4
:10306000C2F8903018E0724BD3F89030704A43F0B9
:103070000103C2F890300FE06D4BD3F890306C4AEA
:1030800023F00103C2F89030694BD3F89030684ABE
:1030900023F00403C2F890307B689B68002B16D0A5
:1030A000FEF70CFEB8610AE0FEF708FE0246BB69B7
:1030B000D31A41F28832934201D9032359E15C4B80
:1030C000D3F8903003F00203002BEDD01DE0FEF7A3
:1030D000F5FDB8610AE0FEF7F1FD0246BB69D31ABF
:1030E00041F28832934201D9032342E1504BD3F895
:1030F000903003F00203002BEDD14D4BD3F890300C
:103100004B4A23F08003C2F8903097F82730012B08
:1031100005D1474B9B6D464A23F0805393657B68EE
:103120001B6803F02003002B3CD07B689B6A002BBC
:103130001CD03F4BD3F898303D4A43F00103C2F80E
:103140009830FEF7BBFDB86108E0FEF7B7FD024618
:10315000BB69D31A022B01D903230AE1344BD3F8FC
:10316000983003F00203002BEFD01BE0304BD3F874
:1031700098302F4A23F00103C2F89830FEF79EFDE5
:10318000B86108E0FEF79AFD0246BB69D31A022B2C
:1031900001D90323EDE0264BD3F8983003F0020366
:1031A000002BEFD17B68DB6A002B00F0E1807B68AD
:1031B000DB6A022B40F0B5801D4BDB68FB61FB69CD
:1031C00003F003027B681B6B9A4224D1FB6903F076
:1031D00070027B685B6B013B1B019A421BD1FB6950
:1031E00003F4FE427B689B6B1B029A4213D1FB697E
:1031F00003F4C0027B68DB6B5B08013B5B059A4212
:1032000009D1FB6903F0C0627B681B6C5B08013B62
:103210005B069A425FD03B6A0C2B5AD0044B1B686A
:10322000034A23F080731360FEF748FDB8610CE099
:103230000010024000700040FEF740FD0246BB69EE
:10324000D31A022B01D9032393E04C4B1B6803F0E4
:103250000073002BF0D1494BDA68494B13407A6870
:10326000116B7A68526B013A120111437A68926BC2
:10327000120211437A68D26B5208013A5205114387
:103280007A68126C5208013A52060A433B491343CA
:10329000CB603A4B1B68394A43F080731360374B5D
:1032A000DB68364A43F08073D360FEF707FDB861F0
:1032B00008E0FEF703FD0246BB69D31A022B01D9D1
:1032C000032356E02D4B1B6803F00073002BF0D056
:1032D0004EE001234DE0294B1B6803F00073002BE7
:1032E00046D1264B1B68254A43F080731360234B5D
:1032F000DB68224A43F08073D360FEF7DFFCB861DD
:1033000008E0FEF7DBFC0246BB69D31A022B01D9A9
:1033100003232EE0194B1B6803F00073002BF0D041
:1033200026E03B6A0C2B21D0144B1B68134A23F078
:1033300080731360FEF7C2FCB86108E0FEF7BEFCC4
:103340000246BB69D31A022B01D9032311E00B4BB0
:103350001B6803F00073002BF0D1084BDB68074AB1
:1033600023F0887323F00303D36001E0012300E01E
:10337000002318462837BD4680BD00BF001002401C
:103380008C809FF980B584B000AF786039607B682D
:10339000002B01D10123E7E0754B1B6803F0070305
:1033A0003A689A4210D9724B1B6823F007027049A1
:1033B0003B6813430B606E4B1B6803F007033A68CE
:1033C0009A4201D00123CFE07B681B6803F002031F
:1033D000002B10D07B689A68664B9B6803F0F00363
:1033E0009A4208D9634B9B6823F0F0027B689B6884
:1033F000604913438B607B681B6803F00103002B5B
:103400004CD07B685B68032B07D15A4B1B6803F0D9
:103410000073002B21D10123A6E07B685B68022B9F
:1034200007D1544B1B6803F40033002B15D1012343
:103430009AE07B685B68002B07D14E4B1B6803F05A
:103440000203002B09D101238EE04A4B1B6803F4D1
:103450008063002B01D1012386E0464B9B6823F05B
:1034600003027B685B68434913438B60FEF726FCCD
:10347000F8600AE0FEF722FC0246FB68D31A41F22C
:103480008832934201D903236EE03A4B9B6803F0E4
:103490000C027B685B689B009A42EBD17B681B68DF
:1034A00003F00203002B10D07B689A68314B9B68B5
:1034B00003F0F0039A4208D22E4B9B6823F0F002EF
:1034C0007B689B682B4913438B60294B1B6803F077
:1034D00007033A689A4210D2254B1B6823F0070273
:1034E00023493B6813430B60214B1B6803F0070320
:1034F0003A689A4201D0012336E07B681B6803F0EA
:103500000403002B08D01B4B9B6823F4E0627B680C
:10351000DB68184913438B607B681B6803F0080362
:10352000002B09D0134B9B6823F460527B681B6906
:10353000DB00104913438B6000F024F802460D4B6A
:103540009B681B0903F00F030B49CB5C03F01F03BF
:1035500022FA03F3094A1360094B1B681846FEF769
:103560005DFB0346FB72FB7A18461037BD4680BDF3
:103570000020024000100240AC580008000000206B
:103580000400002080B489B000AF0023FB61002359
:10359000BB613F4B9B6803F00C033B613C4BDB681A
:1035A00003F00303FB603B69002B05D03B690C2B48
:1035B00021D1FB68012B1ED1354B1B6803F008039A
:1035C000002B07D1324BD3F894301B0A03F00F03C2
:1035D000FB6105E02E4B1B681B0903F00F03FB6129
:1035E0002C4AFB6952F82330FB613B69002B0ED15A
:1035F000FB69BB610BE03B69042B02D1264BBB612D
:1036000005E03B69082B02D14FF46103BB613B69C4
:103610000C2B35D11E4BDB6803F00303BB60BB688A
:10362000022B03D0BB68032B03D006E01A4B7B614F
:1036300006E04FF461037B6102E0FB697B6100BF40
:10364000134BDB681B0903F0070301337B60104B4E
:10365000DB681B0A03F07F037A6903FB02F27B68D5
:10366000B2FBF3F37B610A4BDB685B0E03F00303F1
:1036700001335B003B607A693B68B2FBF3F3BB61EB
:10368000BB6918462437BD465DF8047B704700BF10
:1036900000100240C45800080024F40080B400AFB9
:1036A000034B1B681846BD465DF8047B704700BF9E
:1036B0000000002080B500AFFFF7F0FF0246064B88
:1036C0009B681B0A03F007030449CB5C03F01F034C
:1036D00022FA03F3184680BD00100240BC580008CF
:1036E00080B500AFFFF7DAFF0246064B9B68DB0AA6
:1036F00003F007030449CB5C03F01F0322FA03F332
:10370000184680BD00100240BC58000880B586B045
:1037100000AF786000233B612A4B9B6D03F0805320
:10372000002B03D0FFF768F9786114E0254B9B6DFF
:10373000244A43F080539365224B9B6D03F08053E2
:10374000FB60FB68FFF758F978611E4B9B6D1D4AC3
:1037500023F0805393657B69B3F5007F0BD17B68C1
:10376000802B19D97B68A02B02D902233B6113E07F
:1037700001233B6110E07B68802B02D903233B616E
:103780000AE07B68802B02D102233B6104E07B6866
:10379000702B01D101233B610B4B1B6823F0070207
:1037A00009493B6913430B60074B1B6803F0070390
:1037B0003A699A4201D0012300E0002318461837E5
:1037C000BD4680BD001002400020024080B586B09A
:1037D00000AF78600023FB740023BB747B681B6818
:1037E00003F40033002B00F09E8000237B74464BD3
:1037F0009B6D03F08053002B01D1012300E00023D7
:10380000002B0DD0404B9B6D3F4A43F08053936596
:103810003D4B9B6D03F08053BB60BB6801237B7401
:103820003A4B1B68394A43F480731360FEF746FA3B
:10383000F86009E0FEF742FA0246FB68D31A022B51
:1038400002D90323FB7405E0304B1B6803F480733B
:10385000002BEFD0FB7C002B5AD12B4BD3F89030B0
:1038600003F440737B617B69002B1ED07B681B6B6C
:103870007A699A4219D0244BD3F8903023F44073DC
:103880007B61214BD3F890301F4A43F48033C2F858
:1038900090301D4BD3F890301B4A23F48033C2F88C
:1038A0009030194A7B69C2F890307B6903F00103BC
:1038B000002B16D0FEF702FAF8600BE0FEF7FEF9D7
:1038C0000246FB68D31A41F28832934202D903239D
:1038D000FB7406E00C4BD3F8903003F00203002B8E
:1038E000ECD0FB7C002B0BD1074BD3F8903023F4AA
:1038F00040727B681B6B04491343C1F8903009E0A8
:10390000FB7CBB7406E000BF00100240007000406A
:10391000FB7CBB747B7C012B05D16E4B9B6D6D4A90
:1039200023F0805393657B681B6803F00103002B31
:103930000AD0684BD3F8883023F003027B685B68B9
:1039400064491343C1F888307B681B6803F00203A5
:10395000002B0AD05F4BD3F8883023F00C027B6831
:103960009B685C491343C1F888307B681B6803F08F
:103970000403002B0AD0574BD3F8883023F03002D1
:103980007B68DB6853491343C1F888307B681B6848
:1039900003F02003002B0AD04E4BD3F8883023F4D9
:1039A00040627B681B694B491343C1F888307B68D0
:1039B0001B6803F40073002B0AD0464BD3F8883001
:1039C00023F440227B681B6A42491343C1F88830C4
:1039D0007B681B6803F48063002B0AD03D4BD3F84F
:1039E000883023F440127B685B6A3A491343C1F87C
:1039F00088307B681B6803F04003002B0AD0354BEE
:103A0000D3F8883023F440527B685B693149134313
:103A1000C1F888307B681B6803F08003002B0AD054
:103A20002C4BD3F8883023F440427B689B692949AA
:103A30001343C1F888307B681B6803F48073002B44
:103A40000AD0244BD3F8883023F440327B68DB69FA
:103A500020491343C1F888307B681B6803F4005386
:103A6000002B15D01B4BD3F8883023F040627B68C5
:103A70009B6A18491343C1F888307B689B6AB3F18D
:103A8000006F05D1134BDB68124A43F48013D360F7
:103A90007B681B6803F48023002B15D00D4BD3F8F3
:103AA000883023F040627B68DB6A0A491343C1F81F
:103AB00088307B68DB6AB3F1006F05D1054BDB68AA
:103AC000044A43F48013D360BB7C18461837BD46C4
:103AD00080BD00BF0010024080B582B000AF7860AA
:103AE0007B68002B01D1012340E07B68DB6F002B5A
:103AF00006D17B68002283F878207868FDF74AFFBA
:103B00007B682422DA677B681B681A687B681B68FD
:103B100022F001021A607B685B6A002B02D0786891
:103B200000F01CFF786800F0BFFC0346012B01D1B8
:103B300001231BE07B681B685A687B681B6822F4C2
:103B400090425A607B681B689A687B681B6822F009
:103B50002A029A607B681B681A687B681B6842F0BF
:103B600001021A60786800F09BFF03461846083788
:103B7000BD4680BD80B582B000AF78607B68002B09
:103B800001D101232FE07B682422DA677B681B6860
:103B90001A687B681B6822F001021A607B681B6848
:103BA00000221A607B681B6800225A607B681B68D1
:103BB00000229A607868FDF74DFF7B680022C3F809
:103BC00084207B680022DA677B680022C3F88020AB
:103BD0007B6800221A667B6800225A667B68002296
:103BE00083F87820002318460837BD4680BD80B58D
:103BF0008AB002AFF860B9603B601346FB80FB6897
:103C0000DB6F202B77D1BB68002B02D0FB88002B09
:103C100001D1012370E0FB680022C3F88420FB6817
:103C20002122DA67FEF74AF87861FB68FA88A3F880
:103C30005020FB68FA88A3F85220FB689B68B3F514
:103C4000805F08D1FB681B69002B04D10023FB6156
:103C5000BB68BB6103E0BB68FB610023BB612FE075
:103C60003B6800937B6900228021F86800F0C0FF68
:103C70000346002B04D0FB682022DA6703233BE0D5
:103C8000FB69002B0BD1BB691A88FB681B68C2F368
:103C9000080292B21A85BB690233BB6107E0FB6977
:103CA0001A78FB681B681A85FB690133FB61FB68A6
:103CB000B3F852309BB2013B9AB2FB68A3F8522092
:103CC000FB68B3F852309BB2002BC9D13B6800931C
:103CD0007B6900224021F86800F08AFF0346002B30
:103CE00004D0FB682022DA67032305E0FB6820226A
:103CF000DA67002300E0022318462037BD4680BD66
:103D000080B58AB002AFF860B9603B601346FB80B3
:103D1000FB68D3F88030202B40F0B680BB68002BC6
:103D200002D0FB88002B01D10123AEE0FB6800220A
:103D3000C3F88420FB682222C3F88020FB6800229D
:103D40001A66FDF7BBFF7861FB68FA88A3F8582074
:103D5000FB68FA88A3F85A20FB689B68B3F5805F7C
:103D60000ED1FB681B69002B05D1FB6840F2FF12E6
:103D7000A3F85C202DE0FB68FF22A3F85C2028E07C
:103D8000FB689B68002B0DD1FB681B69002B04D1DD
:103D9000FB68FF22A3F85C201BE0FB687F22A3F8EE
:103DA0005C2016E0FB689B68B3F1805F0DD1FB6877
:103DB0001B69002B04D1FB687F22A3F85C2008E07C
:103DC000FB683F22A3F85C2003E0FB680022A3F815
:103DD0005C20FB68B3F85C307B82FB689B68B3F5C2
:103DE000805F08D1FB681B69002B04D10023FB61B5
:103DF000BB68BB6103E0BB68FB610023BB6137E0CC
:103E00003B6800937B6900222021F86800F0F0FEF7
:103E10000346002B05D0FB682022C3F88020032333
:103E200033E0FB69002B0CD1FB681B689B8C9AB2BA
:103E30007B8A13409AB2BB691A80BB690233BB61AB
:103E40000DE0FB681B689B8C9BB2DAB27B8ADBB20D
:103E50001340DAB2FB691A70FB690133FB61FB683E
:103E6000B3F85A309BB2013B9AB2FB68A3F85A20D0
:103E7000FB68B3F85A309BB2002BC1D1FB682022FB
:103E8000C3F88020002300E0022318462037BD46F7
:103E900080BD000080B5BAB000AF78607B681B6859
:103EA000DB69C7F8E4307B681B681B68C7F8E03043
:103EB0007B681B689B68C7F8DC30D7F8E42040F6C5
:103EC0000F031340C7F8D830D7F8D830002B15D1DE
:103ED000D7F8E43003F02003002B0FD0D7F8E03000
:103EE00003F02003002B09D07B689B6E002B00F0B1
:103EF000AE827B689B6E78689847A8E2D7F8D83086
:103F0000002B00F01781D7F8DC3003F00103002B01
:103F100006D1D7F8E020854B1340002B00F00A8132
:103F2000D7F8E43003F00103002B11D0D7F8E030CC
:103F300003F48073002B0BD07B681B6801221A628C
:103F40007B68D3F8843043F001027B68C3F8842097
:103F5000D7F8E43003F00203002B11D0D7F8DC309F
:103F600003F00103002B0BD07B681B6802221A624E
:103F70007B68D3F8843043F004027B68C3F8842064
:103F8000D7F8E43003F00403002B11D0D7F8DC306D
:103F900003F00103002B0BD07B681B6804221A621C
:103FA0007B68D3F8843043F002027B68C3F8842036
:103FB000D7F8E43003F00803002B17D0D7F8E0302F
:103FC00003F02003002B05D1D7F8DC3003F0010308
:103FD000002B0BD07B681B6808221A627B68D3F821
:103FE000843043F008027B68C3F88420D7F8E430BB
:103FF00003F40063002B12D0D7F8E03003F08063A5
:10400000002B0CD07B681B684FF400621A627B683F
:10401000D3F8843043F020027B68C3F884207B68A7
:10402000D3F88430002B00F01482D7F8E43003F08A
:104030002003002B0DD0D7F8E03003F02003002B35
:1040400007D07B689B6E002B03D07B689B6E7868E3
:1040500098477B68D3F88430C7F8D4307B681B68F6
:104060009B6803F04003402B05D0D7F8D43003F011
:104070002803002B4FD0786800F021FE7B681B6876
:104080009B6803F04003402B41D17B681B680833D9
:10409000C7F89C30D7F89C3053E8003FC7F89830F9
:1040A000D7F8983023F04003C7F8D0307B681B68FE
:1040B0000833D7F8D020C7F8A820C7F8A430D7F81D
:1040C000A410D7F8A82041E80023C7F8A030D7F8FB
:1040D000A030002BD9D17B685B6F002B13D07B689D
:1040E0005B6F134A9A637B685B6F1846FDF773FF3B
:1040F0000346002B17D07B685B6F9B6B7A68526F0F
:10410000104698470FE0786800F0B8F90BE078683F
:1041100000F0B4F907E0786800F0B0F97B6800229D
:10412000C3F8842095E100BF93E100BF20010004A3
:10413000874D00087B681B6E012B40F04E81D7F83D
:10414000E43003F01003002B00F04781D7F8E03093
:1041500003F01003002B00F040817B681B681022E5
:104160001A627B681B689B6803F04003402B40F099
:10417000B8807B685B6F1B685B68A7F8BE30B7F8D8
:10418000BE30002B00F067817B68B3F85830B7F879
:10419000BE209A4280F05F817B68B7F8BE20A3F80A
:1041A0005A207B685B6F1B681B6803F02003002BA1
:1041B00040F086807B681B68C7F88830D7F8883065
:1041C00053E8003FC7F88430D7F8843023F4807375
:1041D000C7F8B8307B681B681A46D7F8B830C7F8FC
:1041E0009430C7F89020D7F89010D7F8942041E881
:1041F0000023C7F88C30D7F88C30002BDAD17B68DD
:104200001B6808337B677B6F53E8003F3B673B6F5E
:1042100023F00103C7F8B4307B681B680833D7F874
:10422000B420C7F88020FB67F96FD7F8802041E8F9
:104230000023BB67BB6F002BE1D17B681B68083391
:104240003B663B6E53E8003FFB65FB6D23F040038C
:10425000C7F8B0307B681B680833D7F8B020FA661F
:10426000BB66B96EFA6E41E800237B667B6E002B5D
:10427000E3D17B682022C3F880207B6800221A6685
:104280007B681B68FB64FB6C53E8003FBB64BB6C42
:1042900023F01003C7F8AC307B681B681A46D7F8C8
:1042A000AC30BB657A65796DBA6D41E800233B653A
:1042B0003B6D002BE4D17B685B6F1846FDF74DFE2C
:1042C0007B6802225A667B68B3F858207B68B3F893
:1042D0005A309BB2D31A9BB21946786800F0D8F8CE
:1042E000B9E07B68B3F858207B68B3F85A309BB2CA
:1042F000D31AA7F8CE307B68B3F85A309BB2002BA4
:1043000000F0AB80B7F8CE30002B00F0A6807B68C1
:104310001B68BB63BB6B53E8003F7B637B6B23F481
:104320009073C7F8C8307B681B681A46D7F8C83046
:104330007B643A64396C7A6C41E80023FB63FB6B65
:10434000002BE4D17B681B6808337B627B6A53E8EF
:10435000003F3B623B6A23F00103C7F8C4307B682F
:104360001B680833D7F8C4203A63FB62F96A3A6BDA
:1043700041E80023BB62BB6A002BE3D17B682022AB
:10438000C3F880207B6800221A667B6800229A6648
:104390007B681B683B613B6953E8003FFB60FB683F
:1043A00023F01003C7F8C0307B681B681A46D7F8A3
:1043B000C030FB61BA61B969FA6941E800237B61E9
:1043C0007B69002BE4D17B6802225A66B7F8CE30B5
:1043D0001946786800F05CF83FE0D7F8E43003F461
:1043E0008013002B0ED0D7F8DC3003F48003002BB1
:1043F00008D07B681B684FF480121A62786800F05E
:1044000002FD2DE0D7F8E43003F08003002B0ED03E
:10441000D7F8E03003F08003002B08D07B68DB6E18
:10442000002B1CD07B68DB6E7868984717E0D7F8C4
:10443000E43003F04003002B12D0D7F8E03003F053
:104440004003002B0CD0786800F0B3FC08E000BFFC
:1044500006E000BF04E000BF02E000BF00E000BFD4
:10446000E837BD4680BD00BF80B483B000AF786040
:1044700000BF0C37BD465DF8047B704780B483B045
:1044800000AF786000BF0C37BD465DF8047B704715
:1044900080B483B000AF78600B467B8000BF0C37E0
:1044A000BD465DF8047B70472DE9B04F8AB000AF80
:1044B000F860002387F82230FB689A68FB681B6964
:1044C0001A43FB685B691A43FB68DB6913437B6231
:1044D000FB681B681A689E4B1340FA681268796A79
:1044E0000B431360FB681B685B6823F44051FB6857
:1044F000DA68FB681B680A435A60FB689B697B6249
:10450000FB681B68934A934204D0FB681B6A7A6A73
:1045100013437B62FB681B689B6823F43061FB6874
:104520001B687A6A0A439A60FB681B688A4A93424E
:1045300026D18A4BD3F8883003F00303032B1BD812
:1045400001A252F823F000BF594500086945000850
:104550006145000871450008012387F82330ABE06E
:10456000022387F82330A7E0042387F82330A3E051
:10457000082387F823309FE0102387F823309BE03F
:10458000FB681B68764A934238D1744BD3F8883065
:1045900003F00C030C2B2DD801A252F823F000BF1E
:1045A000D5450008F5450008F5450008F545000823
:1045B000E5450008F5450008F5450008F545000803
:1045C000DD450008F5450008F5450008F5450008FB
:1045D000ED450008002387F823306DE0022387F8BB
:1045E000233069E0042387F8233065E0082387F847
:1045F000233061E0102387F823305DE0FB681B68FF
:10460000584A934225D1554BD3F8883003F03003F4
:10461000302B16D0302B18D8202B0AD0202B14D8B2
:10462000002B02D0102B08D00FE0002387F8233096
:1046300042E0022387F823303EE0042387F823304A
:104640003AE0082387F8233036E0102387F8233038
:1046500032E0FB681B683F4A93422AD13F4BD3F8B4
:10466000883003F44063B3F5406F1AD0B3F5406F60
:104670001BD8B3F5006F0CD0B3F5006F15D8002B25
:1046800003D0B3F5806F08D00FE0002387F8233004
:1046900012E0022387F823300EE0042387F823304A
:1046A0000AE0082387F8233006E0102387F8233038
:1046B00002E0102387F82330FB681B68254A9342E9
:1046C00040F08A8097F82330082B24D801A252F8B2
:1046D00023F000BFF946000817470008014700080B
:1046E0001747000807470008174700081747000842
:1046F000174700080F470008FEF7DCFFF86110E0DD
:10470000194BFB610DE0FEF73DFFF86109E04FF446
:104710000043FB6105E00023FB61012387F82230A1
:1047200000BFFB69002B00F00981FB685A68134643
:104730005B001344FA699A4205D3FB685B681B036C
:10474000FA699A4212D9012387F82230F6E000BFB5
:10475000F369FFEF00800040003801400010024084
:1047600000440040004800400024F400FB6900229F
:104770001C4615464FF000024FF000032B0243EA9F
:1047800014632202F9684968490800208846814676
:1047900012EB080A43EB090BFB685B6800223B60E5
:1047A0007A60D7E9002350465946FBF769FD024677
:1047B0000B461346BB61BB69B3F5407F08D3BB69A9
:1047C000B3F5801F04D2FB681B68BA69DA60B5E0F4
:1047D000012387F82230B1E0FB68DB69B3F5004FB5
:1047E0005DD197F82330082B27D801A252F823F087
:1047F000154800081D480008254800083B480008E7
:104800002B4800083B4800083B4800083B4800088C
:1048100033480008FEF74EFFF86114E0FEF760FF32
:10482000F86110E04C4BFB610DE0FEF7ABFEF86168
:1048300009E04FF40043FB6105E00023FB61012325
:1048400087F8223000BFFB69002B77D0FB695A0044
:10485000FB685B685B081A44FB685B68B2FBF3F3B8
:10486000BB61BB690F2B16D9BB69B3F5803F12D270
:10487000BB699BB223F00F03FB82BB695B089BB251
:1048800003F007039AB2FB8A1343FB82FB681B68A1
:10489000FA8ADA6052E0012387F822304EE097F876
:1048A0002330082B27D801A252F823F0D148000862
:1048B000D9480008E1480008F7480008E748000820
:1048C000F7480008F7480008F7480008EF480008D4
:1048D000FEF7F0FEF86114E0FEF702FFF86110E069
:1048E0001D4BFB610DE0FEF74DFEF86109E04FF452
:1048F0000043FB6105E00023FB61012387F82230C0
:1049000000BFFB69002B19D0FB685B685A08FB6984
:104910001A44FB685B68B2FBF3F3BB61BB690F2B06
:1049200009D9BB69B3F5803F05D2BB699AB2FB6870
:104930001B68DA6002E0012387F82230FB6800225E
:104940009A66FB680022DA6697F822301846283704
:10495000BD46BDE8B08F00BF0024F40080B483B032
:1049600000AF78607B685B6A03F00803002B0AD015
:104970007B681B685B6823F400417B685A6B7B682B
:104980001B680A435A607B685B6A03F00103002BD3
:104990000AD07B681B685B6823F400317B689A6AE5
:1049A0007B681B680A435A607B685B6A03F00203FA
:1049B000002B0AD07B681B685B6823F480317B681E
:1049C000DA6A7B681B680A435A607B685B6A03F09B
:1049D0000403002B0AD07B681B685B6823F48021EA
:1049E0007B681A6B7B681B680A435A607B685B6A4A
:1049F00003F01003002B0AD07B681B689B6823F42C
:104A000080517B689A6B7B681B680A439A607B685D
:104A10005B6A03F02003002B0AD07B681B689B684D
:104A200023F400517B68DA6B7B681B680A439A6049
:104A30007B685B6A03F04003002B1AD07B681B681D
:104A40005B6823F480117B681A6C7B681B680A43DF
:104A50005A607B681B6CB3F5801F0AD17B681B68AA
:104A60005B6823F4C0017B685A6C7B681B680A434F
:104A70005A607B685B6A03F08003002B0AD07B6876
:104A80001B685B6823F400217B689A6C7B681B6859
:104A90000A435A6000BF0C37BD465DF8047B70477F
:104AA00080B598B002AF78607B680022C3F884209C
:104AB000FDF704F978657B681B681B6803F0080341
:104AC000082B2ED16FF07E4300937B6D00224FF4B4
:104AD0000011786800F08CF80346002B21D07B6829
:104AE0001B68BB63BB6B53E8003F7B637B6B23F0AE
:104AF00080033B657B681B681A463B6D7B643A64A8
:104B0000396C7A6C41E80023FB63FB6B002BE6D128
:104B10007B682022DA677B68002283F878200323F1
:104B200062E07B681B681B6803F00403042B49D117
:104B30006FF07E4300937B6D00224FF48001786814
:104B400000F056F80346002B3CD07B681B687B6264
:104B50007B6A53E8003F3B623B6A23F49073FB643B
:104B60007B681B681A46FB6C3B63FA62F96A3A6B16
:104B700041E80023BB62BB6A002BE6D17B681B685F
:104B800008333B613B6953E8003FFB60FB6823F05F
:104B90000103BB647B681B680833BA6CFA61BB61B4
:104BA000B969FA6941E800237B617B69002BE5D193
:104BB0007B682022C3F880207B68002283F878205D
:104BC000032311E07B682022DA677B682022C3F888
:104BD00080207B6800221A667B6800225A667B6808
:104BE000002283F87820002318465837BD4680BD40
:104BF00080B584B000AFF860B9603B601346FB71CC
:104C000049E0BB69B3F1FF3F45D0FDF757F80246D5
:104C10003B68D31ABA699A4202D3BB69002B01D10F
:104C2000032348E0FB681B681B6803F00403002BA8
:104C300031D0FB681B68DB6903F00803082B10D137
:104C4000FB681B6808221A62F86800F038F8FB68F5
:104C50000822C3F88420FB68002283F8782001230F
:104C600029E0FB681B68DB6903F40063B3F5006FA0
:104C700011D1FB681B684FF400621A62F86800F0FB
:104C80001EF8FB682022C3F88420FB68002283F80A
:104C9000782003230FE0FB681B68DA69BB681340C8
:104CA000BA689A420CBF01230023DBB21A46FB7993
:104CB0009A42A6D0002318461037BD4680BD80B466
:104CC00095B000AF78607B681B687B637B6B53E8B3
:104CD000003F3B633B6B23F49073FB647B681B6872
:104CE0001A46FB6C3B64FA63F96B3A6C41E80023AB
:104CF000BB63BB6B002BE6D17B681B6808333B6250
:104D00003B6A53E8003FFB61FB6923F00103BB648E
:104D10007B681B680833BA6CFA62BB62B96AFA6ACC
:104D200041E800237B627B6A002BE5D17B681B6E28
:104D3000012B18D17B681B68FB60FB6853E8003FC0
:104D4000BB60BB6823F010037B647B681B681A465A
:104D50007B6CBB617A617969BA6941E800233B6188
:104D60003B69002BE6D17B682022C3F880207B685A
:104D700000221A667B6800229A6600BF5437BD463F
:104D80005DF8047B704780B584B000AF78607B68C5
:104D90009B6AFB60FB680022A3F85A20FB68002294
:104DA000A3F85220F868FFF769FB00BF1037BD4633
:104DB00080BD80B588B000AF78607B681B68FB6001
:104DC000FB6853E8003FBB60BB6823F04003FB6116
:104DD0007B681B681A46FB69BB617A617969BA69AD
:104DE00041E800233B613B69002BE6D17B68202230
:104DF000DA677B680022DA667868FFF735FB00BF68
:104E00002037BD4680BD80B483B000AF786000BF5E
:104E10000C37BD465DF8047B704700000EB400B54A
:104E20009CB01DAB029006906FF0004109480791BD
:104E30000491094953F8042B05910068019302A9D4
:104E400000F0AAF9029B00221A701CB05DF804EB76
:104E500003B070472C0000200802FFFF0244034605
:104E6000934200D1704703F8011BF9E7014B186822
:104E7000704700BF2C00002070B50D4D0D4C641B19
:104E8000A4100026A64209D10B4D0C4C00F06EFC7C
:104E9000641BA4100026A64205D170BD55F8043B42
:104EA00098470136EEE755F8043B98470136F2E79C
:104EB00030590008305900083059000834590008AA
:104EC00070477047034611F8012B03F8012B002AA5
:104ED000F9D170470A44914200F1FF3300D1704785
:104EE00010B511F8014B03F8014F9142F9D110BDF3
:104EF00038B50546002941D051F8043C0C1F002B61
:104F0000B8BFE41800F0E0F81D4A136833B96360D5
:104F100014602846BDE8384000F0DCB8A34208D948
:104F2000206821188B4201BF19685B68091821604D
:104F3000EDE71A465B680BB1A342FAD91168501825
:104F4000A0420BD120680144501883421160E0D187
:104F500018685B68536008441060DAE702D90C23D4
:104F60002B60D6E7206821188B4204BF19685B6864
:104F7000636004BF091821605460CAE738BD00BFF0
:104F80006C06002070B50F4E0C463168054611B90D
:104F900000F0A6FB30602146284600F0A1FB431C30
:104FA00003D14FF0FF34204670BDC41C24F003042D
:104FB000A042F8D0211A284600F092FB0130F2D12D
:104FC000EFE700BF680600202DE9F843CD1C25F06F
:104FD000030508350C2D38BF0C25002D064601DBD6
:104FE000A94204D90C2333600020BDE8F883DFF820
:104FF000D48000F069F8D8F800301C4644BB29463C
:105000003046FFF7BFFF431C044658D1D8F8004094
:105010002746002F43D1002C4BD023683946304619
:1050200004EB030900F05CFB814542D121686D1A55
:1050300029463046FFF7A6FF01303AD023682B44BB
:105040002360D8F800305A6862BBC8F800700FE0DF
:105050002268521B20D40B2A17D96119A34225605C
:1050600018BF5960636808BFC8F8001062514B60F0
:10507000304600F02FF804F10B00231D20F007004C
:10508000C21A1CBF1B1AA350AFE76268A3420CBF31
:10509000C8F800205A60EBE723466468AEE73C4658
:1050A0007F68B6E71A465B68A342FBD100235360D2
:1050B000DEE70C233360304600F00CF894E705601F
:1050C000D6E700BF6C0600200148FFF7F9BE00BF1D
:1050D000640600200148FFF7F4BE00BF640600200C
:1050E0002DE9F0478E681F46BE420B6882460C468B
:1050F00090462DD8B1F90C2012F4906F26D0656936
:10510000096905EB4505A3EB010905EBD5757B1C8A
:105110004B446D109D4238BF1D46530527D5294687
:10512000FFF752FF064660B321694A46FFF7D2FEF9
:10513000A38923F4906343F08003A3812661656112
:105140004E44A5EB09052660A5603E46BE4200D947
:105150003E4620683246414600F0A8FAA3689B1BF1
:10516000A3602368334423600020BDE8F0872A460B
:1051700000F0C6FA06460028E0D121695046FFF744
:10518000B7FE0C23CAF80030A38943F04003A38183
:105190004FF0FF30E9E700002DE9F04F98468B898A
:1051A0001B069DB007460D46144610D50B6973B912
:1051B0004021FFF709FF2860286130B90C233B60CC
:1051C0004FF0FF301DB0BDE8F08F40236B6100232E
:1051D000099320238DF82930CDF80C803023DFF897
:1051E0009C818DF82A304FF0010923469A4613F826
:1051F000012B0AB1252AF9D1BAEB040B0BD05B467F
:10520000224629463846FFF76BFF013000F0A780A1
:10521000099A5A4409929AF80030002B00F09F80B6
:1052200000234FF0FF32CDE905230AF1010A049370
:1052300007938DF853301A935446052214F8011B36
:105240004E48FAF7CDFF049AD8B9D00644BF2023C0
:105250008DF85330110744BF2B238DF853309AF843
:1052600000302A2B15D0079A544600204FF00A0C24
:10527000214611F8013B303B092B4BD9B0B10792C5
:1052800014E0A0EB080309FA03F313430493A246C6
:10529000D2E7039B191D1B680391002BBBBF5B4228
:1052A00042F0020207930793B8BF049223782E2B93
:1052B0000AD163782A2B32D1039B1A1D1B680392F3
:1052C00043EAE37302340593DFF8C0A02178032298
:1052D0005046FAF785FF38B1049BA0EB0A00402244
:1052E000824013430134049314F8011B24488DF8C1
:1052F00028100622FAF774FF002836D0214B1BBB7A
:10530000039B073323F0070308330393099B3344BC
:1053100009936AE70CFB02320C460120A8E7002340
:105320000134059319464FF00A0C204610F8012B62
:10533000303A092A03D9002BC6D00591C4E70CFBEB
:10534000012104460123F0E703AB00932A460E4BEC
:1053500004A93846AFF30080421C0646D6D1AB897B
:105360005B063FF52DAF09982CE703AB00932A4667
:10537000054B04A9384600F079F8EDE7F458000829
:10538000FE58000800000000E1500008FA5800082C
:105390002DE9F047164698468A680B69DDF820909B
:1053A0009342B8BF1346336091F8432007460C463A
:1053B0000AB1013333602368990642BF3368023370
:1053C0003360256815F0060506D104F1190AE36873
:1053D00032689B1AAB4226DC94F843302268003BCB
:1053E00018BF012392062BD404F1430241463846EC
:1053F000C84701301ED02368226903F00603042B3E
:1054000002BFE5683368ED1AA3680CBF25EAE575AD
:1054100000259342C4BF9B1AED1800261A34B542EA
:105420001AD1002008E00123524641463846C847B9
:10543000013003D14FF0FF30BDE8F0870135C6E7FA
:10544000E1185A1C302081F84300224494F845109A
:1054500082F843100233C7E701232246414638460B
:10546000C8470130E6D00136D9E700002DE9FF47F3
:105470000F7E0C9E782F914680460C469A4601F18D
:10548000430207D8622F0AD8002F00F0D280582F8D
:1054900000F0B98004F1420684F842703AE0A7F1C6
:1054A0006303152BF6D801A151F823F00555000828
:1054B00019550008955400089554000895540008A3
:1054C0009554000819550008955400089554000893
:1054D00095540008955400081956000843550008D3
:1054E000D355000895540008955400083B56000811
:1054F0009554000843550008955400089554000839
:10550000DB55000833681A1D1B68326004F142063F
:1055100084F8423001239DE033682068191D316012
:10552000060601D51D6803E04506FBD5B3F900501A
:10553000002D03DA2D236D4284F8433059480A23A5
:1055400011E021683368080653F8045B02D4490669
:1055500048BFADB26F2F5348336014BF0A230823EE
:10556000002184F843106668A660002EA2BF21685F
:1055700021F0040121600DB9002E4BD01646B5FB79
:10558000F3F103FB1157C75D06F8017D2F46BB42BF
:105590000D46F4D9082B0BD12368DF0708D5236902
:1055A00061689942DEBF302306F8013C06F1FF3600
:1055B000921B2261CDF800A04B4603AA214640462B
:1055C000FFF7E6FE01304AD14FF0FF3004B0BDE8EE
:1055D000F087236843F0200323603348782784F85A
:1055E0004570236831681F0651F8045B02D45F06DA
:1055F00048BFADB23160D90744BF43F020032360F8
:105600001DB11023ACE72748E9E7236823F0200306
:105610002360F6E71646BDE7336825686169181D03
:1056200030602E061B6801D5196002E06806FBD5C4
:105630001980002323611646BCE733681A1D3260C7
:105640001E68626800213046FAF7CAFD08B1801B67
:10565000606063682361002384F84330AAE723690C
:10566000324649464046D0470130ADD023689B07BB
:1056700013D4E068039B9842B8BF1846A6E70123FD
:10568000324649464046D04701309DD00135E36857
:1056900003995B1AAB42F2DCEBE7002504F1190633
:1056A000F5E700BF0559000816590008884210B5F3
:1056B00001EB020402D98442234607D8431EA142CB
:1056C00008D011F8012B03F8012FF8E70244014636
:1056D0008A4200D110BD13F8014D02F8014DF7E7E1
:1056E00038B5064D0023044608462B60FCF70CFA3B
:1056F000431C02D12B6803B1236038BD6006002033
:105700002DE9F041804615460C4621B9BDE8F0412F
:105710001146FFF759BC2AB9FFF7EAFB00242046DF
:10572000BDE8F08100F01AF88542064602D8B5EBD4
:10573000500FF4D829464046FFF746FC074600289C
:10574000ECD0B5422A46214628BF3246FFF7C2FBBD
:1057500021464046FFF7CCFB3C46E0E751F8043CCD
:10576000181F002BBCBF0B58C0187047F8B500BFFE
:10577000F8BC08BC9E467047F8B500BFF8BC08BC32
:045780009E4670478A
:1057840056657273696F6E3A20257320446174659F
:105794003A2025730D0A00006A756D7020746F201D
:1057A4006D61696E206170700D0A0000426F6F7444
:1057B4006C6F6164657220737461727465640D0A40
:1057C4000000000076312E302E30000032303235A9
:1057D4002D31322D32300000464C41534820756E35
:1057E4006C6F636B206661696C65640D0A00000070
:1057F4004572617365206F766572666C6F770D0A0A
:105804000000000045726173652048414C206661C8
:10581400696C0D0A000000004572617365206572B1
:105824007220213D204646460D0A000050726F67E3
:1058340072616D206661696C0D0A00004352432059
:10584400766572696679206661696C0D0A000000EC
:105854005374617274205573657220417070200D09
:105864000A00000098040020000400482000000002
:105874000080000800000200D0070000102700008C
:105884007E0000006400000000F001080008000031
:1058940048414C204572726F72206F636375727257
:1058A40065640D0A00000000000000000000000014
:1058B40001020304060708090000000001020304B2
:1058C400A0860100400D0300801A060000350C007C
:1058D40040420F0080841E0000093D0000127A003F
:1058E4000024F40000366E010048E801006CDC027C
:1058F400232D302B2000686C4C00656667454647B5
:105904000030313233343536373839414243444537
:1059140046003031323334353637383961626364A6
:0459240065660000B4
:08592800A8A8FF7F01000000A8
:04593000B5010008B5
:0459340091010008D5
:1059380000093D0010000000010000000000000008
:10594800000000000000000000000000010000004E
:1059580000000000000000000000000030000020EF
:10596800000000002805002090050020F805002010
:10597800000000000000000000000000000000001F
:10598800000000000000000000000000000000000F
:1059980000000000000000000000000000000000FF
:0C59A800000000000000000000000000F3
:0400000508001B993B
:00000001FF
