:020000040800F2
:10000000000001202D1900083918000847180008C1
:100010004F180008571800085F180008000000007B
:100020000000000000000000000000006718000849
:1000300075180008000000008318000891180008D7
:100040007D1900087D1900087D1900087D19000838
:100050007D1900087D1900087D1900087D19000828
:100060007D1900087D1900087D1900087D19000818
:100070009D180008B11800087D1900087D190008B6
:100080007D1900087D1900087D1900087D190008F8
:100090007D1900087D1900087D1900087D190008E8
:1000A0007D1900087D1900087D1900087D190008D8
:1000B0007D19000800000000000000007D19000804
:1000C0007D19000800000000000000007D190008F4
:1000D000000000007D1900087D19000800000000E4
:1000E0007D1900087D1900080000000000000000D4
:1000F0000000000000000000000000000000000000
:100100000000000000000000000000007D19000851
:100110000000000000000000C51800087D1900085C
:10012000E1180008F51800087D1900087D1900087D
:100130007D19000800000000000000000000000021
:100140007D1900087D1900087D1900087D19000837
:100150007D1900087D1900087D1900087D19000827
:100160007D1900087D1900087D19000800000000B5
:100170007D1900087D190008000000000000000043
:0C0180007D1900087D1900087D19000899
:10018C0010B5054C237833B9044B13B10448AFF3C5
:10019C0000800123237010BD0CF80020000000002B
:1001AC00185C000808B5034B1BB103490348AFF3B7
:1001BC00008008BD0000000010F80020185C00084A
:1001CC0053B94AB9002908BF00281CBF4FF0FF31B2
:1001DC004FF0FF3000F06AB9ADF1080C6DE904CEB8
:1001EC0000F006F8DDF804E0DDE9022304B0704706
:1001FC002DE9F047089D0C46002B4ED194468C45BA
:10020C008646B2FA82F262D94AB1C2F12003914019
:10021C0020FA03F30CFA02FC194300FA02FE4FEA2F
:10022C001C471FFA8CF6B1FBF7F44FEA1E4307FB91
:10023C00141143EA014304FB06F199420AD91CEB61
:10024C00030304F1FF3080F01281994240F20F81D8
:10025C00023C6344591A1FFA8EF3B1FBF7F007FB0B
:10026C00101143EA014300FB06F69E420AD91CEB2F
:10027C00030300F1FF3180F0FC809E4240F2F980D4
:10028C00634402389B1B40EA044000211DB1D3405B
:10029C000022C5E90032BDE8F0878B4205D90DB1CB
:1002AC00C5E9000100210846F5E7B3FA83F10029FE
:1002BC0046D1A34202D39042C0F0F080861A64EB80
:1002CC0003030120002DE6D0C5E90063E3E7002A13
:1002DC0040F09080A1EB0C044FEA1C481FFA8CF7FD
:1002EC000121B4FBF8F64FEA1E4308FB164443EA1F
:1002FC00044307FB06F0984208D91CEB030306F1F4
:10030C00FF3402D2984200F2CD8026461C1A1FFA06
:10031C008EF3B4FBF8F008FB104443EA044300FBF3
:10032C0007F79F4208D91CEB030300F1FF3402D2FC
:10033C009F4200F2B0802046DB1B40EA0640A5E756
:10034C00C1F120068B4022FA06F71F4320FA06FC67
:10035C0004FA01F343EA0C03F44000FA01F8380CF8
:10036C004FEA1349B4FBF0FE1FFA87FC00FB1E4456
:10037C0049EA04440EFB0CF9A14502FA01F20AD930
:10038C003C190EF1FF3A80F08480A14540F2818047
:10039C00AEF1020E3C44A4EB09041FFA83F9B4FB42
:1003AC00F0F300FB134449EA044403FB0CFCA445A2
:1003BC0007D93C1903F1FF3067D2A44565D9023B3C
:1003CC003C4443EA0E40A0FB0293A4EB0C049C4279
:1003DC00CE469C4651D34ED055B1B8EB0E0364EBD0
:1003EC000C0404FA06F6CB401E43CC40C5E900646D
:1003FC00002150E7C2F1200320FA03F10CFA02FCB1
:10040C0024FA03F394400C434FEA1C4800FA02FE12
:10041C001FFA8CF7B3FBF8F008FB1031230C43EAFE
:10042C00014300FB07F1994208D91CEB030300F1CF
:10043C00FF362CD299422AD9023863445B1AA4B2F3
:10044C00B3FBF8F108FB113344EA034401FB07F357
:10045C00A34208D91CEB040401F1FF3613D2A342CA
:10046C0011D902396444E41A41EA004139E70446DF
:10047C00F0E6084606E7C845AED2B9EB020E63EBD0
:10048C00070C0138A8E73146EDE7034699E73046FB
:10049C00D4E7D6467FE7634402384DE70646234649
:1004AC0008460FE7023E634430E700BF704700BFC9
:1004BC0090B5CDB002AF07F59474A4F58E7420609E
:1004CC0007F59470A0F590700160114607F59472D1
:1004DC00A2F59472136007F59473A3F591730A4611
:1004EC001A800023C7F82031D7F83831002B03D0FD
:1004FC00D7F83C31002B01D10123B7E1D7F83C31BF
:10050C00DBB2002B05D1D7F83C311B0A87F8273119
:10051C0006E0D7F83C311B0ADBB2013387F82731F0
:10052C000023C7F81C3199E1D7F83C21D7F82031CA
:10053C00D31AFF2B04D94FF48073A7F8243108E0A9
:10054C00D7F83C319AB2D7F820319BB2D31AA7F81E
:10055C00243107F59473A3F59173198807F59473F7
:10056C00A3F590730022186802F0C2F8062387F8EE
:10057C00143107F58A7107F59473A3F58E70642313
:10058C000122006803F08BFB07F59473A3F59173BC
:10059C00198807F59473A3F590730122186802F07B
:1005AC00A7F807F59473A3F59173198807F594735D
:1005BC00A3F590730022186802F09AF8052387F8C7
:1005CC00143107F58A7107F59473A3F58E706423C3
:1005DC000122006803F063FB07F1140107F5947323
:1005EC00A3F58E7064230122006803F0CDFC07F59F
:1005FC009473A3F59173198807F59473A3F590730D
:10060C000122186802F074F807F59473A3F58A7345
:10061C001B7803F00203002BC3D007F59473A3F5EA
:10062C009173198807F59473A3F5907300221868D9
:10063C0002F05EF8022387F8143107F59473A3F5E2
:10064C0094731B681B0CDBB287F8153107F5947398
:10065C00A3F594731B681B0ADBB287F8163107F5F8
:10066C009473A3F594731B68DBB287F8173107F505
:10067C008A7107F59473A3F58E70642304220068C5
:10068C0003F00DFBD7F83821D7F82031D118B7F883
:10069C00242107F59473A3F58E706423006803F08E
:1006AC00FEFA07F59473A3F59173198807F5947303
:1006BC00A3F590730122186802F01AF807F59473E9
:1006CC00A3F59173198807F59473A3F59073002221
:1006DC00186802F00DF8052387F8143107F58A71B4
:1006EC0007F59473A3F58E7064230122006803F060
:1006FC00D6FA07F1140107F59473A3F58E706423F1
:10070C000122006803F040FC07F59473A3F5917384
:10071C00198807F59473A3F590730122186801F0FA
:10072C00E7FF07F59473A3F58A731B7803F00103B5
:10073C00002BC3D107F59473A3F59173198807F5B2
:10074C009473A3F590730022186801F0D1FF052370
:10075C0087F8143107F58A7107F59473A3F58E7039
:10076C0064230122006803F09AFA07F1140107F5DB
:10077C009473A3F58E7064230122006803F004FCCB
:10078C0007F59473A3F59173198807F59473A3F582
:10079C0090730122186801F0ABFF07F59473A3F571
:1007AC008A731B7803F00203002BC3D1B7F8242102
:1007BC0007F59473A3F5947307F59471A1F59171F2
:1007CC000C8807F59471A1F5907107F59470A0F55C
:1007DC008E70019207F1140200921B682246096880
:1007EC00006800F048F80023C7F8183119E0D7F872
:1007FC00183107F1140213441A78D7F81C311B0274
:10080C001946D7F818310B44D7F838110B441B781C
:10081C009A4201D0012329E0D7F818310133C7F8E7
:10082C001831B7F82431D7F818219A42DFDBD7F802
:10083C00203103F58073C7F8203107F59473A3F5C5
:10084C00947307F59472A2F59472126802F5807293
:10085C001A60D7F81C310133C7F81C3197F82731CF
:10086C00D7F81C219A42FFF65FAE0023184607F515
:10087C009677BD4690BD80B586B000AFF860B96084
:10088C003B601346FB80FB8800221946B86801F0D8
:10089C002FFF03233B753B681B0CDBB27B753B685E
:1008AC001B0ADBB2BB753B68DBB2FB7507F11401AD
:1008BC0064230422F86803F0F2F97B6A9AB2642389
:1008CC00396AF86803F060FBFB8801221946B868A6
:1008DC0001F00EFF00BF1837BD4680BD80B586B055
:1008EC0000AFF860B9603B601346FB80FB880022C8
:1008FC001946B86801F0FCFE06233B7507F114019C
:10090C0064230122F86803F0CAF9FB880122194616
:10091C00B86801F0EDFEFB8800221946B86801F0BA
:10092C00E7FE05233B7507F1140164230122F868E7
:10093C0003F0B5F907F1100164230122F86803F004
:10094C0023FBFB8801221946B86801F0D1FE3B7CE1
:10095C0003F00203002BDED0FB8800221946B86896
:10096C0001F0C6FE20233B753B681B0CDBB27B758C
:10097C003B681B0ADBB2BB753B68DBB2FB7507F14E
:10098C00140164230422F86803F089F9FB8801221E
:10099C001946B86801F0ACFEFB8800221946B8680D
:1009AC0001F0A6FE05233B7507F114016423012217
:1009BC00F86803F074F907F1100164230122F86858
:1009CC0003F0E2FAFB8801221946B86801F090FEA8
:1009DC003B7C03F00103002BDED1FB88002219467F
:1009EC00B86801F085FE05233B7507F114016423FB
:1009FC000122F86803F053F907F110016423012276
:100A0C00F86803F0C1FAFB8801221946B86801F0B6
:100A1C006FFE3B7C03F00203002BDED1FB8800222F
:100A2C001946B86801F064FE2B233B7507F11401DD
:100A3C0064230122F86803F032F907F110016423F2
:100A4C000122F86803F0A0FAFB8801221946B86865
:100A5C0001F04EFE002318461837BD4680BD80B508
:100A6C008AB002AFF860B9607A607B80FB6A0022C2
:100A7C001A80FB6A7F229A70FB6A1B8803331A4622
:100A8C00F96AB86A01F0C0F90346DA43FB6AC3F8A5
:100A9C000324F96AF86800F0CBF80346002B01D068
:100AAC000123C1E00123FA6AB96AF86800F014F96D
:100ABC000346002B01D00123B6E0FB6A9B787F2B09
:100ACC0001D00123B0E00A23FA6AB96AF86800F091
:100ADC0003F90346002B01D00123A5E0FB6A9B78A8
:100AEC007F2B01D100239FE0FB6A9B78012B18D050
:100AFC00FB6A00221A80FB6A9B7863F07F03DAB2F0
:100B0C00FB6A9A70FB6A1B8803331A46F96AB86A47
:100B1C0001F07AF90346DA43FB6AC3F80324012394
:100B2C0082E0FB6A03331B68FB61FB6A033304330B
:100B3C001B687B61FB6A00221A80FB6A01229A7097
:100B4C00FB6A1B8803331A46F96AB86A01F05CF930
:100B5C000346DA43FB6AC3F80324F96AF86800F029
:100B6C0067F80346002B01D001235DE00023BB6135
:100B7C0055E00A23FA6AB96AF86800F0ADF8034642
:100B8C00002B01D001234FE0FB69C3F30B03002BB7
:100B9C0006D1FB6908224FF09041B868FFF79EFE22
:100BAC00FB6A03229A70FB6A0333FA6A12881146B5
:100BBC007A8801910093FB697968B868FFF778FC33
:100BCC000346002B06D0FB6A9B7863F07F03DAB2F6
:100BDC00FB6A9A70FB6A1B881A46FB691344FB611B
:100BEC00FB6A1B881A46BB691344BB61FB6A002273
:100BFC001A80FB6A1B8803331A46F96AB86A01F03B
:100C0C0003F90346DA43FB6AC3F80324F96AF8686C
:100C1C0000F00EF80346002B01D0012304E0BB6961
:100C2C007A699A42A5D84EE718462037BD4680BD52
:100C3C0080B584B000AF78603960AA23FB720023C2
:100C4C00FB6007F10B014FF47A730122786804F012
:100C5C00A9F903461A46FB681343FB6039684FF445
:100C6C007A730222786804F09DF903461A46FB68F1
:100C7C001343FB603B68991C4FF47A73012278682C
:100C8C0004F090F903461A46FB681343FB603B687B
:100C9C001B88002B0CD03B68D91C3B681A8864233A
:100CAC00786804F008FA03461A46FB681343FB60A5
:100CBC003B6803F203414FF47A730422786804F022
:100CCC0071F903461A46FB681343FB60FB68184630
:100CDC001037BD4680BD000090B589B000AFF860FC
:100CEC00B9607A603B600023FB750023FB613B68B5
:100CFC00002B01D1012371E000F070FB394B002275
:100D0C001A600023BB6113E007F117010A230122CB
:100D1C00F86804F0D0F9334B1B68002B05D0314B2D
:100D2C0000221A60BB690133BB61FB7DAA2B04D086
:100D3C00BA693B689A42E7DB00E000BF00F05CFB5D
:100D4C00796864230222F86804F0B5F903461A4660
:100D5C00FB691343FB617B681B88B3F5806F01D97A
:100D6C0001233BE07B68991C64230122F86804F0A2
:100D7C00A2F903461A46FB691343FB617B681B8887
:100D8C00002B0CD07B68D91C7B681A886423F8680C
:100D9C0004F091F903461A46FB691343FB617B6827
:100DAC0003F2034164230422F86804F084F9034637
:100DBC001A46FB691343FB617B68D3F803447B68D9
:100DCC001B8803331A467968B86801F01DF803468E
:100DDC00DB439C4201D0012300E0FB691846243719
:100DEC00BD4690BD08FB0020F0B5A9B022AF00F0C5
:100DFC00C0FD00F077F800F003FA00F0BFF900F046
:100E0C00D9F800F089F900F0B3F800F04FF900F0D0
:100E1C000FF92E4B01932E4B009308234FF0904269
:100E2C002C492D48FFF71BFE1C2301932B4B0093E1
:100E3C004FF4801308224FF090412648FFF71BFD1A
:100E4C00264B5B69254A1269224E21922093204B36
:100E5C0017AC1D460FCD0FC40FCD0FC42B682360EC
:100E6C00082316934FF090431593684606F1100330
:100E7C005422194604F0BCFE96E80F0000F00EFA5E
:100E8C00174B3C460FCB07C4238002341B0C23703A
:100E9C00394664230F22104804F084F800F00EFE4B
:100EAC0078617B693B6100F009FE38613A697B69C6
:100EBC00D31A40F2DC529342F5D93B697B61394637
:100ECC0064230F22044804F06DF8ECE700000020C6
:100EDC0028F80020B0F8002080FA00200804002038
:100EEC00305C000880B596B000AF07F114034422C3
:100EFC000021184604F050FE3B4600221A605A604E
:100F0C009A60DA601A614FF4007001F017FC034626
:100F1C00002B01D000F07AFA02237B614FF480732E
:100F2C003B6210237B620023FB6307F1140318461A
:100F3C0001F0F2FC0346002B01D000F067FA0F23FE
:100F4C003B6001237B600023BB600023FB6000231C
:100F5C003B613B460021184602F0F2F80346002B99
:100F6C0001D000F053FA00BF5837BD4680BD0000D9
:100F7C0080B500AF0D4B0E4A1A600C4B00221A7153
:100F8C000A4B00225A71094B20225A61074B8022CE
:100F9C009A61064B01221A62044800F0D1FE034606
:100FAC00002B01D000F032FA00BF80BD28F80020E1
:100FBC000030024080B500AF1B4B1C4A1A601A4B24
:100FCC004FF482725A60184B00229A60164B4FF401
:100FDC00E062DA60144B00221A61134B00225A6152
:100FEC00114B4FF400729A610F4B0022DA610E4BD9
:100FFC0000221A620C4B00225A620B4B00229A629E
:10100C00094B0722DA62084B00221A63064B0822AE
:10101C005A63054802F0A0FD0346002B01D000F0F6
:10102C00F5F900BF80BD00BF4CF800200030014036
:10103C0080B500AF1B4B1C4A1A601A4B4FF48272DE
:10104C005A60184B00229A60164B4FF4E062DA603B
:10105C00144B00221A61134B00225A61114B4FF4AE
:10106C0000729A610F4B0022DA610E4B00221A6259
:10107C000C4B00225A620B4B00229A62094B07223E
:10108C00DA62084B00221A63064B08225A630548A1
:10109C0002F062FD0346002B01D000F0B7F900BF4F
:1010AC0080BD00BFB0F80020003C004080B584B08B
:1010BC0000AF3B1D00221A605A609A60144B154A0F
:1010CC001A60134B4FF47A525A60114B00229A60FB
:1010DC000F4B6422DA600E4B00229A610C4803F02D
:1010EC0069FC0346002B01D000F090F900237B60D3
:1010FC000023FB603B1D1946054803F0CFFE034659
:10110C00002B01D000F082F900BF1037BD4680BD26
:10111C0034FA00200010004080B500AF154B164A81
:10112C001A60144B4FF4E1325A60124B00229A6051
:10113C00104B0022DA600F4B00221A610D4B0C226F
:10114C005A610C4B00229A610A4B0022DA61094B5E
:10115C0000221A62074B00225A620023002200214F
:10116C00044804F0B2FC0346002B01D000F04EF909
:10117C0000BF80BD80FA00200038014080B582B0ED
:10118C0000AF1E4B9B6C1D4A43F0010393641B4B39
:10119C009B6C03F001037B607B68184B9B6C174ABC
:1011AC0043F002039364154B9B6C03F002033B600A
:1011BC003B68002200210C2000F08BFD0C2000F07D
:1011CC00A4FD002200210D2000F083FD0D2000F075
:1011DC009CFD00220021382000F07BFD382000F01F
:1011EC0094FD00220021392000F073FD392000F01D
:1011FC008CFD00BF0837BD4680BD00BF001002400B
:10120C0080B588B000AF07F10C0300221A605A6059
:10121C009A60DA601A61204BDB6C1F4A43F00103C1
:10122C00D3641D4BDB6C03F00103BB60BB681A4B32
:10123C00DB6C194A43F00203D364174BDB6C03F0ED
:10124C0002037B607B6800224FF48E714FF090405C
:10125C0001F04EFA4FF48E73FB6001233B610023C7
:10126C007B610023BB6107F10C0319464FF09040E2
:10127C0001F0D4F84FF40063FB6003233B610023BF
:10128C007B6107F10C0319464FF0904001F0C6F852
:10129C0000BF2037BD4680BD0010024084B080B531
:1012AC008CB002AF07F1300C8CE80F004FF00053FC
:1012BC003B6200237B621CE07B6ADB011A46D7F899
:1012CC00C430D1187B6ADB011A463B6A1344B7F869
:1012DC0098208020019000930B46D7F8941007F1CA
:1012EC003000FFF7C8FA0A2000F0F4FB7B6A0133E8
:1012FC007B62D7F8C030DA097B6A9A42DCD8D7F81F
:10130C00C03003F07F03FB61FB69002B19D0D7F8C9
:10131C00C030DB09BB61BB69DA01D7F8C430D01827
:10132C00BB69DB013A6A1344B7F89810FA69019269
:10133C00009303460A46D7F8941007F13000FFF7E4
:10134C009AFAD7F8C420D7F8C030D118B7F898203B
:10135C00042301933B1D00930B46D7F8941007F11F
:10136C003000FFF788FA07F19C03D7F8C020396AE0
:10137C00184600F049FD0346DA437B689A4201D0D7
:10138C0001231FE001F030FA00F00CFB4FF000538A
:10139C007B6172B600BF0023BB60BB6883F314880B
:1013AC0000BF7B691B68FB60FB6883F3088800BF88
:1013BC00084B4FF000529A60074B3B613B691B682E
:1013CC009847002318462837BD46BDE8804004B036
:1013DC00704700BF00ED00E00400002080B500AFB6
:1013EC00044B1B686FF001021A61024803F03AFBD0
:1013FC0000BF80BD34FA002080B500AF024803F076
:10140C0085FB00BF80BD00BF34FA002080B400AF64
:10141C0000BFBD465DF8047B7047000080B483B00C
:10142C0000AF0F4B1B6E0E4A43F0010313660C4BBF
:10143C001B6E03F001037B607B68094B9B6D084AB4
:10144C0043F080539365064B9B6D03F080533B60D8
:10145C003B6800BF0C37BD465DF8047B704700BF8E
:10146C000010024080B485B000AF78607B681B68C8
:10147C000A4A93420BD10A4B9B6C094A43F48053A2
:10148C009364074B9B6C03F48053FB60FB6800BFB9
:10149C001437BD465DF8047B704700BF0030024036
:1014AC000010024080B58CB000AF786007F11C03CF
:1014BC0000221A605A609A60DA601A617B681B68B5
:1014CC00804A93427BD1804B1B6E7F4A43F48053FE
:1014DC0013667D4B1B6E03F48053BB61BB697A4B67
:1014EC00DB6C794A43F00103D364774BDB6C03F07C
:1014FC0001037B617B69E023FB6102233B620023D8
:10150C007B620323BB620523FB6207F11C031946B4
:10151C004FF0904000F082FF6C4B6D4A1A606B4BA1
:10152C0001225A60694B00229A60684B0022DA60F3
:10153C00664B80221A61654B00225A61634B002274
:10154C009A61624B0022DA61604B00221A625F489A
:10155C0000F0FCFD0346002B01D0FFF757FF7B6822
:10156C005A4A9A65594A7B6893625A4B5A4A1A608E
:10157C00584B01225A60574B10229A60554B00224F
:10158C00DA60544B80221A61524B00225A61514B43
:10159C0000229A614F4B0022DA614E4B00221A62F4
:1015AC004C4800F0D3FD0346002B01D0FFF72EFF73
:1015BC007B68484A5A65474A7B6893627EE07B6841
:1015CC001B68464A934279D13F4B9B6D3E4A43F48C
:1015DC00004393653C4B9B6D03F400433B613B69BB
:1015EC00394BDB6C384A43F00203D364364BDB6C6B
:1015FC0003F00203FB60FB683823FB6102233B62B0
:10160C0000237B620323BB620623FB6207F11C03EE
:10161C001946334800F002FF324B334A1A60314B03
:10162C0003225A602F4B00229A602E4B0022DA6064
:10163C002C4B80221A612B4B00225A61294B002221
:10164C009A61284B0022DA61264B00221A62254847
:10165C0000F07CFD0346002B01D0FFF7D7FE7B6822
:10166C00204A9A651F4A7B689362204B204A1A6075
:10167C001E4B03225A601D4B10229A601B4B0022FA
:10168C00DA601A4B80221A61184B00225A61174BF0
:10169C0000229A61154B0022DA61144B00221A6267
:1016AC00124800F053FD0346002B01D0FFF7AEFEAD
:1016BC007B680E4A5A650D4A7B68936200BF3037CF
:1016CC00BD4680BD003001400010024014F90020DE
:1016DC001C0002405CF9002030000240003C00403D
:1016EC0000040048A4F9002008040240ECF9002092
:1016FC001C04024080B584B000AF78607B681B6826
:10170C000D4A934213D10D4B9B6D0C4A43F01003C1
:10171C0093650A4B9B6D03F01003FB60FB68002282
:10172C000021362000F0D5FA362000F0EEFA00BF8A
:10173C001037BD4680BD00BF0010004000100240B5
:10174C0080B5A0B000AF786007F16C0300221A607E
:10175C005A609A60DA601A6107F11803542200216A
:10176C00184604F019FA7B681B682D4A934253D132
:10177C000123BB610023BB6307F11803184601F07A
:10178C0003FF0346002B01D0FFF740FE254B1B6ED9
:10179C00244A43F480431366224B1B6E03F48043AC
:1017AC007B617B691F4BDB6C1E4A43F00103D364E6
:1017BC001C4BDB6C03F001033B613B69194BDB6C8D
:1017CC00184A43F00203D364164BDB6C03F002039C
:1017DC00FB60FB684FF48053FB6602233B670023DE
:1017EC007B670323BB670723FB6707F16C03194671
:1017FC004FF0904000F012FEC023FB6602233B67C3
:10180C0000237B670323BB670723FB6707F16C038C
:10181C001946054800F002FE00BF8037BD4680BD6A
:10182C0000380140001002400004004880B400AFB2
:10183C0000BFBD465DF8047B704780B400AF00BFAD
:10184C00FDE780B400AF00BFFDE780B400AF00BF80
:10185C00FDE780B400AF00BFFDE780B400AF00BF70
:10186C00BD465DF8047B704780B400AF00BFBD4639
:10187C005DF8047B704780B400AF00BFBD465DF8D7
:10188C00047B704780B500AF00F004F900BF80BD49
:10189C0080B500AF024800F011FD00BF80BD00BF55
:1018AC0014F9002080B500AF024800F007FD00BF1E
:1018BC0080BD00BF5CF9002080B500AF034B012256
:1018CC001A60034803F051F900BF80BD08FB0020EB
:1018DC0034FA002080B500AF024800F0EFFC00BFE6
:1018EC0080BD00BFA4F9002080B500AF024800F015
:1018FC00E5FC00BF80BD00BFECF9002080B400AF58
:10190C00064BD3F88830054A43F47003C2F888308C
:10191C0000BFBD465DF8047B704700BF00ED00E0E2
:10192C00DFF834D0FFF7EAFF0C480D490D4A0023CD
:10193C0002E0D458C4500433C4188C42F9D30A4A78
:10194C000A4C002301E013600432A242FBD304F0E2
:10195C002BF9FFF749FAFEE70000012000F8002000
:10196C000CF80020985C00080CF8002010FB0020FC
:10197C00FEE780B582B000AF0023FB71032000F0BE
:10198C009DF90F2000F04AF80346002B02D00123EA
:10199C00FB7101E0FFF742FDFB7918460837BD46A5
:1019AC0080BD000080B500AF174B4FF0FF329A633B
:1019BC00154B4FF0FF32DA63134B00229A63124B34
:1019CC000022DA63104B4FF0FF321A640E4B0022E8
:1019DC001A640D4B4FF0FF329A620B4B00229A6245
:1019EC00094B4FF0FF32DA62074B0022DA62064BEA
:1019FC004FF0FF321A63044B00221A6300F006F812
:101A0C000023184680BD00BF0010024080B400AF18
:101A1C0000BFBD465DF8047B7047000080B584B004
:101A2C0000AF78600023FB73174B1B78002B23D07F
:101A3C00164B1A68144B1B7819464FF47A73B3FB88
:101A4C00F1F3B2FBF3F3184600F06DF90346002BEB
:101A5C000FD17B680F2B09D8002279684FF0FF302B
:101A6C0000F037F90A4A7B68136007E00123FB7327
:101A7C0004E00123FB7301E00123FB73FB7B18469D
:101A8C001037BD4680BD00BF08F8002000F80020CC
:101A9C0004F8002080B400AF064B1B781A46064BA6
:101AAC001B681344044A136000BFBD465DF8047BF9
:101ABC00704700BF08F800200CFB002080B400AF7A
:101ACC00034B1B681846BD465DF8047B704700BF8E
:101ADC000CFB002080B584B000AF7860FFF7EEFF00
:101AEC00B8607B68FB60FB68B3F1FF3F05D00A4B25
:101AFC001B781A46FB681344FB6000BFFFF7DEFF40
:101B0C000246BB68D31AFA689A42F7D800BF00BFE6
:101B1C001037BD4680BD00BF08F8002080B485B0EA
:101B2C0000AF78607B6803F00703FB600C4BDB684D
:101B3C00BB60BA684FF6FF031340BB60FB681A0228
:101B4C00BB68134343F0BF6343F40033BB60044AE8
:101B5C00BB68D36000BF1437BD465DF8047B70478B
:101B6C0000ED00E080B400AF044BDB681B0A03F00F
:101B7C0007031846BD465DF8047B704700ED00E096
:101B8C0080B483B000AF0346FB7197F90730002B8C
:101B9C000BDBFB7903F01F02074997F907305B0950
:101BAC00012000FA02F241F8232000BF0C37BD4699
:101BBC005DF8047B704700BF00E100E080B483B0A7
:101BCC0000AF03463960FB7197F90730002B0ADB35
:101BDC003B68DAB20C4997F907301201D2B20B44C8
:101BEC0083F800230AE03B68DAB20849FB7903F07A
:101BFC000F03043B1201D2B20B441A7600BF0C3710
:101C0C00BD465DF8047B704700E100E000ED00E0AC
:101C1C0080B489B000AFF860B9607A60FB6803F0FB
:101C2C000703FB61FB69C3F10703042B28BF0423E3
:101C3C00BB61FB690433062B02D9FB69033B00E053
:101C4C0000237B614FF0FF32BB6902FA03F3DA43E6
:101C5C00BB681A407B699A404FF0FF317B6901FAEF
:101C6C0003F3D9437B680B40134318462437BD4616
:101C7C005DF8047B7047000080B582B000AF7860DF
:101C8C007B68013BB3F1807F01D301230FE00A4A4B
:101C9C007B68013B53600F214FF0FF30FFF78EFF45
:101CAC00054B00229A60044B07221A600023184649
:101CBC000837BD4680BD00BF10E000E080B582B0A3
:101CCC0000AF78607868FFF729FF00BF0837BD4682
:101CDC0080BD80B586B000AF0346B9607A60FB73F7
:101CEC0000237B61FFF73EFF78617A68B9687869F9
:101CFC00FFF78EFF024697F90F3011461846FFF793
:101D0C005DFF00BF1837BD4680BD80B582B000AF07
:101D1C000346FB7197F907301846FFF731FF00BFF8
:101D2C000837BD4680BD80B582B000AF786078685A
:101D3C00FFF7A2FF034618460837BD4680BD0000DA
:101D4C0080B582B000AF78607B68002B01D1012395
:101D5C0054E07B685B7FDBB2002B05D17B680022F3
:101D6C001A777868FFF77EFB7B6802225A777B68CC
:101D7C001B79002B0CD17B681B68224A5A617B684B
:101D8C001B689A687B681B6822F018029A600CE04A
:101D9C007B6899687B68DB681A46786800F048F9BC
:101DAC000346002B01D0012328E07B685B79002BD4
:101DBC0005D17B681B684FF0FF321A6104E07B6829
:101DCC001B687A6812691A617B681B689B6823F030
:101DDC0060017B685A697B681B680A439A607B6860
:101DEC001B689B6823F080017B689A697B681B6881
:101DFC000A439A607B6801225A77002318460837F9
:101E0C00BD4680BDB71DC10480B586B000AFF8607B
:101E1C00B9607A6000233B61FB6802225A77FB6849
:101E2C001B689A68FB681B6842F001029A60FB68A9
:101E3C001B6A032B06D0032B29D8012B19D0022B9C
:101E4C001ED024E000237B610AE07B699B00BA680A
:101E5C001A44FB681B6812681A607B6901337B614A
:101E6C007A697B689A42F0D3FB681B681B683B61FC
:101E7C000EE07A68B968F86800F012F8386107E08B
:101E8C007A68B968F86800F099F8386100E000BF2A
:101E9C00FB6801225A773B6918461837BD4680BD4E
:101EAC0080B489B000AFF860B9607A600023FB6140
:101EBC0023E0FB699B00BA6813441B781A06FB6984
:101ECC009B000133B9680B441B781B041A43FB6954
:101EDC009B000233B9680B441B781B021A43FB6945
:101EEC009B000333B9680B441B781946FB681B68CD
:101EFC000A431A60FB690133FB617B689B08FA6932
:101F0C009A42D6D37B6803F00303002B4DD07B6839
:101F1C0003F00303012B07D1FB699B00BA68134440
:101F2C00FA6812681B7813707B6803F00303022BAA
:101F3C0016D1FB699B00BA6813441B781B021AB2BA
:101F4C00FB699B000133B9680B441B781BB213432C
:101F5C001BB27B83FB681B687B617B697A8B1A8065
:101F6C007B6803F00303032B1FD1FB699B00BA684A
:101F7C0013441B781B021AB2FB699B000133B9682E
:101F8C000B441B781BB213431BB27B83FB681B688F
:101F9C007B617B697A8B1A80FB699B000233BA6880
:101FAC001344FA6812681B781370FB681B681B6873
:101FBC0018462437BD465DF8047B704780B487B063
:101FCC0000AFF860B9607A6000237B6113E07B6935
:101FDC009B00BA6813441B881A047B699B0002336C
:101FEC00B9680B441B881946FB681B680A431A60C6
:101FFC007B6901337B617B685B087A699A42E6D323
:10200C007B6803F00103002B09D0FB681B683B6164
:10201C007B699B00BA6813441A883B691A80FB6879
:10202C001B681B6818461C37BD465DF8047B70475F
:10203C0080B487B000AFF860B9607A600023FB759C
:10204C001F233B61BB6803F00103002B02D101236A
:10205C00FB7563E000BF3B695A1E3A61002B09D047
:10206C003B6903F01F03BA6822FA03F303F0010380
:10207C00002BF0D07B68182B46D801A252F823F025
:10208C001B21000815210008152100081521000846
:10209C00152100081521000815210008152100083C
:1020AC000921000815210008152100081521000838
:1020BC00152100081521000815210008152100081C
:1020CC00FD20000815210008152100081521000825
:1020DC0015210008152100081521000815210008FC
:1020EC00F12000083B69062B13D90123FB7510E086
:1020FC003B69072B0FD90123FB750CE03B690F2BB8
:10210C000BD90123FB7508E00123FB7506E000BF2A
:10211C0004E000BF02E000BF00E000BFFB7D002B2D
:10212C000DD1FB681B68BA685A61FB681B689B6819
:10213C0023F01801FB681B687A680A439A60FB7DE0
:10214C0018461C37BD465DF8047B704780B485B0DB
:10215C0000AF78607B68002B01D1012398E07B688D
:10216C001B681A464D4B9A420FD87B681B681A465F
:10217C004B4B13444B4AA2FB03231B099A007B686D
:10218C005A647B68484A1A640EE07B681B681A46DE
:10219C00464B1344434AA2FB03231B099A007B685A
:1021AC005A647B68424A1A647B68022283F82520B1
:1021BC007B681B681B68FB60FB6823F4FF4323F000
:1021CC007003FB607B689A687B68DB681A437B68EA
:1021DC001B691A437B685B691A437B689B691A43CA
:1021EC007B68DB691A437B681B6A1343FA681343E9
:1021FC00FB607B681B68FA681A607B689B68B3F5A8
:10220C00804F39D07B681B6C274A93421AD1294BDB
:10221C001A687B685B6C03F01C030F2101FA03F353
:10222C00DB43244913400B60224B1A687B685968C6
:10223C007B685B6C03F01C0301FA03F31D49134329
:10224C000B6019E01C4B1A687B685B6C03F01C0379
:10225C000F2101FA03F3DB43174913400B60164BB4
:10226C001A687B6859687B685B6C03F01C0301FA85
:10227C0003F3114913430B607B680022DA637B681C
:10228C00012283F825207B68002283F82420002378
:10229C0018461437BD465DF8047B704707040240AE
:1022AC00F8FFFDBFCDCCCCCC00000240F8FBFDBF4D
:1022BC0000040240A8000240A804024080B584B08B
:1022CC0000AF78607B681B6C1B68FB607B681B68CD
:1022DC001B68BB607B685B6C03F01C0304229A4098
:1022EC00FB681340002B26D0BB6803F00403002BC3
:1022FC0021D07B681B681B6803F02003002B07D1DF
:10230C007B681B681A687B681B6822F004021A60E1
:10231C007B685B6C03F01C027B681B6C042101FA6C
:10232C0002F25A607B681B6B002B71D07B681B6BB5
:10233C00786898476CE07B685B6C03F01C030222A6
:10234C009A40FB681340002B2ED0BB6803F00203AD
:10235C00002B29D07B681B681B6803F02003002B23
:10236C000BD17B681B681A687B681B6822F00A0219
:10237C001A607B68012283F825207B685B6C03F074
:10238C001C027B681B6C022101FA02F25A607B680A
:10239C00002283F824207B68DB6A002B38D07B6812
:1023AC00DB6A7868984733E07B685B6C03F01C034E
:1023BC0008229A40FB681340002B2AD0BB6803F01C
:1023CC000803002B25D07B681B681A687B681B6888
:1023DC0022F00E021A607B685B6C03F01C027B68B7
:1023EC001B6C012101FA02F25A607B680122DA634C
:1023FC007B68012283F825207B68002283F8242047
:10240C007B685B6B002B04D07B685B6B78689847B0
:10241C0000BF00BF1037BD4680BD000080B487B040
:10242C0000AF7860396000237B6148E13B681A6833
:10243C0001217B6901FA03F31340FB60FB68002B5D
:10244C0000F03A813B685B6803F00303012B05D075
:10245C003B685B6803F00303022B30D17B689B68FD
:10246C003B617B695B00032202FA03F3DB433A69AD
:10247C0013403B613B68DA687B695B0002FA03F34B
:10248C003A6913433B617B683A699A607B685B6885
:10249C003B6101227B6902FA03F3DB433A69134087
:1024AC003B613B685B681B0903F001027B6902FA24
:1024BC0003F33A6913433B617B683A695A603B68A2
:1024CC005B6803F00303032B17D07B68DB683B616D
:1024DC007B695B00032202FA03F3DB433A69134086
:1024EC003B613B689A687B695B0002FA03F33A69CB
:1024FC0013433B617B683A69DA603B685B6803F0C5
:10250C000303022B23D17B69DA087B68083253F86A
:10251C0022303B617B6903F007039B000F2202FA18
:10252C0003F3DB433A6913403B613B681A697B69EF
:10253C0003F007039B0002FA03F33A6913433B6170
:10254C007B69DA087B680832396943F822107B68AA
:10255C001B683B617B695B00032202FA03F3DB43DC
:10256C003A6913403B613B685B6803F003027B698B
:10257C005B0002FA03F33A6913433B617B683A69E7
:10258C001A603B685B6803F44033002B00F09480C6
:10259C00524B1B6E514A43F0010313664F4B1B6E9B
:1025AC0003F00103BB60BB684D4A7B699B08023397
:1025BC0052F823303B617B6903F003039B000F222D
:1025CC0002FA03F3DB433A6913403B617B68B3F1D6
:1025DC00904F0DD07B68434A934207D07B68424AA8
:1025EC00934201D1022304E0072302E0012300E01F
:1025FC0000237A6902F00302920093403A69134374
:10260C003B6137497B699B0802333A6941F82320C7
:10261C00364B9B683B61FB68DB433A6913403B617B
:10262C003B685B6803F48013002B03D03A69FB68AA
:10263C0013433B612D4A3B6993602C4BDB683B6138
:10264C00FB68DB433A6913403B613B685B6803F40E
:10265C000013002B03D03A69FB6813433B61234AF8
:10266C003B69D360214B5B683B61FB68DB433A6998
:10267C0013403B613B685B6803F40033002B03D0D1
:10268C003A69FB6813433B61184A3B695360174B2B
:10269C001B683B61FB68DB433A6913403B613B6859
:1026AC005B6803F48033002B03D03A69FB68134357
:1026BC003B610E4A3B6913607B6901337B613B686C
:1026CC001A687B6922FA03F3002B7FF4AFAE00BFCC
:1026DC0000BF1C37BD465DF8047B704700100240FC
:1026EC0000000140000400480008004800040140BC
:1026FC0080B483B000AF78600B467B8013467B7050
:10270C007B78002B03D07A887B689A6102E07A8808
:10271C007B689A6200BF0C37BD465DF8047B70473E
:10272C0080B400AF044B1B6803F4C0631846BD466D
:10273C005DF8047B704700BF0070004080B485B02A
:10274C0000AF78607B68B3F5007F30D1234B1B68FA
:10275C0003F4C063B3F5007F38D0204B1B6823F41F
:10276C00C0631E4A43F4007313601D4B1B68322276
:10277C0002FB03F31B4AA2FB03239B0C0133FB60FC
:10278C0002E0FB68013BFB60144B5B6903F4806364
:10279C00B3F5806F02D1FB68002BF2D10F4B5B6954
:1027AC0003F48063B3F5806F10D103230FE00B4B60
:1027BC001B6803F4C063B3F5806F07D0074B1B682D
:1027CC0023F4C063054A43F4806313600023184666
:1027DC001437BD465DF8047B704700BF00700040A5
:1027EC0000F8002083DE1B4380B582B000AF454B60
:1027FC001B68444A43F001031360FFF75FF97860EC
:10280C0008E0FFF75BF902467B68D31A022B01D96B
:10281C00032373E03B4B1B6803F00203002BF0D047
:10282C00384B1B6823F0F003364A43F06003136007
:10283C00344B00229A60344B344A1A60344B1B6878
:10284C001846FFF7EBF80346002B01D0012355E0A7
:10285C00FFF734F978600AE0FFF730F902467B683D
:10286C00D31A41F28832934201D9032346E0254B17
:10287C009B6803F00C03002BEED1224B1A68214904
:10288C00244B13400B60FFF719F9786008E0FFF751
:10289C0015F902467B68D31A022B01D903232DE0CC
:1028AC00184B1B6803F02063002BF0D1154B002252
:1028BC00DA60144BDB68134A43F48053D360114B3A
:1028CC0000221A610F4B1B690E4A43F480531361AB
:1028DC000C4B1B680B4A23F480231360094B00221A
:1028EC009A61084B4FF0FF321A62064BD3F89430C2
:1028FC00044A43F40003C2F8943000231846083706
:10290C00BD4680BD0010024000F800200024F400F9
:10291C0004F80020FFF4FEFA80B588B000AF7860B0
:10292C007B68002B02D1012300F002BC964B9B6804
:10293C0003F00C03BB61944BDB6803F003037B6176
:10294C007B681B6803F01003002B00F0E480BB696C
:10295C00002B07D0BB690C2B40F08B807B69012BC3
:10296C0040F08780884B1B6803F00203002B05D0D6
:10297C007B689B69002B01D10123D9E37B681A6A20
:10298C00814B1B6803F00803002B04D07E4B1B68A3
:10299C0003F0F00305E07C4BD3F894301B0903F0F3
:1029AC00F003934223D27B681B6A184600F08CFD1F
:1029BC000346002B01D00123BAE3734B1B68724A08
:1029CC0043F008031360704B1B6823F0F0027B6824
:1029DC001B6A6D4913430B606B4B5B6823F47F429E
:1029EC007B68DB691B02684913434B6025E0664B2F
:1029FC001B68654A43F008031360634B1B6823F0A4
:102A0C00F0027B681B6A604913430B605E4B5B688A
:102A1C0023F47F427B68DB691B025B4913434B60E9
:102A2C00BB69002B09D17B681B6A184600F04CFD72
:102A3C000346002B01D001237AE300F081FC02460F
:102A4C00514B9B681B0903F00F035049CB5C03F0FF
:102A5C001F0322FA03F34E4A13604E4B1B681846B1
:102A6C00FEF7DCFF0346FB73FB7B002B52D0FB7B9A
:102A7C005EE37B689B69002B32D0434B1B68424A58
:102A8C0043F001031360FFF719F8386108E0FFF712
:102A9C0015F802463B69D31A022B01D9032347E3ED
:102AAC00394B1B6803F00203002BF0D0364B1B682C
:102ABC00354A43F008031360334B1B6823F0F002D4
:102ACC007B681B6A304913430B602F4B5B6823F404
:102ADC007F427B68DB691B022B4913434B601AE076
:102AEC00294B1B68284A23F001031360FEF7E6FF0D
:102AFC00386108E0FEF7E2FF02463B69D31A022B6D
:102B0C0001D9032314E3204B1B6803F00203002BB1
:102B1C00F0D100E000BF7B681B6803F00103002BC1
:102B2C0073D0BB69082B05D0BB690C2B0ED17B690C
:102B3C00032B0BD1144B1B6803F40033002B63D015
:102B4C007B685B68002B5FD10123F1E27B685B68DB
:102B5C00B3F5803F06D10C4B1B680B4A43F4803312
:102B6C00136025E07B685B68B3F5A02F14D1064B8E
:102B7C001B68054A43F480231360034B1B68024A0D
:102B8C0043F48033136013E000100240405C0008F3
:102B9C0000F8002004F80020A04B1B689F4A23F487
:102BAC00803313609D4B1B689C4A23F48023136075
:102BBC007B685B68002B13D0FEF780FF386108E060
:102BCC00FEF77CFF02463B69D31A642B01D9032321
:102BDC00AEE2924B1B6803F40033002BF0D014E0F0
:102BEC00FEF76CFF386108E0FEF768FF02463B69B0
:102BFC00D31A642B01D903239AE2884B1B6803F484
:102C0C000033002BF0D100E000BF7B681B6803F0A1
:102C1C000203002B60D0BB69042B05D0BB690C2BC5
:102C2C0019D17B69022B16D17C4B1B6803F4806392
:102C3C00002B05D07B68DB68002B01D1012377E2E8
:102C4C00764B5B6823F0F8527B681B691B06734953
:102C5C0013434B6040E07B68DB68002B23D06F4B49
:102C6C001B686E4A43F480731360FEF727FF3861CC
:102C7C0008E0FEF723FF02463B69D31A022B01D969
:102C8C00032355E2654B1B6803F48063002BF0D0E3
:102C9C00624B5B6823F0F8527B681B691B065F492B
:102CAC0013434B6018E05D4B1B685C4A23F4807344
:102CBC001360FEF703FF386108E0FEF7FFFE0246E3
:102CCC003B69D31A022B01D9032331E2534B1B6806
:102CDC0003F48063002BF0D17B681B6803F00803BE
:102CEC00002B3CD07B685B69002B1CD04B4BD3F882
:102CFC0094304A4A43F00103C2F89430FEF7DEFEEA
:102D0C00386108E0FEF7DAFE02463B69D31A022B63
:102D1C0001D903230CE2414BD3F8943003F00203A6
:102D2C00002BEFD01BE03D4BD3F894303B4A23F003
:102D3C000103C2F89430FEF7C1FE386108E0FEF7DB
:102D4C00BDFE02463B69D31A022B01D90323EFE1E6
:102D5C00324BD3F8943003F00203002BEFD17B6895
:102D6C001B6803F00403002B00F0A6800023FB7704
:102D7C002A4B9B6D03F08053002B0DD1274B9B6D81
:102D8C00264A43F080539365244B9B6D03F080538C
:102D9C00BB60BB680123FB77214B1B6803F480737A
:102DAC00002B18D11E4B1B681D4A43F48073136013
:102DBC00FEF784FE386108E0FEF780FE02463B69B0
:102DCC00D31A022B01D90323B2E1154B1B6803F470
:102DDC008073002BF0D07B689B68012B08D10F4BC4
:102DEC00D3F890300D4A43F00103C2F8903029E03B
:102DFC007B689B68052B15D1084BD3F89030074A9C
:102E0C0043F00403C2F89030044BD3F89030034ADB
:102E1C0043F00103C2F8903014E000BF00100240F0
:102E2C00007000409A4BD3F89030994A23F001037C
:102E3C00C2F89030964BD3F89030954A23F00403A7
:102E4C00C2F890307B689B68002B16D0FEF736FEDC
:102E5C0038610AE0FEF732FE02463B69D31A41F2B2
:102E6C008832934201D9032362E1894BD3F8903025
:102E7C0003F00203002BEDD015E0FEF71FFE3861C6
:102E8C000AE0FEF71BFE02463B69D31A41F2883278
:102E9C00934201D903234BE17D4BD3F8903003F0DF
:102EAC000203002BEDD1FB7F012B05D1784B9B6DE1
:102EBC00774A23F0805393657B681B6803F02003EB
:102ECC00002B3CD07B685B6A002B1CD0704BD3F87A
:102EDC0098306F4A43F00103C2F89830FEF7EEFDCC
:102EEC00386108E0FEF7EAFD02463B69D31A022B73
:102EFC0001D903231CE1664BD3F8983003F002038D
:102F0C00002BEFD01BE0624BD3F89830604A23F0D3
:102F1C000103C2F89830FEF7D1FD386108E0FEF7E6
:102F2C00CDFD02463B69D31A022B01D90323FFE0E6
:102F3C00574BD3F8983003F00203002BEFD17B688A
:102F4C009B6A002B00F0F3807B689B6A022B40F09D
:102F5C00C9804F4BDB687B617B6903F003027B68A4
:102F6C00DB6A9A422CD17B6903F070027B681B6B85
:102F7C00013B1B019A4223D17B6903F4FE427B681F
:102F8C005B6B1B029A421BD17B6903F078427B6816
:102F9C009B6BDB069A4213D17B6903F4C0027B68FE
:102FAC00DB6B5B08013B5B059A4209D17B6903F043
:102FBC00C0627B681B6C5B08013B5B069A426BD062
:102FCC00BB690C2B62D0324B1B6803F08063002B67
:102FDC0001D00123ACE02E4B1B682D4A23F08073EB
:102FEC001360FEF76BFD386108E0FEF767FD0246E3
:102FFC003B69D31A022B01D9032399E0244B1B689C
:10300C0003F00073002BF0D1214BDA68214B1340F5
:10301C007A68D16A7A68126B013A120111437A68A4
:10302C00526B120211437A68D26B5208013A520564
:10303C0011437A68126C5208013A520611437A68AD
:10304C00926BD2060A4312491343CB60104B1B6898
:10305C000F4A43F0807313600D4BDB680C4A43F04E
:10306C008073D360FEF72AFD386108E0FEF726FD79
:10307C0002463B69D31A022B01D9032358E0044BB7
:10308C001B6803F00073002BF0D050E001234FE0DD
:10309C00001002408C809D01274B1B6803F00073CD
:1030AC00002B44D1244B1B68234A43F080731360DC
:1030BC00214BDB68204A43F08073D360FEF7FEFCA3
:1030CC00386108E0FEF7FAFC02463B69D31A022B82
:1030DC0001D903232CE0184B1B6803F00073002B61
:1030EC00F0D024E0BB690C2B1FD0134B1B68124A89
:1030FC0023F080731360FEF7E1FC386108E0FEF703
:10310C00DDFC02463B69D31A022B01D903230FE0E5
:10311C00094B1B6803F00073002BF0D1064BDA68E7
:10312C000549064B1340CB6001E0012300E000236E
:10313C0018462037BD4680BD00100240FCFFEEFE55
:10314C0080B584B000AF786039607B68002B01D10A
:10315C000123E7E0754B1B6803F007033A689A42BA
:10316C0010D9724B1B6823F0070270493B6813435C
:10317C000B606E4B1B6803F007033A689A4201D050
:10318C000123CFE07B681B6803F00203002B10D0F7
:10319C007B689A68664B9B6803F0F0039A4208D9E7
:1031AC00634B9B6823F0F0027B689B686049134378
:1031BC008B607B681B6803F00103002B4CD07B6891
:1031CC005B68032B07D15A4B1B6803F00073002B71
:1031DC0021D10123A6E07B685B68022B07D1544BFD
:1031EC001B6803F40033002B15D101239AE07B6894
:1031FC005B68002B07D14E4B1B6803F00203002BBE
:10320C0009D101238EE04A4B1B6803F48063002B29
:10321C0001D1012386E0464B9B6823F003027B68B7
:10322C005B68434913438B60FEF748FCF8600AE087
:10323C00FEF744FC0246FB68D31A41F288329342F3
:10324C0001D903236EE03A4B9B6803F00C027B68B8
:10325C005B689B009A42EBD17B681B6803F002030E
:10326C00002B10D07B689A68314B9B6803F0F003FD
:10327C009A4208D22E4B9B6823F0F0027B689B6825
:10328C002B4913438B60294B1B6803F007033A68E7
:10329C009A4210D2254B1B6823F0070223493B6846
:1032AC0013430B60214B1B6803F007033A689A42E7
:1032BC0001D0012336E07B681B6803F00403002B6C
:1032CC0008D01B4B9B6823F4E0627B68DB681849D1
:1032DC0013438B607B681B6803F00803002B09D039
:1032EC00134B9B6823F460527B681B69DB0010490D
:1032FC0013438B6000F024F802460D4B9B681B09AE
:10330C0003F00F030B49CB5C03F01F0322FA03F30A
:10331C00094A1360094B1B681846FEF77FFB0346EE
:10332C00FB72FB7A18461037BD4680BD0020024068
:10333C0000100240405C000800F8002004F8002057
:10334C0080B489B000AF0023FB610023BB613E4B0E
:10335C009B6803F00C033B613B4BDB6803F00303FE
:10336C00FB603B69002B05D03B690C2B21D1FB6822
:10337C00012B1ED1344B1B6803F00803002B07D123
:10338C00314BD3F894301B0A03F00F03FB6105E0BB
:10339C002D4B1B681B0903F00F03FB612B4AFB69C8
:1033AC0052F82330FB613B69002B0DD1FB69BB61EB
:1033BC000AE03B69042B02D1254BBB6104E03B695D
:1033CC00082B01D1234BBB613B690C2B34D11E4B19
:1033DC00DB6803F00303BB60BB68022B03D0BB6844
:1033EC00032B03D005E01A4B7B6105E0194B7B6185
:1033FC0002E0FB697B6100BF134BDB681B0903F028
:10340C00070301337B60104BDB681B0A03F07F035F
:10341C007A6903FB02F27B68B2FBF3F37B610A4B24
:10342C00DB685B0E03F0030301335B003B607A69DE
:10343C003B68B2FBF3F3BB61BB6918462437BD464E
:10344C005DF8047B704700BF00100240585C000818
:10345C000024F40000127A0080B400AF034B1B6808
:10346C001846BD465DF8047B704700BF00F800208D
:10347C0080B500AFFFF7F0FF0246064B9B681B0AB6
:10348C0003F007030449CB5C03F01F0322FA03F398
:10349C00184680BD00100240505C000880B500AF9B
:1034AC00FFF7DAFF0246064B9B68DB0A03F00703C3
:1034BC000449CB5C03F01F0322FA03F3184680BDCA
:1034CC0000100240505C000880B586B000AF7860F8
:1034DC0000233B612A4B9B6D03F08053002B03D0E0
:1034EC00FFF71EF9786114E0254B9B6D244A43F0DD
:1034FC0080539365224B9B6D03F08053FB60FB68FC
:10350C00FFF70EF978611E4B9B6D1D4A23F080531B
:10351C0093657B69B3F5007F0BD17B68802B19D940
:10352C007B68A02B02D902233B6113E001233B6192
:10353C0010E07B68802B02D903233B610AE07B6897
:10354C00802B02D102233B6104E07B68702B01D1FC
:10355C0001233B610B4B1B6823F0070209493B69B4
:10356C0013430B60074B1B6803F007033A699A423D
:10357C0001D0012300E0002318461837BD4680BD5A
:10358C00001002400020024080B586B000AF786089
:10359C000023FB740023BB747B681B6803F400637B
:1035AC00002B31D07B68DB6BB3F5400F1AD0B3F531
:1035BC00400F14D8002B09D0B3F5000F0FD15D4B81
:1035CC00DB685C4A43F48033D3600CE07B680433E3
:1035DC000021184600F0CEF90346FB7403E00123EA
:1035EC00FB7400E000BFFB7C002B0BD1514BD3F8DC
:1035FC00883023F440027B68DB6B4E491343C1F8DF
:10360C00883001E0FB7CBB747B681B6803F40033DF
:10361C00002B00F09E8000237B74464B9B6D03F0C7
:10362C008053002B01D1012300E00023002B0DD08F
:10363C00404B9B6D3F4A43F0805393653D4B9B6DD4
:10364C0003F08053BB60BB6801237B743A4B1B684F
:10365C00394A43F480731360FEF730FAF86009E0DE
:10366C00FEF72CFA0246FB68D31A022B02D903236D
:10367C00FB7405E0304B1B6803F48073002BEFD018
:10368C00FB7C002B5AD12B4BD3F8903003F44073B6
:10369C007B617B69002B1ED07B681B6D7A699A421B
:1036AC0019D0244BD3F8903023F440737B61214B19
:1036BC00D3F890301F4A43F48033C2F890301D4B3E
:1036CC00D3F890301B4A23F48033C2F89030194A57
:1036DC007B69C2F890307B6903F00103002B16D094
:1036EC00FEF7ECF9F8600BE0FEF7E8F90246FB6830
:1036FC00D31A41F28832934202D90323FB7406E0B9
:10370C000C4BD3F8903003F00203002BECD0FB7C75
:10371C00002B0BD1074BD3F8903023F440727B680D
:10372C001B6D04491343C1F8903009E0FB7CBB745A
:10373C0006E000BF0010024000700040FB7CBB7430
:10374C007B7C012B05D18A4B9B6D894A23F08053DE
:10375C0093657B681B6803F00103002B0AD0844B34
:10376C00D3F8883023F003027B681B6A804913432B
:10377C00C1F888307B681B6803F00203002B0AD069
:10378C007B4BD3F8883023F00C027B685B6A78495A
:10379C001343C1F888307B681B6803F02003002BAF
:1037AC000AD0734BD3F8883023F440627B689B6A51
:1037BC006F491343C1F888307B681B6803F40073AE
:1037CC00002B0AD06A4BD3F8883023F440227B6854
:1037DC005B6B67491343C1F888307B681B6803F443
:1037EC008063002B0AD0624BD3F8883023F440124C
:1037FC007B689B6B5E491343C1F888307B681B6800
:10380C0003F04003002B0AD0594BD3F8883023F433
:10381C0040527B68DB6A56491343C1F888307B6899
:10382C001B6803F48073002B0AD0514BD3F88830FB
:10383C0023F440327B681B6B4D491343C1F888302D
:10384C007B681B6803F40053002B28D0484BD3F83B
:10385C00883023F040627B681B6C45491343C1F8E8
:10386C0088307B681B6CB3F1006F06D1404BDB6872
:10387C003F4A43F48013D36011E07B681B6CB3F1B7
:10388C00806F0CD17B6804330121184600F072F86C
:10389C000346FB74FB7C002B01D0FB7CBB747B6868
:1038AC001B6803F48023002B28D0314BD3F88830CD
:1038BC0023F040627B685B6C2D491343C1F8883060
:1038CC007B685B6CB3F1006F06D1294BDB68284A2F
:1038DC0043F48013D36011E07B685B6CB3F1806FB1
:1038EC000CD17B6804330121184600F043F80346E1
:1038FC00FB74FB7C002B01D0FB7CBB747B681B68CE
:10390C0003F48043002B1CD0194BD3F8883023F0E0
:10391C0040527B689B6C16491343C1F888307B6816
:10392C009B6CB3F1805F0CD17B6804330221184689
:10393C0000F020F80346FB74FB7C002B01D0FB7CD1
:10394C00BB747B681B6803F40043002B0AD0084B44
:10395C00D3F8883023F080427B68DB6C0449134336
:10396C00C1F88830BB7C18461837BD4680BD00BFF7
:10397C000010024080B584B000AF7860396000233D
:10398C00FB73744BDB6803F00303002B18D0714BF3
:10399C00DB6803F003027B681B689A420DD17B68DD
:1039AC001B68002B09D06B4BDB681B0903F007036A
:1039BC005A1C7B685B689A4247D00123FB7344E036
:1039CC007B681B68032B18D0032B25D8012B02D046
:1039DC00022B09D020E05F4B1B6803F00203002B85
:1039EC001DD10123FB731AE05A4B1B6803F480634F
:1039FC00002B16D10123FB7313E0564B1B6803F409
:103A0C000033002B0FD1534B1B6803F48023002B86
:103A1C0009D10123FB7306E00123FB7304E000BF13
:103A2C0002E000BF00E000BFFB7B002B0DD1494B37
:103A3C00DB6823F073027B6819687B685B68013B69
:103A4C001B010B4343491343CB60FB7B002B7CD105
:103A5C00404B1B683F4A23F080631360FEF72EF83F
:103A6C00B86009E0FEF72AF80246BB68D31A022BAD
:103A7C0002D90323FB7305E0364B1B6803F000638C
:103A8C00002BEFD1FB7B002B5FD13B68002B10D1BF
:103A9C00304B1B6923F0784323F4FE437A68926819
:103AAC0011027A68D268D2060A432A4913430B6181
:103ABC0027E03B68012B12D1264B1B6923F4C00372
:103ACC0023F4FE437A68926811027A6812695208EC
:103ADC00013A52050A431F4913430B6111E01D4B78
:103AEC001B6923F0C06323F4FE437A6892681102C9
:103AFC007A6852695208013A52060A43154913432F
:103B0C000B61144B1B68134A43F080631360FDF781
:103B1C00D5FFB86009E0FDF7D1FF0246BB68D31AA8
:103B2C00022B02D90323FB7305E00A4B1B6803F03D
:103B3C000063002BEFD0FB7B002B06D1054B1A69E1
:103B4C007B689B69034913430B61FB7B1846103759
:103B5C00BD4680BD0010024080B584B000AF7860D7
:103B6C007B68002B01D1012395E07B685B6A002BFD
:103B7C0008D17B685B68B3F5827F09D07B68002233
:103B8C00DA6105E07B6800221A617B6800225A61C9
:103B9C007B6800229A627B6893F85D30DBB2002B65
:103BAC0006D17B68002283F85C207868FDF77AFCEC
:103BBC007B68022283F85D207B681B681A687B682F
:103BCC001B6822F040021A607B68DB68B3F5E06F7B
:103BDC0002D90023FB6002E04FF48053FB607B684A
:103BEC00DB68B3F5706F07D07B68DB68B3F5E06F0B
:103BFC0002D07B6800229A627B685B6803F4827255
:103C0C007B689B6803F404431A437B681B6903F0CD
:103C1C0002031A437B685B6903F001031A437B6858
:103C2C009B6903F400731A437B68DB6903F0380368
:103C3C001A437B681B6A03F0800342EA03017B682A
:103C4C009B6A03F400527B681B680A431A607B680A
:103C5C009B691B0C03F004027B685B6A03F0100386
:103C6C001A437B685B6B03F008031A437B68DB68C1
:103C7C0003F4706342EA0301FB6803F480527B682F
:103C8C001B680A435A607B6800221A667B68012213
:103C9C0083F85D20002318461037BD4680BD80B5E3
:103CAC0088B000AFF860B9603B601346FB8000231E
:103CBC00FB77FB6893F85C30012B01D102235FE1A9
:103CCC00FB68012283F85C20FDF7F8FEB861FB88E5
:103CDC00FB82FB6893F85D30DBB2012B02D0022330
:103CEC00FB7748E1BB68002B02D0FB88002B02D18C
:103CFC000123FB773FE1FB68032283F85D20FB681F
:103D0C0000221A66FB68BA689A63FB68FA889A877D
:103D1C00FB68FA88DA87FB6800221A64FB680022C9
:103D2C00A3F84420FB680022A3F84620FB6800227D
:103D3C001A65FB680022DA64FB689B68B3F5004FD8
:103D4C000FD1FB681B681A68FB681B6822F04002E5
:103D5C001A60FB681B681A68FB681B6842F4804297
:103D6C001A60FB681B681B6803F04003402B07D0EC
:103D7C00FB681B681A68FB681B6842F040021A60FB
:103D8C00FB68DB68B3F5E06F4FD9FB685B68002B11
:103D9C0002D0FB8A012B42D1FB689B6B1A88FB6813
:103DAC001B68DA60FB689B6B9A1CFB689A63FB6868
:103DBC00DB8F9BB2013B9AB2FB68DA872FE0FB6882
:103DCC001B689B6803F00203022B12D1FB689B6BF0
:103DDC001A88FB681B68DA60FB689B6B9A1CFB6893
:103DEC009A63FB68DB8F9BB2013B9AB2FB68DA8764
:103DFC0015E0FDF763FE0246BB69D31A3A689A4296
:103E0C0003D83B68B3F1FF3F02D13B68002B06D1CE
:103E1C000323FB77FB68012283F85D20ABE0FB6892
:103E2C00DB8F9BB2002BCAD180E0FB685B68002B58
:103E3C0002D0FB8A012B74D1FB68DB8F9BB2012B68
:103E4C0012D9FB689B6B1A88FB681B68DA60FB68ED
:103E5C009B6B9A1CFB689A63FB68DB8F9BB2023BE3
:103E6C009AB2FB68DA875CE0FB689A6BFB681B68AC
:103E7C000C3312781A70FB689B6B5A1CFB689A63A4
:103E8C00FB68DB8F9BB2013B9AB2FB68DA8748E098
:103E9C00FB681B689B6803F00203022B2BD1FB68A9
:103EAC00DB8F9BB2012B12D9FB689B6B1A88FB68CA
:103EBC001B68DA60FB689B6B9A1CFB689A63FB6857
:103ECC00DB8F9BB2023B9AB2FB68DA8729E0FB6876
:103EDC009A6BFB681B680C3312781A70FB689B6B2F
:103EEC005A1CFB689A63FB68DB8F9BB2013B9AB24E
:103EFC00FB68DA8715E0FDF7E1FD0246BB69D31AD2
:103F0C003A689A4203D83B68B3F1FF3F02D13B6851
:103F1C00002B06D10323FB77FB68012283F85D207D
:103F2C0029E0FB68DB8F9BB2002BB1D1BA693968F1
:103F3C00F86800F0F9FC0346002B02D0FB68202245
:103F4C001A66FB689B68002B0AD100233B61FB6857
:103F5C001B68DB683B61FB681B689B683B613B69CA
:103F6C00FB681B6E002B02D00123FB7703E0FB6880
:103F7C00012283F85D20FB68002283F85C20FB7F24
:103F8C0018462037BD4680BD80B588B002AFF860BA
:103F9C00B9603B601346FB800023FB75FB6893F80C
:103FAC005D30DBB2012B02D00223FB751AE1FB68FA
:103FBC005B68B3F5827F12D1FB689B68002B0ED136
:103FCC00FB68042283F85D20FA883B680093134653
:103FDC00BA68B968F86800F00EF9034607E1FB68A7
:103FEC0093F85C30012B01D1022300E1FB68012224
:103FFC0083F85C20FDF762FD3861BB68002B02D0B2
:10400C00FB88002B02D10123FB75EBE0FB6804223B
:10401C0083F85D20FB6800221A66FB68BA681A6494
:10402C00FB68FA88A3F84420FB68FA88A3F84620BA
:10403C00FB6800229A63FB6800229A87FB680022C7
:10404C00DA87FB680022DA64FB6800221A65FB68D9
:10405C00DB68B3F5E06F08D9FB681B685A68FB682E
:10406C001B6822F480525A6007E0FB681B685A6890
:10407C00FB681B6842F480525A60FB689B68B3F57E
:10408C00004F0FD1FB681B681A68FB681B6822F095
:10409C0040021A60FB681B681A68FB681B6822F4F4
:1040AC0080421A60FB681B681B6803F04003402BBE
:1040BC0007D0FB681B681A68FB681B6842F040025B
:1040CC001A60FB68DB68B3F5E06F6FD834E0FB680F
:1040DC001B689B6803F00103012B17D1FB681B685D
:1040EC0003F10C02FB681B6C1278D2B21A70FB68DD
:1040FC001B6C5A1CFB681A64FB68B3F846309BB205
:10410C00013B9AB2FB68A3F8462015E0FDF7D6FCFC
:10411C0002463B69D31A3A689A4203D83B68B3F11A
:10412C00FF3F02D13B68002B06D10323FB75FB68D4
:10413C00012283F85D2055E0FB68B3F846309BB252
:10414C00002BC4D138E0FB681B689B6803F00103AB
:10415C00012B15D1FB681B68DA68FB681B6C92B2EB
:10416C001A80FB681B6C9A1CFB681A64FB68B3F81A
:10417C0046309BB2013B9AB2FB68A3F8462015E08F
:10418C00FDF79CFC02463B69D31A3A689A4203D865
:10419C003B68B3F1FF3F02D13B68002B06D10323F0
:1041AC00FB75FB68012283F85D201BE0FB68B3F80C
:1041BC0046309BB2002BC6D13A693968F86800F0DA
:1041CC005BFB0346002B02D0FB6820221A66FB68BF
:1041DC001B6E002B02D00123FB7503E0FB68012250
:1041EC0083F85D20FB68002283F85C20FB7D184679
:1041FC001837BD4680BD80B58AB000AFF860B96095
:10420C007A607B8001237B62002387F82330FB6874
:10421C0093F85C30012B01D102230AE2FB680122E6
:10422C0083F85C20FDF74AFCF861FB6893F85D307D
:10423C00FB76FB685B687B617B887B827B883B823F
:10424C00FB7E012B0ED07B69B3F5827F06D1FB6818
:10425C009B68002B02D1FB7E042B03D0022387F832
:10426C002330E0E1BB68002B05D07B68002B02D02B
:10427C007B88002B03D1012387F82330D3E1FB6823
:10428C0093F85D30DBB2042B03D0FB68052283F876
:10429C005D20FB6800221A66FB687A681A64FB686A
:1042AC007A88A3F84620FB687A88A3F84420FB6838
:1042BC00BA689A63FB687A88DA87FB687A889A8787
:1042CC00FB680022DA64FB6800221A65FB68DB6875
:1042DC00B3F5E06F02D83B8A012B08D9FB681B6849
:1042EC005A68FB681B6822F480525A6007E0FB682E
:1042FC001B685A68FB681B6842F480525A60FB6862
:10430C001B681B6803F04003402B07D0FB681B683D
:10431C001A68FB681B6842F040021A60FB68DB6895
:10432C00B3F5E06F40F28180FB685B68002B02D034
:10433C007B8A012B6DD1FB689B6B1A88FB681B6811
:10434C00DA60FB689B6B9A1CFB689A63FB68DB8FDB
:10435C009BB2013B9AB2FB68DA875AE0FB681B6898
:10436C009B6803F00203022B1BD1FB68DB8F9BB213
:10437C00002B16D07B6A012B13D1FB689B6B1A8820
:10438C00FB681B68DA60FB689B6B9A1CFB689A6382
:10439C00FB68DB8F9BB2013B9AB2FB68DA87002388
:1043AC007B62FB681B689B6803F00103012B1CD12B
:1043BC00FB68B3F846309BB2002B16D0FB681B6829
:1043CC00DA68FB681B6C92B21A80FB681B6C9A1C37
:1043DC00FB681A64FB68B3F846309BB2013B9AB297
:1043EC00FB68A3F8462001237B62FDF767FB0246BE
:1043FC00FB69D31A3A6B9A420BD83B6BB3F1FF3F74
:10440C0007D0032387F82330FB68012283F85D2053
:10441C0009E1FB68DB8F9BB2002B9FD1FB68B3F8E3
:10442C0046309BB2002B99D1E3E0FB685B68002B14
:10443C0003D07B8A012B40F0CF80FB68DB8F9BB2D3
:10444C00012B12D9FB689B6B1A88FB681B68DA601E
:10445C00FB689B6B9A1CFB689A63FB68DB8F9BB2B7
:10446C00023B9AB2FB68DA87B6E0FB689A6BFB6892
:10447C001B680C3312781A70FB689B6B5A1CFB6818
:10448C009A63FB68DB8F9BB2013B9AB2FB68DA87BD
:10449C00A2E0FB681B689B6803F00203022B34D17B
:1044AC00FB68DB8F9BB2002B2FD07B6A012B2CD1AE
:1044BC00FB68DB8F9BB2012B12D9FB689B6B1A88B4
:1044CC00FB681B68DA60FB689B6B9A1CFB689A6341
:1044DC00FB68DB8F9BB2023B9AB2FB68DA8712E077
:1044EC00FB689A6BFB681B680C3312781A70FB68BC
:1044FC009B6B5A1CFB689A63FB68DB8F9BB2013B7E
:10450C009AB2FB68DA8700237B62FB681B689B68A6
:10451C0003F00103012B48D1FB68B3F846309BB282
:10452C00002B42D0FB68B3F846309BB2012B23D949
:10453C00FB681B68DA68FB681B6C92B21A80FB681C
:10454C001B6C9A1CFB681A64FB68B3F846309BB270
:10455C00023B9AB2FB68A3F84620FB68B3F84630DE
:10456C009BB2012B1FD8FB681B685A68FB681B6841
:10457C0042F480525A6016E0FB681B6803F10C028F
:10458C00FB681B6C1278D2B21A70FB681B6C5A1C3D
:10459C00FB681A64FB68B3F846309BB2013B9AB2D5
:1045AC00FB68A3F8462001237B62FDF787FA0246DD
:1045BC00FB69D31A3A6B9A4203D83B6BB3F1FF3FBA
:1045CC0002D13B6B002B07D1032387F82330FB6808
:1045DC00012283F85D2026E0FB68DB8F9BB2002B69
:1045EC007FF457AFFB68B3F846309BB2002B7FF4D7
:1045FC0050AFFA69396BF86800F096F90346002B56
:10460C0005D0012387F82330FB6820221A66FB684B
:10461C001B6E002B03D0012387F8233003E0FB68CB
:10462C00012283F85D20FB68002283F85C2097F858
:10463C00233018462837BD4680BD000080B588B0B1
:10464C0000AFF860B9603B601346FB71FDF736FABA
:10465C000246BB6A9B1A3A681344FB61FDF72EFABB
:10466C00B861394B1B685B011B0DFA6902FB03F344
:10467C007B6154E03B68B3F1FF3F50D0FDF71EFA6D
:10468C000246BB69D31AFA699A4202D9FB69002B1C
:10469C003DD1FB681B685A68FB681B6822F0E0027E
:1046AC005A60FB685B68B3F5827F11D1FB689B682D
:1046BC00B3F5004F04D0FB689B68B3F5806F07D14E
:1046CC00FB681B681A68FB681B6822F040021A60C2
:1046DC00FB689B6AB3F5005F0FD1FB681B681A6817
:1046EC00FB681B6822F400521A60FB681B681A688E
:1046FC00FB681B6842F400521A60FB68012283F8C5
:10470C005D20FB68002283F85C20032317E07B69A3
:10471C00002B01D10023FB617B69013B7B61FB68B2
:10472C001B689A68BB681340BA689A420CBF012395
:10473C000023DBB21A46FB799A429BD10023184620
:10474C002037BD4680BD00BF00F8002080B58AB080
:10475C0000AFF860B9607A603B600023FB75FDF731
:10476C00ADF902463B6B9B1A3A6813447B62FDF72A
:10477C00A5F93862FB681B680C33FB613D4B1A686A
:10478C0013469B001344DA00D31A1B0D7A6A02FB02
:10479C0003F3BB6160E0BB68B3F5C06F07D17B6806
:1047AC00002B04D1FB691B78DBB2FB75FB7D3B68EE
:1047BC00B3F1FF3F50D0FDF781F902463B6AD31AA3
:1047CC007A6A9A4202D97B6A002B3DD1FB681B683E
:1047DC005A68FB681B6822F0E0025A60FB685B6851
:1047EC00B3F5827F11D1FB689B68B3F5004F04D001
:1047FC00FB689B68B3F5806F07D1FB681B681A6870
:10480C00FB681B6822F040021A60FB689B6AB3F5D8
:10481C00005F0FD1FB681B681A68FB681B6822F4E9
:10482C0000521A60FB681B681A68FB681B6842F42C
:10483C0000521A60FB68012283F85D20FB6800229D
:10484C0083F85C20032310E0BB69002B01D100230B
:10485C007B62BB69013BBB61FB681B689A68BB68E8
:10486C0013407A689A4296D1002318462837BD46E1
:10487C0080BD00BF00F8002080B586B002AFF860A4
:10488C00B9607A60FB685B68B3F5827F11D1FB6815
:10489C009B68B3F5004F04D0FB689B68B3F5806F41
:1048AC0007D1FB681B681A68FB681B6822F0400282
:1048BC001A607B680093BB6800228021F868FFF7C0
:1048CC00BDFE0346002B07D0FB681B6E43F0200295
:1048DC00FB681A66032323E0FB685B68B3F5827FF1
:1048EC001DD1FB689B68B3F5004F04D0FB689B6837
:1048FC00B3F5806F13D17B680093BB6800224FF433
:10490C00C061F868FFF722FF0346002B07D0FB6855
:10491C001B6E43F02002FB681A66032300E00023A1
:10492C0018461037BD4680BD80B586B002AFF86022
:10493C00B9607A607B680093BB6800224FF4C05169
:10494C00F868FFF703FF0346002B07D0FB681B6ECC
:10495C0043F02002FB681A66032327E07B68009370
:10496C00BB6800228021F868FFF768FE0346002B25
:10497C0007D0FB681B6E43F02002FB681A6603230A
:10498C0014E07B680093BB6800224FF4C061F868A8
:10499C00FFF7DCFE0346002B07D0FB681B6E43F0D1
:1049AC002002FB681A66032300E000231846103728
:1049BC00BD4680BD80B582B000AF78607B68002BAF
:1049CC0001D1012349E07B6893F83D30DBB2002B29
:1049DC0006D17B68002283F83C207868FCF78AFEBD
:1049EC007B68022283F83D207B681A687B6804335D
:1049FC001946104600F0EEF97B68012283F8482036
:104A0C007B68012283F83E207B68012283F83F20DB
:104A1C007B68012283F840207B68012283F84120C7
:104A2C007B68012283F842207B68012283F84320B3
:104A3C007B68012283F844207B68012283F845209F
:104A4C007B68012283F846207B68012283F847208B
:104A5C007B68012283F83D20002318460837BD46A9
:104A6C0080BD000080B485B000AF78607B6893F89F
:104A7C003D30DBB2012B01D001233BE07B680222ED
:104A8C0083F83D207B681B68DA687B681B6842F002
:104A9C000102DA607B681B68194A934209D07B6873
:104AAC001B68B3F1804F04D07B681B68154A934296
:104ABC0015D17B681B689A68134B1340FB60FB682D
:104ACC00062B15D0FB68B3F5803F11D07B681B68B3
:104ADC001A687B681B6842F001021A6008E07B6868
:104AEC001B681A687B681B6842F001021A6000E0C0
:104AFC0000BF002318461437BD465DF8047B704791
:104B0C00002C0140004001400700010080B483B03C
:104B1C0000AF78607B681B68DA687B681B6822F0E2
:104B2C000102DA607B681B681A6A41F211131340A8
:104B3C00002B0FD17B681B681A6A40F24443134068
:104B4C00002B07D17B681B681A687B681B6822F0F6
:104B5C0001021A607B68012283F83D20002318466D
:104B6C000C37BD465DF8047B704780B584B000AF50
:104B7C0078607B681B68DB68FB607B681B681B6963
:104B8C00BB60BB6803F00203002B20D0FB6803F072
:104B9C000203002B1BD07B681B686FF002021A61AA
:104BAC007B6801221A777B681B689B6903F00303FF
:104BBC00002B03D0786800F0EEF805E0786800F080
:104BCC00E0F8786800F0F1F87B6800221A77BB688F
:104BDC0003F00403002B20D0FB6803F00403002B2C
:104BEC001BD07B681B686FF004021A617B68022281
:104BFC001A777B681B689B6903F44073002B03D006
:104C0C00786800F0C8F805E0786800F0BAF87868C1
:104C1C0000F0CBF87B6800221A77BB6803F008031E
:104C2C00002B20D0FB6803F00803002B1BD07B6803
:104C3C001B686FF008021A617B6804221A777B6884
:104C4C001B68DB6903F00303002B03D0786800F0CA
:104C5C00A2F805E0786800F094F8786800F0A5F800
:104C6C007B6800221A77BB6803F01003002B20D05E
:104C7C00FB6803F01003002B1BD07B681B686FF0E4
:104C8C0010021A617B6808221A777B681B68DB6943
:104C9C0003F44073002B03D0786800F07CF805E037
:104CAC00786800F06EF8786800F07FF87B68002276
:104CBC001A77BB6803F00103002B0CD0FB6803F0E0
:104CCC000103002B07D07B681B686FF001021A618F
:104CDC00786800F04CF8BB6803F08003002B0CD014
:104CEC00FB6803F08003002B07D07B681B686FF018
:104CFC0080021A61786800F041F9BB6803F4807394
:104D0C00002B0CD0FB6803F08003002B07D07B68D2
:104D1C001B686FF480721A61786800F039F9BB680F
:104D2C0003F04003002B0CD0FB6803F04003002B76
:104D3C0007D07B681B686FF040021A61786800F03E
:104D4C003EF8BB6803F02003002B0CD0FB6803F08B
:104D5C002003002B07D07B681B686FF020021A61C0
:104D6C00786800F001F900BF1037BD4680BD80B4F3
:104D7C0083B000AF786000BF0C37BD465DF8047B94
:104D8C00704780B483B000AF786000BF0C37BD466D
:104D9C005DF8047B704780B483B000AF786000BFCF
:104DAC000C37BD465DF8047B704780B483B000AF10
:104DBC00786000BF0C37BD465DF8047B704780B44B
:104DCC0083B000AF786000BF0C37BD465DF8047B44
:104DDC007047000080B485B000AF786039607B68A4
:104DEC001B68FB607B682A4A934203D07B68B3F153
:104DFC00804F08D1FB6823F07003FB603B685B6855
:104E0C00FA681343FB607B68214A93420BD07B68A2
:104E1C00B3F1804F07D07B681E4A934203D07B6866
:104E2C001D4A934208D1FB6823F44073FB603B6836
:104E3C00DB68FA681343FB60FB6823F080023B6875
:104E4C005B691343FB607B68FA681A603B689A687D
:104E5C007B68DA623B681A687B689A627B680C4AEA
:104E6C00934207D07B680B4A934203D07B680A4A73
:104E7C00934203D13B681A697B681A637B680122F1
:104E8C005A6100BF1437BD465DF8047B704700BF04
:104E9C00002C0140004001400044014080B485B02A
:104EAC0000AF786039607B6893F83C30012B01D1FE
:104EBC0002234FE07B68012283F83C207B680222AE
:104ECC0083F83D207B681B685B68FB607B681B6814
:104EDC009B68BB607B681B68214A934208D1FB68C6
:104EEC0023F47003FB603B685B68FA681343FB6058
:104EFC00FB6823F07003FB603B681B68FA68134384
:104F0C00FB607B681B68FA685A607B681B68144AF4
:104F1C00934209D07B681B68B3F1804F04D07B6847
:104F2C001B68104A93420CD1BB6823F08003BB6012
:104F3C003B689B68BA681343BB607B681B68BA68A4
:104F4C009A607B68012283F83D207B68002283F8FD
:104F5C003C20002318461437BD465DF8047B70478F
:104F6C00002C01400040014080B483B000AF786059
:104F7C0000BF0C37BD465DF8047B704780B483B02E
:104F8C0000AF786000BF0C37BD465DF8047B7047FE
:104F9C0080B483B000AF786000BF0C37BD465DF8BD
:104FAC00047B704780B58AB002AFF860B9603B6093
:104FBC001346FB80FB68DB6F202B77D1BB68002B83
:104FCC0002D0FB88002B01D1012370E0FB6800228A
:104FDC00C3F88420FB682122DA67FCF76FFD786147
:104FEC00FB68FA88A3F85020FB68FA88A3F85220D3
:104FFC00FB689B68B3F5805F08D1FB681B69002BCD
:10500C0004D10023FB61BB68BB6103E0BB68FB619F
:10501C000023BB612FE03B6800937B690022802159
:10502C00F86800F087FC0346002B04D0FB682022B4
:10503C00DA6703233BE0FB69002B0BD1BB691A88B1
:10504C00FB681B68C2F3080292B21A85BB69023373
:10505C00BB6107E0FB691A78FB681B681A85FB6962
:10506C000133FB61FB68B3F852309BB2013B9AB23F
:10507C00FB68A3F85220FB68B3F852309BB2002BAC
:10508C00C9D13B6800937B6900224021F86800F08D
:10509C0051FC0346002B04D0FB682022DA67032363
:1050AC0005E0FB682022DA67002300E002231846A3
:1050BC002037BD4680BD80B58AB002AFF860B960BC
:1050CC003B601346FB80FB68D3F88030202B40F00C
:1050DC00B680BB68002B02D0FB88002B01D10123CA
:1050EC00AEE0FB680022C3F88420FB682222C3F8E0
:1050FC008020FB6800221A66FCF7E0FC7861FB68F4
:10510C00FA88A3F85820FB68FA88A3F85A20FB68A1
:10511C009B68B3F5805F0ED1FB681B69002B05D132
:10512C00FB6840F2FF12A3F85C202DE0FB68FF2225
:10513C00A3F85C2028E0FB689B68002B0DD1FB6872
:10514C001B69002B04D1FB68FF22A3F85C201BE039
:10515C00FB687F22A3F85C2016E0FB689B68B3F128
:10516C00805F0DD1FB681B69002B04D1FB687F228B
:10517C00A3F85C2008E0FB683F22A3F85C2003E066
:10518C00FB680022A3F85C20FB68B3F85C307B82E0
:10519C00FB689B68B3F5805F08D1FB681B69002B2B
:1051AC0004D10023FB61BB68BB6103E0BB68FB61FE
:1051BC000023BB6137E03B6800937B690022202110
:1051CC00F86800F0B7FB0346002B05D0FB682022E3
:1051DC00C3F88020032333E0FB69002B0CD1FB6860
:1051EC001B689B8C9AB27B8A13409AB2BB691A805B
:1051FC00BB690233BB610DE0FB681B689B8C9BB2E7
:10520C00DAB27B8ADBB21340DAB2FB691A70FB6943
:10521C000133FB61FB68B3F85A309BB2013B9AB285
:10522C00FB68A3F85A20FB68B3F85A309BB2002BEA
:10523C00C1D1FB682022C3F88020002300E00223A8
:10524C0018462037BD4680BD2DE9B04F8AB000AF5F
:10525C00F860002387F82230FB689A68FB681B69AA
:10526C001A43FB685B691A43FB68DB6913437B6277
:10527C00FB681B681A68B44B1340FA681268796AA9
:10528C000B431360FB681B685B6823F44051FB689D
:10529C00DA68FB681B680A435A60FB689B697B628F
:1052AC00FB681B68A94A934204D0FB681B6A7A6AA4
:1052BC0013437B62FB681B689B6823F43061FB68BB
:1052CC001B687A6A0A439A60FB681B68A04A93427F
:1052DC0026D1A04BD3F8883003F00303032B1BD843
:1052EC0001A252F823F000BF055300081553000823
:1052FC000D5300081D530008012387F8233080E06C
:10530C00022387F823307CE0042387F8233078E0ED
:10531C00082387F8233074E0102387F8233070E0DB
:10532C00FB681B688C4A934238D18A4BD3F888307F
:10533C0003F00C030C2B2DD801A252F823F000BF64
:10534C0081530008A1530008A1530008A153000881
:10535C0091530008A1530008A1530008A153000861
:10536C0089530008A1530008A1530008A153000859
:10537C0099530008002387F8233042E0022387F872
:10538C0023303EE0042387F823303AE0082387F8E3
:10539C00233036E0102387F8233032E0FB681B689B
:1053AC006A4A93422AD16B4BD3F8883003F440639A
:1053BC00B3F5406F1AD0B3F5406F1BD8B3F5006F3F
:1053CC000CD0B3F5006F15D8002B03D0B3F5806F5C
:1053DC0008D00FE0002387F8233012E0022387F86F
:1053EC0023300EE0042387F823300AE0082387F8E3
:1053FC00233006E0102387F8233002E0102387F8CF
:10540C002330FB681B68514A93427AD197F82330BA
:10541C00082B24D801A252F823F000BF4D540008E9
:10542C006B540008555400086B5400085B5400087A
:10543C006B5400086B5400086B540008635400084C
:10544C00FEF716F8F86110E0444BFB610DE0FDF738
:10545C0077FFF86109E04FF40043FB6105E000239E
:10546C00FB61012387F8223000BFFB69002B00F0A1
:10547C000781FB685A6813465B001344FA699A4229
:10548C0005D3FB685B681B03FA699A4203D90123B5
:10549C0087F82230F4E0FB6900221C4615464FF0D9
:1054AC0000024FF000032B0243EA14632202F96856
:1054BC004968490800208846814612EB080A43EBEC
:1054CC00090BFB685B6800223B607A60D7E900231C
:1054DC0050465946FAF774FE02460B461346BB611A
:1054EC00BB69B3F5407F08D3BB69B3F5801F04D209
:1054FC00FB681B68BA69DA60C2E0012387F82230C6
:10550C00BEE0FB68DB69B3F5004F6AD197F8233036
:10551C00082B34D801A252F823F000BF4D550008D7
:10552C006D550008755500088B5500087B55000813
:10553C008B5500088B5500088B55000883550008C7
:10554C00FDF796FFF86120E0F369FFEF0080004063
:10555C000038014000100240004400400024F400D8
:10556C00FDF79CFFF86110E04C4BFB610DE0FDF783
:10557C00E7FEF86109E04FF40043FB6105E000230E
:10558C00FB61012387F8223000BFFB69002B77D029
:10559C00FB695A00FB685B685B081A44FB685B6834
:1055AC00B2FBF3F3BB61BB690F2B16D9BB69B3F527
:1055BC00803F12D2BB699BB223F00F03FB82BB6905
:1055CC005B089BB203F007039AB2FB8A1343FB827E
:1055DC00FB681B68FA8ADA6052E0012387F82230F4
:1055EC004EE097F82330082B27D801A252F823F06D
:1055FC002156000829560008315600084756000865
:10560C00375600084756000847560008475600080A
:10561C003F560008FDF72CFFF86114E0FDF73EFF44
:10562C00F86110E01D4BFB610DE0FDF789FEF861A0
:10563C0009E04FF40043FB6105E00023FB6101230B
:10564C0087F8223000BFFB69002B19D0FB685B6820
:10565C005A08FB691A44FB685B68B2FBF3F3BB6145
:10566C00BB690F2B09D9BB69B3F5803F05D2BB6968
:10567C009AB2FB681B68DA6002E0012387F82230DB
:10568C00FB6800229A66FB680022DA6697F82230E3
:10569C0018462837BD46BDE8B08F00BF0024F40083
:1056AC0080B483B000AF78607B685B6A03F008035A
:1056BC00002B0AD07B681B685B6823F400417B6875
:1056CC005A6B7B681B680A435A607B685B6A03F001
:1056DC000103002B0AD07B681B685B6823F4003144
:1056EC007B689A6A7B681B680A435A607B685B6AB2
:1056FC0003F00203002B0AD07B681B685B6823F461
:10570C0080317B68DA6A7B681B680A435A607B6865
:10571C005B6A03F00403002B0AD07B681B685B6890
:10572C0023F480217B681A6B7B681B680A435A60E0
:10573C007B685B6A03F01003002B0AD07B681B6844
:10574C009B6823F480517B689A6B7B681B680A43C7
:10575C009A607B685B6A03F02003002B0AD07B689D
:10576C001B689B6823F400517B68DA6B7B681B68B1
:10577C000A439A607B685B6A03F04003002B1AD0E3
:10578C007B681B685B6823F480117B681A6C7B68F0
:10579C001B680A435A607B681B6CB3F5801F0AD1E7
:1057AC007B681B685B6823F4C0017B685A6C7B6860
:1057BC001B680A435A607B685B6A03F08003002B0A
:1057CC000AD07B681B685B6823F400217B689A6CA9
:1057DC007B681B680A435A6000BF0C37BD465DF8F6
:1057EC00047B704780B598B002AF78607B6800226C
:1057FC00C3F88420FCF762F978657B681B681B682A
:10580C0003F00803082B2ED16FF07E4300937B6DC1
:10581C0000224FF40011786800F08CF80346002B3E
:10582C0021D07B681B68BB63BB6B53E8003F7B6379
:10583C007B6B23F080033B657B681B681A463B6DD2
:10584C007B643A64396C7A6C41E80023FB63FB6B34
:10585C00002BE6D17B682022DA677B68002283F874
:10586C007820032362E07B681B681B6803F0040349
:10587C00042B49D16FF07E4300937B6D00224FF4D3
:10588C008001786800F056F80346002B3CD07B680A
:10589C001B687B627B6A53E8003F3B623B6A23F4E4
:1058AC009073FB647B681B681A46FB6C3B63FA6263
:1058BC00F96A3A6B41E80023BB62BB6A002BE6D164
:1058CC007B681B6808333B613B6953E8003FFB6016
:1058DC00FB6823F00103BB647B681B680833BA6C5C
:1058EC00FA61BB61B969FA6941E800237B617B69A4
:1058FC00002BE5D17B682022C3F880207B68002236
:10590C0083F87820032311E07B682022DA677B6818
:10591C002022C3F880207B6800221A667B68002254
:10592C005A667B68002283F8782000231846583783
:10593C00BD4680BD80B584B000AFF860B9603B60F7
:10594C001346FB7149E0BB69B3F1FF3F45D0FCF74F
:10595C00B5F802463B68D31ABA699A4202D3BB69BE
:10596C00002B01D1032348E0FB681B681B6803F084
:10597C000403002B31D0FB681B68DB6903F00803C0
:10598C00082B10D1FB681B6808221A62F86800F01B
:10599C0038F8FB680822C3F88420FB68002283F8DF
:1059AC007820012329E0FB681B68DB6903F40063A2
:1059BC00B3F5006F11D1FB681B684FF400621A62DB
:1059CC00F86800F01EF8FB682022C3F88420FB68FE
:1059DC00002283F8782003230FE0FB681B68DA6948
:1059EC00BB681340BA689A420CBF01230023DBB298
:1059FC001A46FB799A42A6D0002318461037BD46AA
:105A0C0080BD80B495B000AF78607B681B687B6309
:105A1C007B6B53E8003F3B633B6B23F49073FB645D
:105A2C007B681B681A46FB6C3B64FA63F96B3A6C37
:105A3C0041E80023BB63BB6B002BE6D17B681B6882
:105A4C0008333B623B6A53E8003FFB61FB6923F080
:105A5C000103BB647B681B680833BA6CFA62BB62D7
:105A6C00B96AFA6A41E800237B627B6A002BE5D1B4
:105A7C007B681B6E012B18D17B681B68FB60FB6875
:105A8C0053E8003FBB60BB6823F010037B647B686A
:105A9C001B681A467B6CBB617A617969BA6941E80B
:105AAC0000233B613B69002BE6D17B682022C3F8C5
:105ABC0080207B6800221A667B6800229A6600BFF1
:105ACC005437BD465DF8047B704780B586B000AF97
