:020000040800F2
:10000000000002207D150008091500080B150008E6
:100010000D1500080F15000811150008000000005C
:1000200000000000000000000000000013150008A0
:100030001515000800000000171500081915000824
:10004000CD150008CD150008CD150008CD15000808
:10005000CD150008CD150008CD150008CD150008F8
:10006000CD150008CD150008CD150008CD150008E8
:10007000CD150008CD150008CD150008CD150008D8
:10008000CD150008CD150008CD150008CD150008C8
:10009000CD150008CD150008CD150008CD150008B8
:1000A000CD150008CD150008CD150008CD150008A8
:1000B000CD150008CD150008CD150008CD15000898
:1000C000CD150008CD150008CD150008CD15000888
:1000D000CD150008CD150008CD150008CD15000878
:1000E000CD150008CD150008CD150008CD15000868
:1000F000CD150008CD150008CD150008CD15000858
:10010000CD150008CD150008CD150008CD15000847
:10011000CD150008CD150008CD150008CD15000837
:10012000CD150008CD150008CD150008CD15000827
:10013000CD1500080000000000000000CD150008EB
:10014000CD150008CD150008CD150008CD15000807
:10015000CD150008CD150008CD150008CD150008F7
:10016000CD150008CD150008CD150008CD150008E7
:10017000CD150008CD1500080000000000000000AB
:08018000CD150008CD150008A3
:1001900010B5054C237833B9044B13B10448AFF3C1
:1001A00000800123237010BD5C00002000000000CF
:1001B000E831000808B5034B1BB103490348AFF30E
:1001C000008008BD0000000060000020E831000849
:1001D000034613F8012B002AFBD1181A0138704787
:1001E00001F0FF01102A2BDB10F0070F08D010F8E8
:1001F000013B013A8B422DD010F0070F42B3F6D1EC
:10020000F0B441EA012141EA014122F007047FF004
:1002100000070023F0E80256083C85EA010586EA5B
:10022000010685FA47F5A3FA87F586FA47F6A5FA97
:1002300087F68EB9EED1F0BC01F0FF0102F00702A3
:1002400032B110F8013B013A83EA010313B1F8D14E
:100250000020704701387047002D06BF354603382F
:10026000073815F0010F07D1013015F4807F02BF68
:10027000013015F4C03F0130F0BC0138704700BFB9
:1002800053B94AB9002908BF00281CBF4FF0FF31FD
:100290004FF0FF3000F070B9ADF1080C6DE904CEFD
:1002A00000F006F8DDF804E0DDE9022304B0704751
:1002B0002DE9F047089E0D4604460F46002B4AD113
:1002C0008A42944665D9B2FA82F343B102FA03FC3A
:1002D000C3F120029F4020FA02F217439C404FEAEC
:1002E0001C4E1FFA8CF5B7FBFEF1220C0EFB1177AA
:1002F00042EA074201FB05F090420AD91CEB0202D8
:1003000001F1FF3780F01C81904240F219810239DF
:100310006244121AA4B2B2FBFEF00EFB102244EAB1
:10032000024400FB05F5A5420AD91CEB040400F1C8
:10033000FF3280F00781A54240F204816444023814
:1003400040EA0140641B00211EB1DC400023C6E9E5
:100350000043BDE8F0878B4208D9002E00F0ED8005
:100360000021C6E900050846BDE8F087B3FA83F12D
:10037000002949D1AB4202D3824200F2F880841AAC
:1003800065EB030201201746002EE2D0C6E90047C4
:10039000DFE702B9FFDEB2FA82F3002B40F0908073
:1003A0008A1A4FEA1C471FFA8CFE0121B2FBF7F5AF
:1003B00007FB1520220C42EA00420EFB05F090429A
:1003C00008D91CEB020205F1FF3802D2904200F27C
:1003D000CB804546121AA4B2B2FBF7F007FB1022FD
:1003E00044EA02440EFB00FEA64508D91CEB0404B7
:1003F00000F1FF3202D2A64500F2BB801046A4EB0A
:100400000E0440EA05409FE7C1F120078B4022FA25
:1004100007FC4CEA030C05FA01F420FA07F3FD404F
:100420004FEA1C492343B5FBF9F81FFA8CFE09FB80
:1004300018551C0C44EA054408FB0EF5A54202FAC7
:1004400001F200FA01F00BD91CEB040408F1FF3AA9
:1004500080F08880A54240F28580A8F102086444BB
:10046000641B9DB2B4FBF9F309FB134445EA044451
:1004700003FB0EFEA64508D91CEB040403F1FF356F
:100480006CD2A6456AD9023B644443EA0843A3FB05
:100490000295A4EB0E04AC42C846AE4656D353D0E8
:1004A00056B1B0EB080264EB0E0404FA07F7CA4039
:1004B000CC401743C6E9007418460021BDE8F08718
:1004C000C3F1200102FA03FC20FA01F225FA01F13E
:1004D0009D402A434FEA1C471FFA8CFEB1FBF7F000
:1004E00007FB1015110C41EA054100FB0EF58D428A
:1004F00004FA03F408D91CEB010100F1FF382FD2F4
:100500008D422DD902386144491B92B2B1FBF7F5F7
:1005100007FB151142EA014205FB0EF1914208D991
:100520001CEB020205F1FF3816D2914214D9023DAC
:100530006244521A45EA004138E73146304608E73E
:100540003946E6E61046FBE64845A9D2B9EB020873
:1005500065EB0C0E013BA3E74546EAE72B4694E723
:100560004046D1E7D0467BE7023D624432E7084689
:100570000AE76444023842E7704700BF0B23002BB0
:1005800008DB054A52F82320824201D9013BF6E7F5
:100590001846704700207047F033000800200DE037
:1005A0004B400132072A05D8590813F00103F7D050
:1005B000054BF5E7054A42F820300130FF2802D804
:1005C00003460022EEE770472083B8ED7800002054
:1005D00000224FF0FF3C8A4211D210B4835C83EAC0
:1005E0000C03DBB2074C54F8233083EA1C2C013295
:1005F0008A42F3D36FEA0C005DF8044B70476FEA50
:100600000C007047780000204FF0000C944510D289
:1006100010B411F80C304340DBB2064C54F82330D0
:1006200083EA10200CF1010C9445F2D35DF8044BE1
:10063000704770477800002003681A6812F0200F96
:1006400018D11A6812F0080F0BD11A6812F0020FB5
:1006500007D11A6812F0040F03D11A6812F0010FC3
:100660000CD082B01A6801925B680193019B002054
:1006700002B070475B680B70012070470020704724
:1006800084B00022009203681968009159680091B3
:10069000009901921968019159680191019902929A
:1006A0001968029159680291029903921A6803929B
:1006B0005B680393039B04B070472DE9F0411C462F
:1006C0000023237013700B70476A0FB9BDE8F081E7
:1006D0000E4615461F223946304602F0E1F84FF02B
:1006E000000886F81F801F2207F12001284602F02B
:1006F000D7F885F81F801F2207F14001204602F03D
:10070000CFF884F81F80E1E700B583B0AA238DF805
:10071000003000238DF80130134602B180238DF89C
:1007200002308DF8031003210DF10100FFF750FF97
:100730008DF80400030A8DF80530030C8DF806309F
:10074000000E8DF807004FF47A73082269460B48B3
:10075000006801F08AFF0A4B1B7863B9094B1868DF
:1007600048B1064B1B68984205D04FF47A730822B3
:10077000694601F07AFF03B05DF804FB88040020AD
:10078000800400207C040020B2F5806F1FD838B5AB
:1007900014461D46AA232B706A70C2F30623AB7061
:1007A000E87011B1281D02F0CFF8E11C681CFFF7BA
:1007B0000FFF231DE854020A631DEA54020CA31D17
:1007C000EA54000EE31DE85404F1080038BD00208F
:1007D000704700002DE9F04F83B00F4690461E464B
:1007E00000238DF8073000F055FF0546604B186870
:1007F000FFF746FF5F4B1B7843B95F4B186828B182
:100800005B4B1B68984201D0FFF73AFF00F042FFB4
:10081000401BB04236D20DF10701554C2068FFF75E
:100820000BFF18B19DF80730AA2B27D0514B1B782E
:10083000002BEBD1504B18680028E7D04C4B1B68BD
:100840009842E3D00DF10701FFF7F6FE0028DDD056
:100850009DF80730AA2BD9D1484B1C684449086839
:10086000474A15681D60444B1D680D601460186090
:10087000AA233B703F4B01221A7003E03B703D4BB3
:1008800001221A709DF80730AA2B05D04FF00308FB
:10089000404603B0BDE8F08F7E1C6423022231463F
:1008A0003348006801F04DFF05467C78BB781B0299
:1008B00003F4FE431C43B4F5806F4AD804F10803E7
:1008C000434502D94FF00108E2E764230122F91CF5
:1008D0002748006801F035FF81465CBB4FF0000BF4
:1008E00004F1040A6423042207EB0A01204800688B
:1008F00001F027FF80467DBBB9F1000F2FD1BBF17E
:10090000000F2FD188BB17F80A50631DFB5C45EA26
:100910000325A31DFB5C45EA0345E31DFB5C45EA9B
:100920000365E11C3046FFF753FE8542B0D04FF01F
:100930000108ADE7134AA2FB04325209642302FB0B
:1009400003332246391D0A48006801F0FAFE834647
:10095000C6E74FF001089BE74FF0010898E74FF01A
:10096000010895E74FF0010892E74FF001088FE783
:1009700084040020800400207804002088040020E3
:100980007C0400201F85EB51F0B583B007460E466E
:100990001546002400E00434AC4214D24FF0FF337B
:1009A00001932A1B042A28BF0422311901A801F04F
:1009B000CBFF019A0023E119022000F0B3FF0028C9
:1009C000E9D0012000E0002003B0F0BD08B5FFF73A
:1009D000DBFF08BD2DE9F04186B005468846174685
:1009E0001E4600F04DFF00240194029403940494E9
:1009F000059402230593AB6A0393012304930094A7
:100A0000694601A801F034F818B9009BB3F1FF3F23
:100A100006D000F04DFF0124204606B0BDE8F0816D
:100A20006D6A202241462846FFF7D0FF0446202267
:100A30003946A818FFF7CAFF0443E4B22022314622
:100A400005F14000FFF7C2FF0443E4B200F030FFBD
:100A5000E2E7000038B50C460846FFF7B9FB4FF453
:100A60007A7382B221460C48006801F0FEFD0B4B00
:100A70001B7883B90A4B1D686DB1074B1B689D42FB
:100A800009D02046FFF7A4FB4FF47A7382B22146C7
:100A9000284601F0EAFD38BD8804002080040020CB
:100AA0007C04002038B504460A49FFF7D3FF2469C7
:100AB0002368B3F1FF3F00D1FEE7656801F03EFC1B
:100AC00000F086FD044B9C60236883F30888A847E8
:100AD000F2E700BF3032000800ED00E018B3034633
:100AE000026812B3416811B310B512480260124A8D
:100AF00011609968114A1160DA68114B1A6000247C
:100B0000104B1C70FFF74AFD0F4AD2F8FC3043F03F
:100B10008073C2F8FC30A2F55D42136843F0010314
:100B20001360204610BD012070470120704701204E
:100B3000704700BF88040020840400207C0400204B
:100B4000780400208004002000ED00E02DE9F04F43
:100B5000ADF6BC0D0446C449FFF77CFF0023CDF879
:100B60009838CDF89C38CDF8A038CDF8A438CDF819
:100B7000A838CDF8AC38CDF8B038CDF8B438CDF8C9
:100B80007838CDF87C38CDF88038CDF88438CDF879
:100B90008838CDF88C38CDF89038CDF89438CDF829
:100BA0005838CDF85C38CDF86038CDF86438CDF8D9
:100BB0006838CDF86C38CDF87038CDF87438636A81
:100BC000002B00F0E4800DF658030DF678020DF6C8
:100BD00098012046FFF771FD9DF89838013BDBB284
:100BE000FD2B00F2AE8000229DF87838013BDBB28D
:100BF000FD2B00F2AF809DF85838013BDBB2FD2B96
:100C000000F2B3807AB10DF658030DF678020DF6B6
:100C100098012046FFF7DEFE002840F0AD809349A2
:100C20002046FFF717FF9DF89838002B00F0A980A9
:100C30000DF698039DF87828002A00F0A4800DF6A0
:100C400078019DF85828002A00F09F800DF6580280
:100C500001920091864AB42112A801F0E5FD12A983
:100C60002046FFF7F7FE41F288334FF481620DF51D
:100C70008A612046FFF7AEFD002836D19DF8536407
:100C80009DF851549DF852341B0203F4FE431D435A
:100C9000052E40F01B812B1F9BB27C2B7CD901259C
:100CA0002A4631462046FFF72FFD9DF89838002B45
:100CB00000F006810DF698039DF87828002A00F0D0
:100CC00001810DF678029DF85818002900F0FC808B
:100CD0000DF6580101910092664AB42112A801F064
:100CE000A3FD12A92046FFF7B5FE0DF5896300228A
:100CF000114694F82000FFF747FD4FF47A7308225D
:100D00000DF589615C48006801F0AFFCA3694FF400
:100D100081620DF58A612046FFF75CFD70B99DF890
:100D200053149DF851249DF852341B0203F4FE43E2
:100D30001A4394F820308B4200F0CE802046FFF713
:100D4000B1FE4E4B93E80300CDF898088DF89C183F
:100D5000012249E74A4A0DF6780307CA03C323F87C
:100D6000022B120C1A70012245E70DF65803454A72
:100D700007CA83E8070046E743492046FFF76AFEB3
:100D800051E7424B56E741495BE7404A60E740493B
:100D90002046FFF75FFE66E7002302930393049368
:100DA000059306930793089309930A930B930C9367
:100DB0000D930E930F931093119312931393149317
:100DC0001593169317931893199329460DF25440CF
:100DD00001F079FD80461F220DF2544102A801F076
:100DE0005FFD08F101030DF25442D718A5EB080589
:100DF000013D15D12DBB9DF8083043B39DF8283037
:100E00005BB39DF84830002B44D012AB0AAA02A96C
:100E10002046FFF7DFFD0546002841D001253FE7CA
:100E20002946384601F04FFD80461F2239460AA860
:100E300001F036FD08F101031F44A5EB0805013D53
:100E4000D8E71F22394612A801F02AFDD3E70DF694
:100E5000980102A801F070FDD0E70DF678010AA80C
:100E600001F06AFDCDE700BF48320008803200087B
:100E7000CC320008143300088804002060320008D7
:100E80006832000874320008A832000844320008B2
:100E9000F03200080DF6580112A801F04DFDB4E73C
:100EA00002A90DF6980001F047FD0AA90DF6780099
:100EB00001F042FD12A90DF6580001F03DFDEFE6EC
:100EC000AF4BF9E6AE4AFEE6AD4903E701223146F3
:100ED0002046FFF719FC08E7002A7FF42FAF00F047
:100EE000CFFC20B94FF00008464647460CE0A54924
:100EF0002046FFF7AFFDFEE7B9F1080F2FD02A46D5
:100F000029462046FFF700FCE3694FF481620DF5A6
:100F10008A612046FFF75EFC002840F074819DF84E
:100F200053549DF851949DF852341B0203F4FE4330
:100F300049EA0309012DDFD0032D6DD0052D00F006
:100F4000858094F82030AB4203D1B9F1000F00F056
:100F50000B81012229462046FFF7D6FBD4E79DF8F6
:100F600054749DF8553447EA03279DF8563447EAF0
:100F700003479DF8573447EA03679DF858649DF886
:100F8000593446EA03269DF85A3446EA03469DF84A
:100F90005B3446EA0366B7F1006F01D207F10067E0
:100FA0003846FFF7EBFA0346002204E0764951F891
:100FB00023100A440133B24201D20B2BF6D9013B74
:100FC000012804D9A16A994201D9B24206D26F49D7
:100FD0002046FFF73FFD2A46B04691E700221292D5
:100FE00013921492159216920221169114901B1AC4
:100FF000013315930A920AA912A800F039FD02469E
:1010000018B90A9BB3F1FF3F04D061492046FFF7AE
:1010100021FD2A46B04673E7B14505D9012229468C
:101020002046FFF771FB6FE74A460DF25441384600
:10103000FFF7AAFC024618B94F44A6EB0906EEE7F3
:1010400054492046FFF706FD0122E8E7A9F1040311
:101050009BB27C2B07D94FF001094A46294620460E
:10106000FFF752FB50E70023029303930493059389
:1010700006930793089309930A930B930C930D938C
:101080000E930F931093119312931393149315933C
:10109000169317931893199349460DF2544001F093
:1010A00012FC82461F220DF2544102A801F0F8FB07
:1010B0000AF101030DF2544202EB030BA9EB0A0AF9
:1010C000BAF1010A16D1BAF1000F25D19DF8083006
:1010D00043B39DF828305BB39DF8483073B312AB2F
:1010E0000AAA02A92046FFF775FC814660B34FF0BB
:1010F0000109B2E75146584601F0E5FB81461F223F
:1011000059460AA801F0CCFB09F101039B44AAEB64
:10111000090909F1FF3AD6E71F22594612A801F042
:10112000BFFBD3E70DF6980102A801F005FCD0E75C
:101130000DF678010AA801F0FFFBCDE70DF6580186
:1011400012A801F0F9FBCAE702A90DF6980001F018
:10115000F3FB0AA90DF6780001F0EEFB12A90DF6DB
:10116000580001F0E9FB78E7B8F1040F31D9A8F194
:101170000408D4F810A000264FF0FF3921E000BF8A
:101180004432000844330008C03300085C330008D0
:101190007833000888330008A8EB0607B7F5806F9E
:1011A00028BF4FF480673A4606EB0A0112A801F007
:1011B000CBFB3A4612A94846FFF726FA814606F5C8
:1011C00080664645E8D36FEA090958F80A30994520
:1011D0000DD1002229462046FFF796FA0C492046F9
:1011E000FFF738FC00F064FB2046FFF75BFC094981
:1011F0002046FFF72FFC012229462046FFF784FAFC
:1012000000F056FBFEE700F053FB2046FFF74AFCD8
:10121000AC3300089833000882B0002100910B4BDA
:101220001A6B42F004021A631A6B02F00402009275
:10123000009A01911A6B42F001021A631B6B03F0D2
:1012400001030193019B02B0704700BF00380240C8
:1012500072B6FEE708B50A480A4B03604FF4E13363
:10126000436000238360C3600361042242618361A1
:10127000C36101F0CBF900B908BDFFF7E9FF00BF7A
:10128000D0040020004C004008B50A480A4B036017
:101290004FF4E133436000238360C360036108229D
:1012A00042618361C36101F0B1F900B908BDFFF784
:1012B000CFFF00BF140500200050004008B50A48C9
:1012C0000A4B03604FF4E133436000238360C36043
:1012D00003610C2242618361C36101F097F900B997
:1012E00008BDFFF7B5FF00BF8C040020004400409C
:1012F00000B595B03022002108A801F0C9FA0023FA
:10130000039304930593069307930193184A116C72
:1013100041F080511164126C02F080520192019AE6
:101320000293144A116841F480411160126802F47A
:1013300080420292029A0222089201220B9210220B
:101340000C920E9308A800F0D3FC68B90F23039306
:101350000021049105910691079103A800F018FF60
:1013600020B915B05DF804FBFFF772FFFFF770FFBF
:10137000003802400070004000B58DB000F064F904
:10138000FFF7B6FFFFF748FFFFF764FFFFF77CFFAB
:10139000FFF794FFEC460A4C0FCCACE80F000FCCE3
:1013A000ACE80F0094E80F008CE80F006846FFF7E8
:1013B00095FB08B1FFF74CFF6846FFF7C7FBFEE758
:1013C0000032000882B0002100910B4B5A6C42F4AD
:1013D00080425A645A6C02F480420092009A019151
:1013E0001A6C42F080521A641B6C03F08053019314
:1013F000019B02B0704700BF0038024000B58DB0BD
:1014000000230793089309930A930B930368384AC0
:10141000934208D0374A934226D0374A934245D068
:101420000DB05DF804FB00210191344B1A6C42F4BD
:1014300000321A641A6C02F400320192019A02918D
:101440001A6B42F001021A631B6B03F00103029353
:10145000029B0C2307930223089307230B9307A9EE
:10146000274800F04FFBDBE700210391234B1A6C68
:1014700042F400221A641A6C02F400220392039AC6
:1014800004911A6B42F004021A631B6B03F004030D
:101490000493049B4FF400630793022308930823EB
:1014A0000B9307A9174800F02DFBB9E70021059120
:1014B000124B1A6C42F480121A641A6C02F48012F5
:1014C0000592059A06911A6B42F004021A631B6B8F
:1014D00003F004030693069B4FF480530793022303
:1014E000089308230B9307A9064800F00BFB97E726
:1014F00000440040004C00400050004000380240D2
:101500000000024000080240FEE7FEE7FEE7FEE7BB
:10151000FEE770477047704708B500F0AFF808BDA8
:1015200010B503460C4A0D490D48006840B10C48FF
:1015300000680344521A934206D8094A136010BD4A
:101540000748084C0460F2E701F0CAF90C23036075
:101550004FF0FF30F3E700BF00000220000400005E
:1015600058050020C8060020034AD2F8883043F40A
:101570007003C2F88830704700ED00E0DFF834D027
:101580000D480E490E4A002302E0D458C4500433DB
:10159000C4188C42F9D30B4A0B4C002301E01360B2
:1015A0000432A242FBD3FFF7DFFF01F09FF9FFF700
:1015B000E3FE704700000220000000205C000020D5
:1015C0007C3400085C000020C8060020FEE770475D
:1015D00010B5094B4FF0FF321A6200241C625A62A8
:1015E0005C621A611C615A615C619A619C61FFF7DF
:1015F000EEFF204610BD00BF0038024010B5044683
:101600000E4B1A784FF47A73B3FBF2F30C4A10685E
:10161000B0FBF3F000F08EF868B90F2C01D901206F
:101620000AE0002221464FF0FF3000F04BF8054B56
:101630001C60002000E0012010BD00BF040000205D
:10164000000000200800002008B50B4B1A6842F487
:1016500000721A601A6842F480621A601A6842F4D2
:1016600080721A60032000F01BF80F20FFF7C6FFFE
:10167000FFF7A8FE002008BD003C0240034A1168A5
:10168000034B1B780B441360704700BF5C050020C0
:1016900004000020014B1868704700BF5C05002063
:1016A000074AD36823F4E0631B041B0C000200F418
:1016B000E060034343F0BF6343F40033D3607047FB
:1016C00000ED00E000B5194BDB68C3F30223C3F162
:1016D000070CBCF1040F28BF4FF0040C03F1040EFB
:1016E000BEF1060F18D9033B4FF0FF3E0EFA0CFC7B
:1016F00021EA0C0199400EFA03FE22EA0E020A4387
:1017000000280BDB1201D2B200F1604000F561400D
:1017100080F800235DF804FB0023E5E700F00F00EC
:101720001201D2B2024B1A54F4E700BF00ED00E000
:1017300014ED00E00138B0F1807F0BD24FF0E023D0
:101740005861054AF02182F8231000209861072291
:101750001A6170470120704700ED00E010B40A499B
:101760000C6924F440740C610C6944F440740C61FD
:101770000C6944F001040C610260BFF36F8F436099
:101780005DF8044B704700BF003C0240074B1A69EC
:1017900022F440721A611A6942F400721A611A69DD
:1017A00042F001021A610160704700BF003C024034
:1017B000074B1A6922F440721A611A6942F4807266
:1017C0001A611A6942F001021A610180704700BF74
:1017D000003C0240064B1A6922F440721A611A69F1
:1017E0001A611A6942F001021A610170704700BF64
:1017F000003C0240204BDB6813F0100F07D01F4A5B
:10180000D36943F01003D3611B4B1022DA601A4BEB
:10181000DB6813F0200F07D0184AD36943F00803A0
:10182000D361154B2022DA60134BDB6813F0400FB5
:1018300007D0124AD36943F00403D3610E4B402210
:10184000DA600D4BDB6813F0800F07D00B4AD369C9
:1018500043F00203D361084B8022DA60064BDB6859
:1018600013F0020F07D0054AD36943F02003D36178
:10187000014B0222DA607047003C02406005002004
:10188000094B1B69002B01DB00207047064B074A00
:101890005A6002F188325A601B69002B01DB00207C
:1018A00070470120704700BF003C0240230167459C
:1018B000034A136943F0004313610020704700BFDF
:1018C000003C024038B50446144B0022DA61FFF7B1
:1018D000E1FE0546124BDB6813F4803F0AD0B4F1F9
:1018E000FF3FF7D024B1FFF7D5FE401BA042F1D94E
:1018F00003200DE00A4BDB6813F0010F02D0084B08
:101900000122DA60064BDB6813F0F20F01D10020F0
:1019100038BDFFF76FFF0120FAE700BF6005002028
:10192000003C0240F8B516461B4A127E012A30D010
:1019300004460D461F46184B01221A764CF25030D1
:10194000FFF7C0FF90B9ACB1012C18D0022C1BD00E
:1019500032463B462846FFF701FF4CF25030FFF776
:10196000B1FF0E4A136923F0010313610A4B0022F1
:101970001A76F8BDF1B22846FFF72CFFEDE7B1B2B9
:101980002846FFF715FFE8E731462846FFF7FEFE39
:10199000E3E70220EDE700BF60050020003C0240C5
:1019A000074B1A6922F440721A611A6942F0040264
:1019B0001A611A6942EA002242F480321A617047C1
:1019C000003C024001291BD002291CD009B14FF470
:1019D00040710E4B1A6922F440721A611A690A4367
:1019E0001A611A6922F0F8021A611A6942EAC00003
:1019F00040F0020018611A6942F480321A6170479F
:101A00004FF48071E5E74FF40071E2E7003C0240DB
:101A1000164B1B6813F4007F10D0144B1A6822F485
:101A200000721A601A6842F400621A601A6822F49E
:101A300000621A601A6842F400721A600B4B1B684D
:101A400013F4806F10D0094B1A6822F480621A6078
:101A50001A6842F480521A601A6822F480521A609E
:101A60001A6842F480621A60704700BF003C02406E
:101A7000F8B5224B1B7E012B3ED004460E461F4B71
:101A800001221A764CF25030FFF71CFF074670BB5C
:101A90004FF0FF3333602368012B16D0A568E3684D
:101AA000A2681344AB4220D9217C2846FFF78AFF65
:101AB0004CF25030FFF706FF114A136923F0FA0386
:101AC0001361074680B90135E9E76168207CFFF7BB
:101AD00067FF4CF25030FFF7F5FE0746084A1369DE
:101AE00023F00403136100E03560FFF791FF034B1F
:101AF00000221A763846F8BD0227FBE76005002071
:101B0000003C024000230F2B00F2E98070B582B048
:101B100065E085684FEA430E032404FA0EF425EAD3
:101B20000405CC6804FA0EF42C438460446824EA6B
:101B300002044A68C2F300129A40224342605CE009
:101B4000DC08083450F8242003F00705AD004FF0FE
:101B50000F0E0EFA05FE22EA0E0E0A69AA4042EAAC
:101B60000E0240F824205CE0072200E0002202FA86
:101B70000EF22A4302345A4D45F82420594A9468FB
:101B80006FEA0C0224EA0C054E6816F4801F01D09F
:101B90004CEA0405534CA560E46802EA04054E686B
:101BA00016F4001F01D04CEA04054E4CE560646851
:101BB00002EA04054E6816F4003F01D04CEA040521
:101BC000484C6560246822404D6815F4803F01D080
:101BD0004CEA0402434C226001330F2B7DD80122D2
:101BE0009A400C6804EA020C32EA0404F4D14C680E
:101BF00004F00304013C012C8BD94A6802F0030273
:101C0000032A09D0C4685D000322AA4024EA020422
:101C10008A68AA402243C2604A6802F00302022A8C
:101C20008ED004684FEA430E032202FA0EF224EA31
:101C300002044A6802F0030202FA0EF22243026032
:101C40004A6812F4403FC7D000220192264A546CE1
:101C500044F480445464526C02F480420192019A2C
:101C60009C08A51C1E4A52F8255003F0030E4FEAAB
:101C70008E0E0F2202FA0EF225EA02051B4A90424E
:101C80003FF474AF02F5806290421AD002F5806290
:101C9000904218D002F58062904216D002F5806220
:101CA000904214D002F58062904212D002F5806218
:101CB000904210D002F5806290423FF455AF082266
:101CC00055E7012253E7022251E703224FE704229E
:101CD0004DE705224BE7062249E702B070BD704789
:101CE00000380140003C0140003802400000024042
:101CF000002800F0E08170B582B00446036813F05C
:101D0000010F3BD09F4B9B6803F00C03042B2CD09E
:101D10009C4B9B6803F00C03082B21D06368B3F540
:101D2000803F4FD0B3F5A02F52D0964B1A6822F4C3
:101D300080321A601A6822F480221A606368002BCD
:101D400050D0FFF7A7FC05468E4B1B6813F4003FED
:101D500014D1FFF79FFC401B6428F5D90320B1E1A3
:101D6000884B5B6813F4800FD8D0864B1B6813F444
:101D7000003F03D06368002B00F09F81236813F0BD
:101D8000020F54D07F4B9B6813F00C0F3ED07D4B5D
:101D90009B6803F00C03082B33D0E368002B68D05A
:101DA000794B01221A60FFF775FC0546754B1B68DD
:101DB00013F0020F54D1FFF76DFC401B0228F5D938
:101DC00003207FE16F4A136843F480331360B5E763
:101DD0006C4B1A6842F480221A601A6842F480320E
:101DE0001A60ABE7FFF756FC0546664B1B6813F419
:101DF000003FC3D0FFF74EFC401B6428F5D90320F9
:101E000060E1604B5B6813F4800FC6D15D4B1B68CB
:101E100013F0020F03D0E368012B40F05081594AC0
:101E2000136823F0F803216943EAC10313602368B0
:101E300013F0080F42D063696BB3534B0122C3F810
:101E4000802EFFF727FC05464E4B5B6F13F0020F09
:101E500034D1FFF71FFC401B0228F5D9032031E1E4
:101E6000484A136823F0F803216943EAC103136069
:101E7000DDE7454B00221A60FFF70CFC0546414B9D
:101E80001B6813F0020FD2D0FFF704FC401B02289E
:101E9000F5D9032016E13C4B0022C3F8802EFFF752
:101EA000F9FB0546374B5B6F13F0020F06D0FFF7C7
:101EB000F1FB401B0228F5D9032003E1236813F04E
:101EC000040F77D02F4B1B6C13F0805F33D10023AE
:101ED00001932C4B1A6C42F080521A641B6C03F075
:101EE00080530193019B0125284B1B6813F4807FCD
:101EF00023D0A368012B34D0052B38D0214B1A6F87
:101F000022F001021A671A6F22F004021A67A3680E
:101F1000002B3DD0FFF7BEFB06461A4B1B6F13F09C
:101F2000020F46D1FFF7B6FB801B41F2883398427F
:101F3000F3D90320C6E00025D6E7144A136843F41A
:101F400080731360FFF7A6FB0646104B1B6813F463
:101F5000807FCED1FFF79EFB801B0228F5D903209E
:101F6000B0E0084A136F43F001031367CFE7054B56
:101F70001A6F42F004021A671A6F42F001021A67E0
:101F8000C5E700BF00380240000047420070004033
:101F9000FFF780FB0646524B1B6F13F0020F08D071
:101FA000FFF778FB801B41F288339842F3D9032076
:101FB00088E0EDB9A369002B00F08380484A92685D
:101FC00002F00C02082A51D0022B17D0454B0022F8
:101FD0001A66FFF75FFB0446414B1B6813F0007F56
:101FE00042D0FFF757FB001B0228F5D9032069E018
:101FF0003B4A136C23F080531364DBE7394B002218
:102000001A66FFF747FB0546354B1B6813F0007F48
:1020100006D0FFF73FFB401B0228F5D9032051E013
:10202000E369226A1343626A43EA8213A26A52088E
:10203000013A43EA0243E26A43EA0263284A5360F0
:10204000284B01221A66FFF725FB0446244B1B6828
:1020500013F0007F06D1FFF71DFB001B0228F5D906
:1020600003202FE000202DE000202BE0012B2BD0BF
:102070001B4B5B6803F48001E269914226D103F0B7
:102080003F02216A8A4223D1616A47F6C0721A4030
:10209000B2EB811F1ED103F44031A26A5208013A0B
:1020A000B1EB024F18D103F07063E26AB3EB026F39
:1020B00014D1002006E001207047012002E0012039
:1020C00000E0002002B070BD0120FBE70120F9E72D
:1020D0000120F7E70120F5E70120F3E70120F1E710
:1020E000003802400000474208B5264B9B6803F0C9
:1020F0000C03042B41D0082B41D1224B5A6802F02B
:102100003F025B6813F4800F12D01E4B5968C1F375
:1021100088111D480023A1FB0001FEF7B1F8194BFF
:102120005B68C3F3014301335B00B0FBF3F027E0CE
:10213000144B5868C0F388104FEA401CBCEB000CED
:102140006EEB0E0E4FEA8E1343EA9C634FEA8C113E
:10215000B1EB0C0163EB0E03DB0043EA5173C900E2
:1021600011EB000C43F10003990200234FEA8C208D
:1021700041EA9C51FEF784F8D1E7034800E00348A8
:1021800008BD00BF0038024040787D010024F40003
:10219000002800F09B8070B50D4604464F4B1B682D
:1021A00003F007038B4208D2CBB24C4A137013687A
:1021B00003F007038B4240F08B80236813F0020F7B
:1021C00017D013F0040F04D0454A936843F4E0534A
:1021D0009360236813F0080F04D0414A936843F4D6
:1021E000604393603E4A936823F0F003A1680B4379
:1021F0009360236813F0010F32D06368012B21D064
:102200009A1E012A25D9364A126812F0020F61D0AF
:1022100033498A6822F0030213438B60FFF73AFACE
:1022200006462F4B9B6803F00C036268B3EB820FEA
:1022300016D0FFF72FFA801B41F288339842F0D96D
:10224000032042E0264A126812F4003FE0D1012048
:102250003BE0234A126812F0007FD9D1012034E01C
:102260001E4B1B6803F00703AB4207D9EAB21B4BB6
:102270001A701B6803F00703AB422DD1236813F0DB
:10228000040F06D0164A936823F4E053E1680B4329
:102290009360236813F0080F07D0114A936823F462
:1022A0006043216943EAC1039360FFF71DFF0C4BB4
:1022B0009B68C3F303130B4AD35CD8400A4B1860E6
:1022C0000A4B1868FFF79AF9002070BD012070478B
:1022D0000120FAE70120F8E70120F6E7003C024080
:1022E00000380240203400080000002008000020D0
:1022F000014B1868704700BF0000002008B5FFF7C9
:10230000F7FF044B9B68C3F38223034AD35CD84096
:1023100008BD00BF003802403034000808B5FFF7A0
:10232000E7FF044B9B68C3F34233034AD35CD840B6
:1023300008BD00BF003802403034000838B5FFF750
:10234000A9F90446464A136843F001031360444B5D
:102350001B6813F0020F06D1FFF79CF9001B02283F
:10236000F5D9032038BD3E4D2B6843F080032B6028
:10237000FFF790F904460023AB60394B9B6813F0DC
:102380000C0F08D0FFF786F9001B41F28833984202
:10239000F3D90320E6E7FFF77DF90446304A1368D6
:1023A00023F4502313602E4B1B6813F4003F06D018
:1023B000FFF770F9001B6428F5D90320D2E7FFF777
:1023C00069F90446264A136823F080731360244B8E
:1023D0001B6813F0007F06D0FFF75CF9001B022892
:1023E000F5D90320BEE7FFF755F904461C4A1368E8
:1023F00023F0806313601A4B1B6813F0006F06D044
:10240000FFF748F9001B0228F5D90320AAE7144B6F
:10241000144A5A60144AC3F88420DA6822F4F85245
:10242000DA60DA6822F40052DA60DA6842F41F02F5
:10243000DA60DA6842F40012DA605A6F22F00102C0
:102440005A675A6F42F080725A67084B084A1A60FE
:10245000084B1868FFF7D2F8002883D0012081E7E5
:10246000003802401030000400300020000000203E
:102470000024F4000800002010B504460268136927
:1024800023F44053C1680B431361836802691A4304
:1024900043691A43C3691A430168CB6823F416439E
:1024A00023F00C031343CB600268536923F4407399
:1024B00081690B4353610368314A934206D002F5A8
:1024C0008062934202D0FFF719FF01E0FFF726FF79
:1024D000E369B3F5004F29D00021031849411B18C7
:1024E00041F10001C90041EA5371DB00181863682B
:1024F0004FEA83024FEA937341F10001FDF7C0FEFA
:10250000204AA2FB00314909642303FB11031B018C
:102510003233A2FB03235B0903F0F00202EB01124A
:1025200003F00F03216813448B6010BD00230218D1
:1025300043EB0301121841F10001C90041EA527155
:10254000D200101841F10001626892185B41FDF75A
:1025500097FE0C4AA2FB00314909642303FB1103D7
:10256000DB003233A2FB03235B095A0002F4F8724A
:1025700002EB011203F00703216813448B60D4E7D8
:10258000001001401F85EB512DE9F84305460F4629
:1025900016469946DDF820802B681C6837EA04044B
:1025A0000CBF01240024B4422DD1B8F1FF3FF3D079
:1025B000B8F1000F05D0FFF76DF8A0EB090040451A
:1025C000EAD92A6802F10C0353E8003F23F4D073E0
:1025D0000C3242E800310029F3D12A6802F11403D9
:1025E00053E8003F23F00103143242E80031002990
:1025F000F3D1202385F83D3085F83E30002385F85F
:102600003C30032000E00020BDE8F88358B310B54B
:10261000044690F83D300BB3242384F83D30226803
:10262000D36823F40053D3602046FFF725FF2268C8
:10263000136923F4904313612268536923F02A033A
:1026400053612268D36843F40053D36000202064B0
:10265000202384F83D3084F83E3010BD80F83C30B3
:10266000FEF7CCFED8E7012070472DE9F04182B09B
:102670001E4690F83D30DBB2202B54D104460D4667
:102680009046002953D0002A53D090F83C30012BBB
:1026900051D0012380F83C3000230364212380F8CB
:1026A0003D30FEF7F7FF0746A4F82480A4F8268003
:1026B000A368B3F5805F05D04FF00008002384F8CD
:1026C0003C3012E0236913B14FF00008F6E7A8464A
:1026D0000025F3E738F8023B2268C3F30803536090
:1026E000E28C92B2013A92B2E284E38C9BB273B173
:1026F00000963B46002280212046FFF745FFE0B9C7
:10270000002DE7D015F8012B23685A60E8E7009602
:102710003B46002240212046FFF736FF78B92023B0
:1027200084F83D3000E0022002B0BDE8F0810120D5
:10273000FAE70120F8E70220F6E70320F4E7032098
:10274000F2E72DE9F04182B01E4690F83E30DBB250
:10275000202B5CD104460D46904600295BD0002A10
:102760005BD090F83C30012B59D0012380F83C30ED
:1027700000230364222280F83E200363FEF78AFFD1
:102780000746A4F82C80A4F82E80A368B3F5805FD8
:1027900005D04FF00008002384F83C3017E023698F
:1027A00013B14FF00008F6E7A8460025F3E72368C9
:1027B0005B68C3F3080328F8023B03E023685B6807
:1027C0002B700135E28D92B2013A92B2E285E38D2F
:1027D0009BB2BBB100963B46002220212046FFF76A
:1027E000D3FEF0B9002DE2D0A368B3F5805FE5D049
:1027F00013B92369002BE1D023685B6803F07F03E2
:102800002B70DEE7202384F83E30002000E0022019
:1028100002B0BDE8F0810120FAE70120F8E70220CC
:10282000F6E70320F4E700000CB430B5174B0C1E9C
:102830001D689DB008DA8B232B604FF0FF301DB070
:10284000BDE8304002B070474FF40273ADF8143069
:1028500014BF04F1FF332346049307934FF6FF732D
:1028600002900690ADF81630209A21AB02A92846B6
:10287000019300F0C9F9431CBCBF8B232B60002CD3
:10288000DDD0029B00221A70D9E700BF580000205B
:1028900002440346934200D1704703F8011BF9E755
:1028A00010B50139034632B111F8014F03F8014B5D
:1028B000013A002CF7D11A440021934200D110BDF7
:1028C00003F8011BF9E710B5024601448A4213469A
:1028D00003D01C780132002CF8D1181A10BD00006A
:1028E000014B1868704700BF5800002070B50D4DAF
:1028F0000D4C641BA4100026A64209D10B4D0C4CB4
:1029000000F072FC641BA4100026A64205D170BD25
:1029100055F8043B98470136EEE755F8043B9847D5
:102920000136F2E774340008743400087434000887
:102930007834000870477047034611F8012B03F8FC
:10294000012B002AF9D170470A44914200F1FF336C
:1029500000D1704710B511F8014B03F8014F9142B7
:10296000F9D110BD37B5002944D051F8043C01908D
:10297000002BA1F10404B8BFE41800F0DFF81E4AF0
:102980000198136833B96360146003B0BDE8304048
:1029900000F0DAB8A34208D9256861198B4201BF5B
:1029A00019685B6849192160EDE71A465B680BB14D
:1029B000A342FAD911685518A5420BD124682144C5
:1029C0005418A3421160E0D11C685B6853600C444A
:1029D0001460DAE702D90C230360D6E72568611991
:1029E0008B4204BF19685B68636004BF49192160AA
:1029F0005460CAE703B030BDC006002070B50E4E6B
:102A00000C463168054611B900F0A6FB306021463E
:102A1000284600F0A1FB431C0AD0C41C24F0030488
:102A2000A04207D0211A284600F096FB013001D1C0
:102A30004FF0FF34204670BDC40600202DE9F84356
:102A4000CD1C25F0030508350C2D38BF0C25002DB5
:102A5000074601DBA94205D90C233B60002630461E
:102A6000BDE8F883DFF8D08000F068F8D8F80030CF
:102A70001C465CBB29463846FFF7C0FF431C044692
:102A800055D1D8F800402646002E45D1002C48D01C
:102A900023683146384604EB030900F05DFB8145AD
:102AA0003FD121686D1A29463846FFF7A7FF01304C
:102AB00037D023682B442360D8F80030002B38D05F
:102AC0005A68A2422BD100225A600FE02268521BA2
:102AD0001FD40B2A17D96119A342256018BF59606A
:102AE000636808BFC8F8001062514B60384604F1B3
:102AF0000B0600F029F826F00706231DF21AAED0C7
:102B00009B1BA350ABE7A3426268DDD1C8F800204D
:102B1000ECE723466468ACE734467668B4E71346CE
:102B2000CCE70C233B60384600F00EF897E72560B1
:102B3000DCE75B60FFDE00BFC00600200148FFF756
:102B4000F9BE00BFBC0600200148FFF7F4BE00BF7D
:102B5000BC0600202DE9F0478E681F46BE420B6878
:102B600082460C4690462CD88A8912F4906F26D063
:102B70006569096905EB4505A3EB010905EBD57509
:102B80007B1C4B446D109D4238BF1D46530527D515
:102B90002946FFF753FF064660B321694A46FFF70F
:102BA000D3FEA38923F4906343F08003A3812661BD
:102BB00065614E44A5EB09052660A5603E46BE4210
:102BC00000D93E4620683246414600F0ABFAA36881
:102BD0009B1BA3602368334423600020BDE8F0877B
:102BE0002A4600F0C9FA06460028E0D1216950467D
:102BF000FFF7B8FE0C23CAF80030A38943F0400366
:102C0000A3814FF0FF30E9E72DE9F04F98468B891B
:102C10001B069DB007460D4614460ED50B6963B9D9
:102C20004021FFF70BFF2860286120B90C233B608F
:102C30004FF0FF30D0E040236B6100230993202345
:102C40008DF82930CDF80C803023DFF8A4818DF881
:102C50002A304FF0010923469A4613F8012B0AB196
:102C6000252AF9D1BAEB040B0BD05B462246294644
:102C70003846FFF76FFF013000F0A980099A5A44E7
:102C800009929AF80030002B00F0A18000234FF049
:102C9000FF32CDE905230AF1010A049307938DF869
:102CA00053301A935446052214F8011B5048FDF77F
:102CB00097FA049AD8B9D00644BF20238DF8533030
:102CC000110744BF2B238DF853309AF800302A2B7C
:102CD00015D0079A544600204FF00A0C214611F8EF
:102CE000013B303B092B4DD9B0B1079214E0A0EB6A
:102CF000080309FA03F313430493A246D2E7039BA4
:102D0000191D1B680391002BBBBF5B4242F00202FE
:102D100007930793B8BF049223782E2B0CD16378C6
:102D20002A2B34D1039B1A1D1B680392002BB8BFBA
:102D30004FF0FF3302340593DFF8C4A0217803225B
:102D40005046FDF74DFA38B1049BA0EB0A00402233
:102D5000824013430134049314F8011B25488DF875
:102D600028100622FDF73CFA002838D0224B1BBB66
:102D7000039B073323F0070308330393099B334472
:102D8000099368E70CFB02320C460120A6E70023FA
:102D90000134059319464FF00A0C204610F8012B18
:102DA000303A092A03D9002BC6D00591C4E70CFBA1
:102DB000012104460123F0E703AB00932A460F4BA1
:102DC00004A93846AFF30080421C0646D6D1AB8931
:102DD0005B063FF52DAF09981DB0BDE8F08F03AB42
:102DE00000932A46054B04A9384600F079F8EBE732
:102DF000383400084234000800000000552B000859
:102E00003E3400082DE9F047164699468A680B695A
:102E1000DDF820809342B8BF1346336091F8432019
:102E200007460C460AB1013333602368990642BF56
:102E3000336802333360256815F0060506D104F1C6
:102E4000190AE36832689B1AAB4226DC94F84320E7
:102E5000131E226818BF012392062BD404F14302EB
:102E600049463846C04701301ED02368226903F026
:102E70000603042B02BFE5683368ED1AA3680CBF94
:102E800025EAE57500259342C4BF9B1AED1800267C
:102E90001A34B5421AD1002008E0012352464946AF
:102EA0003846C047013003D14FF0FF30BDE8F0870E
:102EB0000135C6E7E1185A1C302081F8430022444E
:102EC00094F8451082F843100233C7E701232246E5
:102ED00049463846C0470130E6D00136D9E7000000
:102EE0002DE9FF470F7E0C9D782F914680460C46BA
:102EF0009A4601F1430207D8622F0AD8002F00F04A
:102F0000D480582F00F0C08004F1420584F842704C
:102F10003AE0A7F16303152BF6D801A151F823F08D
:102F2000792F00088D2F0008092F0008092F0008AD
:102F3000092F0008092F00088D2F0008092F00080D
:102F4000092F0008092F0008092F000891300008F8
:102F5000B92F00084B300008092F0008092F00087E
:102F6000B3300008092F0008B92F0008092F000806
:102F7000092F0008533000082B681A1D1B682A60AF
:102F800004F1420584F8423001239FE020682B6859
:102F9000070603F10401296001D51E6803E0460617
:102FA000FBD5B3F90060002E03DA2D23764284F8B6
:102FB00043305A480A2312E02B682068191D296003
:102FC000050601D51E6802E04106FBD51E88534860
:102FD0006F2F0CBF08230A23002184F84310656873
:102FE000A560002DA2BF216821F0040121600EB967
:102FF000002D4BD01546B6FBF3F103FB1167C75DFF
:1030000005F8017D3746BB420E46F4D9082B0BD19B
:103010002368DE0708D5236961689942DEBF302343
:1030200005F8013C05F1FF35521B2261CDF800A0E7
:103030004B4603AA21464046FFF7E4FE01304AD141
:103040004FF0FF3004B0BDE8F087236843F0200361
:1030500023603348782784F84570236829681F0661
:1030600051F8046B02D45F0648BFB6B2DF0748BF11
:1030700043F02003296048BF23601EB9236823F072
:10308000200323601023A7E72448E4E71546BDE7A3
:103090002B6826686169181D286035061B6801D5F4
:1030A000196002E07006FBD51980002323611546E4
:1030B000BCE72B681A1D2A601D686268002128463B
:1030C000FDF78EF808B1401B606063682361002340
:1030D00084F84330AAE723692A4649464046D04748
:1030E0000130ADD023689B0713D4E068039B98425E
:1030F000B8BF1846A6E70123324649464046D047A6
:1031000001309DD00135E36803995B1AAB42F2DCD4
:10311000EBE7002504F11906F5E700BF4934000884
:103120005A340008884210B501EB020402D98442E7
:10313000234607D8431EA14208D011F8012B03F8FB
:10314000012FF8E7024401468A4200D110BD13F86E
:10315000014D02F8014DF7E738B5064D002304464E
:1031600008462B60FEF7DCF9431C02D12B6803B143
:10317000236038BDB80600202DE9F0418046144692
:103180000E4621B9BDE8F0411146FFF757BC2AB9F8
:10319000FFF7E8FB25462846BDE8F08100F01BF864
:1031A0008442074602D8B4EB500F12D8214640465D
:1031B000FFF744FC05460028EDD0BC4222463146CC
:1031C00028BF3A46FFF7C0FB31464046FFF7CAFB2F
:1031D000E1E73546DFE751F8043C181F002BBCBF80
:1031E0000B58C01870470000F8B500BFF8BC08BC09
:1031F0009E467047F8B500BFF8BC08BC9E467047B5
:1032000014050020D00400208C0400208C04002031
:103210000080000800001000D00700001027000008
:103220007E00000000000E080B00000000000200FD
:103230006A756D7020746F206D61696E20617070A9
:103240000D0A00004E2F4100426F6F746C6F616475
:10325000657220737461727465640D0A0000000069
:1032600056302E3100000000323032362D30392DEC
:10327000303100004F505530303030303030310078
:103280004D6574616461746120696E697469616C13
:10329000697A656420776974682064656661756C15
:1032A00074730D0A000000004661696C6564207447
:1032B0006F2077726974652064656661756C74202F
:1032C0006D657461646174610D0A00005665727306
:1032D000696F6E3A2025732020446174653A202579
:1032E00073202053657269616C3A2025730D0A00C2
:1032F0004D657461646174612061646472657373A7
:10330000206E6F7420636F6E666967757265640DF9
:103310000A00000055706461746564202D3E2056DB
:10332000657273696F6E3A2025732020446174655D
:103330003A202573202053657269616C3A20257309
:103340000D0A0000464C41534820756E6C6F636B4C
:10335000206661696C65640D0A0000004572617346
:1033600065206F7574206F66206170702072616EC9
:1033700067650D0A00000000457261736520666193
:10338000696C65640D0A000050726F6772616D2090
:103390006661696C0D0A00004352432076657269CC
:1033A0006679206661696C0D0A00000053746172D1
:1033B00074205573657220417070200D0A00000062
:1033C00000400000004000000040000000400000FD
:1033D00000000100000002000000020000000200E6
:1033E00000000200000002000000020000000200D5
:1033F00000000008004000080080000800C000082D
:10340000000001080000020800000408000006088F
:103410000000080800000A0800000C0800000E0860
:103420000000000000000000010203040607080974
:103430000000000001020304232D302B2000686CE3
:103440004C006566674546470030313233343536C7
:103450003738394142434445460030313233343500
:0C3460003637383961626364656600002D
:08346C0044CEFF7F01000000C7
:04347400B501000896
:0434780091010008B6
:10347C000024F40001000000100000000000000017
:10348C0080050020E8050020500600200000000008
:10349C000000000000000000000000000000000020
:1034AC000000000000000000000000000000000010
:1034BC000000000000000000000000000000000000
:0C34CC0000000000000000000C000020C8
:040000050800157D5D
:00000001FF
